:020000040000FA
:060000000211BD0207C55C
:03002B00020F2C95
:030053000206F4AE
:10008300020756010100F0FF0700080000FFFF0010
:10009300000504000000030001FF0020FD0002062C
:1000A300FFFF1E01001A12000000010500000001FD
:1000B3001B0000071B0000000000000000000010F0
:1000C300202020202020202020202020202020202D
:1000D300010104010C000105CA8001F28101040041
:1000E300005912000000E8030000FFFFAA12018874
:1000F300130000E803000064006400B801A0BB0D16
:1001030000A0BB0D00020202070401051E02051E2A
:10011300020A0A010108080103B80B02803E01022A
:10012300FEFFE8030A050001FFFF020A011401E0D4
:100133000200000005030101FF0F9B2C00000000DB
:10014300D12B00000000FF000000FF001212096025
:10015300461211CD603DE9687008F618F618F618D6
:10016300F622748067F7120183090909748067F71F
:10017300221211CD601D1212097005191919801A66
:100183001210E1701F1210CDC37003E66733191903
:100193001940071818182208080874FFF618F618EB
:1001A300F618F6221210CD601712126A702192F01F
:1001B30012127C7019501720F01408080809090955
:1001C300E7F61819E7F61819E7F61819E7F62212F1
:1001D300127C60E6E869701F0808E62480F608E4EC
:1001E30036F618547FB47F0CE654806007F6E418A3
:1001F300F618F622181822E9C6CC08C6CD08C6CED2
:1002030008C6CFC0E0E8C0E0EAC0E0EBC0E009E91F
:10021300F809E7FA09E7FBE6F918E6F8C3EC98ED05
:1002230099EE9AEBC2E7F5F0EFC2E795F0500E6056
:100233000CEBCFFBEACEFAE9CDF9E8CCF8EAA2E77A
:10024300D2E7FAEB33FB13F5F0EEA2E7D2E7FEEFCA
:1002530033FFC5F013A2E730E601B313C5F0C3C003
:10026300E0C0F07F00C39BFB605E9418600F401DED
:1002730014601AD0E023F9D0E0F80203558AF0E9BC
:10028300486003D2F0E4AFF0FAF9F8803BEB30E4D6
:100293000D89F0EA6003D2F0E4AFF0F9CAF8EB306D
:1002A300E30D88F0EF6002D2F0AFF0E4CAC9F8EBD7
:1002B30054076014FBC3EA13FAE913F9E813F8EFE0
:1002C300135002D2E0FFDBEDD0E0C0E030E739C3EA
:1002D300E49FFFF5F0EC98FC42F0ED99FD42F0EE5F
:1002E3009AFE42F0D0E0F9D0E0F8E5F0607AE92335
:1002F300F9EE20E742D8028067C3EF33FFEC33FC0B
:10030300ED33FDEE33FE80EAEC28FCED39FDEE3AE9
:10031300FED0E023F9D0E0F84002801BC3EE13FEC9
:10032300ED13FDEC13FCEF135002D2E0FF08B8000D
:10033300067F7F74FF802EEF3350178CF020F0027E
:1003430060100CBC000C0DBD00080EBE000408E8D4
:1003530060DFE933E813FFEE2313FE4F4D4C8008B3
:10036300E95480FFE4FEFDFCEE33EF33F47004FC4C
:10037300FD7E80D0E0FBD0E0FAD0E0F8D0E0CFC63D
:1003830018CEC618CDC618CCC6F9221211CD7004EA
:1003930018181822121209700D74FFF61819F6189E
:1003A30019F61819F622E7548066F612127C700FBC
:1003B30012126A70F014F608F608F608F680D112E5
:1003C300126A700CF608F608768008E6447F80EC23
:1003D3001210D0700C1210E460BFE65480F6E48073
:1003E300BB1210E4700519191980A5E869700C7621
:1003F3003F18768018F618F6E8F922E6CDC0E01823
:10040300ECC0E0E633CD33CDD313F6E719FCE7199F
:100413001933CC33C3947F400ECD9D502408E6544A
:1004230080F6E418F6800FF4043D14501408E644F3
:100433007FF6187680E418F618F6D0E0FCD0E0FDDD
:1004430022CCD313CCFD18E4C6CBC0E018E4C6CA53
:10045300C0E00808ED08C633E613F618E433C675A2
:10046300F003C3CA97CA09CB97CB199C40047D08F4
:10047300802EBD000302053716B6FF0506060816D3
:1004830018C3CA33CACB33CB33CA27CA09CB37CB3A
:10049300193CC37D08803E187D0820E75CC633C63F
:1004A300CA33CACB33CB33DDF1D5F0EB30E77BCAAC
:1004B30097CA09CB974ACB199C406F4B7025E6200E
:1004C300E0218066187D08C3CA97CA09CB97CB1968
:1004D3009CD3C633C6CA33CACB33CB3350C9DDE74B
:1004E300D5F0E1D3E4C636C608C636C608C636C656
:1004F30008C636C61818188031C3CA97CA09CB97DD
:10050300CB199CB34097C633C6CA33CACB33CB335C
:10051300DD34D5F02EC6A2E0C640C8CA27CA09CB2F
:1005230037194A70BECB3CB480B90808E63308E6F5
:1005330033601F181818D0E0FAD0E0FBD0E0FCD0ED
:10054300E0FD22187D08CA27CA09CB37CB193CD353
:10055300808013F618E4B67F11F618B6FF0EF6186E
:10056300C60470D20808768080CAF618F618F6809A
:10057300C5001211CD604F1212096012E754806654
:10058300F61210E1701112126A703B090909F4F6B0
:1005930018F618F618F6221210CD701512127C08F0
:1005A300080860EAE6447FF618768018E4F618F641
:1005B3002212127C601612126A7012E4F608F60810
:1005C300F608E65480F609090918181822EAC0E06B
:1005D300EBC0E0ECC0E0EDC0E0E687F0A4FBACF0DC
:1005E30008E687F0A42CFCE435F0FA1809E687F056
:1005F300A42C4B60027401CA35F0FCE433FB09E61A
:1006030087F0D2F7A42CCB35F0FC1908E687F0A4C9
:100613002BCC35F0FBE433FD0819E687F0D2E7A4D1
:100623002C4ACB35F0CD3400FC09E687F0D2E7A4A1
:100633002DCC35F0FDE433FA0918E687F0D2F7A4A0
:100643002CCD35F0CA3400FC08E687F0D2E7D2F7A8
:10065300A42ACC35F07A7E20E70B0ACB33CBCD33FB
:10066300CDCC33CC33CB3350147004ED30E00ED209
:10067300F1E4CD3DCDCC3CCC3B5005DA05C2F1EBEA
:10068300547FC63308E63392F0FBE73309E733C3FD
:100693009A502D2B70190C0D4C4D70151806E60849
:1006A300C333700D20F10AA2F013F6E418800B4057
:1006B30024E4F630F002768018F618F618F6802453
:1006C300D33B14501074FFA2F013F6187680E4188D
:1006D300F618F6800FA2F013F618E63303F618ECBB
:1006E300F618EDF6D0E0FDD0E0FCD0E0FBD0E0FA68
:1006F30022C0E074F1120B4BA2AFE433F509D2AF81
:1007030085A708AFA1EF5508FE74105E60061214AA
:10071300AD75A1EF74085E60081214B375A1F7807C
:1007230024EFA2E092F0E508A2E082F05017906176
:1007330098E0F89004C4E0C398A2D265D033500285
:10074300E8F075A1FE751A00E509A2E092AF7F02F9
:10075300020BAAC0E074F2120B4BA2AFE433FED239
:10076300AF9061A4E0F8759B00E5915854086008C8
:100773007591F71215018023E5915854106008759F
:1007830091EF1215078014E591A2E092F0E8A2E040
:1007930082F05007E0C2E0F012165D9061A3E0F82A
:1007A300E5E9585404600E12163375E9FB90619322
:1007B300E0A2E640F2751A00EEA2E092AF7F0102DA
:1007C3000BAAC0E074F2120B4BA2AFE433FED2AF1C
:1007D3009061A5E0F8E5BF585404600675BFFB12AD
:1007E300167580D1C3E498F8E499F9120828802695
:1007F300C3E49AFAE49BFBE920E7E9120828E498AA
:10080300F8E499F922C3E498F8E499F9120828E482
:1008130098F8E499F9C3E49AFAE49BFB22EB20E706
:10082300CFE920E7E0B90010BB0008E88AF084F8BC
:10083300AAF022E4FBC8FA22EB70227B10C833C86B
:10084300C933C9335007C39AC3DBF280069A5001F8
:100853002ADBEAC833F4C8C933F4C9FA2275F008AD
:10086300E4C833C8C933C933C99AC99B5004C92AD8
:10087300C93BD5F0ECFBC833F4C8E4C9FA2212082B
:10088300C120F01430E72B74FFFCFBFA747F802245
:10089300E4FCFBFA7480801AB48008BC00F2BB004D
:1008A300EF800F50EBF9E4C39AFAE49BFBE49CFC62
:1008B300E499C6CC18C6CB18C6CA18C6F922E4C92F
:1008C300C608CAC608CBC6D3330308CCC63392F0D6
:1008D300C3947F402E94184019C9B90704CACBCCDE
:1008E300225025C309CA33CACB33CBCC33CC33D93B
:1008F300F422F4600DC9CCC313CB13CBCA13CAD9EA
:10090300F6CC22E4FCFBFA2214FCFBFA22080808CA
:10091300EAC0E0EBC0E086F0E7A4FA180986F0E746
:10092300A42AFA180986F0E7A42AFA180986F0E738
:10093300A42AFA1986F0E7A4FBE5F02AFA19088637
:10094300F0E7A42BFBE5F03AFA190886F0E7A42BAD
:10095300FBE5F03AFA18180986F0E7A4C5F02BFB7B
:10096300E43AFA1908E7C5F0C6A426F6E5F03BFB1E
:10097300E43AFA1886F0E7A4F6E5F00826F6E43B35
:1009830008F6E43A08F6D0E0FBD0E0FA22080808BB
:10099300E630E71112107D1209A8080808C6448042
:1009A300C618181822181818E9799EC608CAC60866
:1009B300CBC608CCC6C370207996CACBCC70197944
:1009C3008ECBCC70137986CC700EF9802ACA33CAC9
:1009D300CB33CBCC33CC331930E7F2CCCBCA335047
:1009E300147004EA30E00DE4CA3ACACB3BCBCC3CEA
:1009F300CC500209C3E913C6CC182313C6CB18C6BF
:100A0300CA18C6F922E4CFC0E0E4CEC0E0E4CDC00A
:100A1300E0E4CCC0E075F020E626F608E633F608FD
:100A2300E633F608E633F6181818EC33FCED33FD1D
:100A3300EE33FEEF33FFC3EC9709ED9709EE970909
:100A4300EF97191919400FFFEC97FC09ED97FD0972
:100A5300EE97FE191906D5F0BFECF709EDF709EE8D
:100A6300F709EFF7191919D0E0FCD0E0FDD0E0FE4B
:100A7300D0E0FF222518C582C0E0E51934FFC58305
:100A8300C0E0E518C3958224F810AF088583198563
:100A930082188008858319858218D2AFCEF0A3E52A
:100AA30020F0A37808E608F0A3DEFAEFF0A3E581CF
:100AB30024FAF8E608F0A3E608F0A3E608F0A30892
:100AC30008E608F0A3E608F0A315811581D0E0FE3F
:100AD300D0E0F8158115811581E8C0E0EEC0E02271
:100AE300121255B90003020B35E4900401784979D9
:100AF300128002F0A3D8FCD9FA781A9000867A0102
:100B0300BA00028007E493A3F608DAF97A497B1561
:100B130090008778C979018015E493A3AD82AE83F1
:100B23008A828B83F0A3AA82AB838D828E83D8E9DA
:100B3300D9E775828F7583EA7404120F0E75823BB1
:100B43007583297400120F0EC0D02518C582C0E02A
:100B5300E51934FFC583C0E0E518C3958224F3107B
:100B6300AF088583198582188008858319858218C3
:100B7300D2AFC8F0A3E9F0A3EAF0A3EBF0A379089E
:100B8300E709F0A3D8FAECF0A3EDF0A3EEF0A3EF9E
:100B9300F0A3D0E0F0A3D0E0F0A3D0E0F0A3E520F1
:100BA300F0A3E5F0F0A322851983851882E0C0E065
:100BB300A3E0F9A3E0FAA3E0FBA37808E0F608A317
:100BC300DFFAE0FCA3E0FDA3E0FEA3E0FFA3E0C0A7
:100BD300E0A3E0C0E0A3E0F5D0A3E0F520A3E0A309
:100BE300F5F010AF0885831985821880088583196D
:100BF300858218D2AFD082D083D0E0F8D0E032E43F
:100C03007375F0108E218F228582268583258518A2
:100C130082851983E0CEA3E0CF852682852583EBE9
:100C2300C9EAC8EDCBECCAC3E833C8E933C9EA3330
:100C3300CAEB33CBC3EA9EF524EB9FF523B35004F1
:100C4300AB23AA24EC33CCED33CDD5F0DAAE21AF10
:100C530022221211CD601C121209601712127C702D
:100C63000712126A7001D322C0D012126A7006D022
:100C7300D0B322C32233D0D0501430E0F6C3E7966A
:100C83000809E7960809E7960809E796B32220E0E2
:100C9300D5E6970809E6970809E6970809E697B3A2
:100CA30022D083D082ECC0E0EDC0E0E493A3FCE467
:100CB30093A3FDED4C600D120D7CEC24FFFCED3491
:100CC300FFFD80EFE493A3FCE493A3FDED4C600DE3
:100CD300120E19EC24FFFCED34FFFD80EFD0E0FD94
:100CE300D0E0FCE493A3C0E0E493C0E02285198341
:100CF300851882E0A3FEE0A3F5207808E0A3F608B8
:100D0300DFFAE0A3FFE0A3C0E0E0A3C0E0E0A3C0FC
:100D1300E0E0A3C0E0E0A3C0E010AF08858218853F
:100D230083198008858218858319D2AFD083D08236
:100D3300020F14D083D082E9C0E0E493A3C386F00A
:100D4300C5F095F0F908E493A386F0C5F095F0702B
:100D53000BE493A3C3994005E9048002A3E475F06F
:100D630002A42582F582E5F03583F583D0E0F9E42A
:100D730093A3C0E0E493C0E022C0E0C3E4939608E9
:100D83007401939618400FE49366700808740193F6
:100D9300661870007019A3A3C3E4939608740193B3
:100DA3009618A3A3400DD0E0D0E0D0E0020CE0A35E
:100DB300A3A3A3A3A3D0E02274048004740280003D
:100DC300CCC0E0EDC0E0E518C39CCCAD1950011DCB
:100DD30010AF068C188D1980068C188D19D2AF129E
:100DE3000E90D0E0FDD0E0FC2274028000CCC0E085
:100DF300EDC0E0E518C39CCCAD1950011D10AF0642
:100E03008C188D1980068C188D19D2AF120E6ED0E6
:100E1300E0FDD0E0FC22C0E0C0F088F0E49366700F
:100E2300080874019366187000A8F0A3A3700BD090
:100E3300F0D0E0D0E0D0E0020CE0A3A3D0F0D0E00B
:100E430022D083D082CCC0E0E493A36006120EB11B
:100E53001470FAE493A360061210131470FAD0E02E
:100E6300FCE493A3C0E0E493C0E022CAC0E0E493AF
:100E7300A3C582CCC582C583CDC583F0A3C582CC6F
:100E8300C582C583CDC583DAE5D0E0CA22CAC0E0F6
:100E9300E0A3C582CCC582C583CDC583F0A3C5823B
:100EA300CCC582C583CDC583DAE6D0E0CA22C0E0D3
:100EB300E493A3D39C5010E493A3C39C400AD0E0D3
:100EC300D0E0D0E0020E61A3A3A3D0E022C008C308
:100ED300E096F50808A3E096420808A3E0964208C6
:100EE30008A3E09645087001D3D0082270090808CA
:100EF30008226016181818C6C333C608C633C608B6
:100F0300C633C608C633C6D5E0EA22C09FF59FE4C0
:100F130073D09F22D083D082C09FE493C0E074013A
:100F230093C0E0740293F59F22C0E0C0D0E8C0E014
:100F3300A8A8D2AFC2C7751A00E8A2E792AFD0E063
:100F4300F8D0D0D0E0322518F58210AF08F518405C
:100F53000C15198008F51840021519D2AF851983AD
:100F6300227404800A74038006740280027401C030
:100F7300E0F404120F49D0E01212182200C0D02569
:100F83001810AF08F518500C05198008F518500211
:100F93000519D2AFD0D022BB0102E722C082C083A1
:100FA30089828A83BB0003E08002E493D083D082EA
:100FB300226016080808C6C313C618C613C618C687
:100FC30013C618C613C6D5E0EA222518F8E4351966
:100FD300F9222518FAE43519FB222518FCE4351902
:100FE300FD22C3E0C696F608A3E0C696F608A3E082
:100FF300C696F608A3E0C696F622251810AF08F5A4
:1010030018400C15198008F51840021519D2AF22A3
:10101300C0E0E493A36C7009D0E0D0E0D0E0020E0E
:1010230061A3A3D0E022C3E7960809E7960809E77E
:10103300960809E796A2D265D03322E766701008B6
:1010430009E766700A0809E76670040809E766227B
:10105300C3E09608A3E09608A3E09608A3E096A24F
:10106300D265D03322E066701008A3E066700A08E8
:10107300A3E066700408A3E06622181818E4C39678
:10108300F608E496F608E496F608E496F622C3E436
:1010930093960874019396087402939608740393C5
:1010A3009622C3E096F008A3E096F008A3E096F03A
:1010B30008A3E096F022C3E697F60809E697F60838
:1010C30009E697F60809E697F622191919E7094779
:1010D300097009E727097005E733F4220922181874
:1010E30018E60846087009E626087005E633F42278
:1010F3000822E026F008A3E036F008A3E036F00863
:10110300A3E036F022E026F608A3E036F608A3E0D3
:1011130036F608A3E036F622E627F60809E637F6A0
:101123000809E637F60809E637F622700422600D4F
:1011330018C6C333C608C633C6D5E0F41822E05632
:10114300F608A3E056F608A3E056F608A3E056F621
:1011530022E657F60809E657F60809E657F608099E
:10116300E657F622E647F60809E647F60809E64792
:10117300F60809E647F622E056F008A3E056F00821
:10118300A3E056F008A3E056F022C6F4C608C6F45E
:10119300C608C6F4C608C6F4C622C3E09608A3E090
:1011A3009608A3E09608A3E09622C3E7960809E70A
:1011B300960809E7960809E7962275D00075813FDE
:1011C30075180175190400020AE3E6084608C313FB
:1011D3004608336002E633F422600C08C6C313C624
:1011E30018C613C6D5E0F422E0F608A3E0F608A378
:1011F300E0F608A3E0F622E6F008A3E6F008A3E68B
:10120300F008A3E6F022E7094709C313470933604F
:1012130002E733F422CAC0E0E6F0A308DAFAD0E02A
:10122300FA22E8F0A3E9F0A3EAF0A3EBF022E0FA54
:10123300A3E0FBA3E0FCA3E0FD22EAF0A3EBF0A311
:10124300ECF0A3EDF022E0F8A3E0F9A3E0FAA3E0C9
:10125300FB22E5C754F84401F5C77901222518F5A7
:1012630082E43519F58322E72719471947194722DD
:10127300C2AF75D69F02000022E62618461846180C
:101283004622120F17C9DB01120F1767DC01120F79
:101293001726DD01120F1770E001120F17E7E201A5
:1012A300120F178DE301120F17BAE301120F170B79
:1012B300E401120F1796E401120F1737E501120F1D
:1012C300179AE501120F17DEE501120F178BE601DE
:1012D300120F17F8E601120F172BE701120F173938
:1012E300E801120F175DE801120F17C1E801120F91
:1012F30017A5E901120F17A8EB01120F174AEC010A
:10130300120F17D4EE01120F1758EF01120F17D057
:10131300F101120F1709F401120F1743F401120F11
:1013230017A8F501120F17B2F501120F17F8F501FF
:10133300120F179AF701120F1735F901120F170041
:101343008004120F177C8004120F17AF8004120F52
:1013530017DD8004120F17208304120F173F830435
:10136300120F17848304120F171A8404120F1766BF
:101373008404120F17F88404120F17D08504120F78
:1013830017218604120F17868604120F170387048A
:10139300120F17398704120F17848704120F17AA25
:1013A3008704120F173A8804120F17D18804120FFB
:1013B300171D8904120F174E8904120F178589040C
:1013C300120F170D8B04120F17D78B04120F17B1BF
:1013D3008C04120F1726F704120F173EF704120F8F
:1013E30017F8FF01120F17DFFF01120F1753F30452
:1013F300120F1763F304120F176FF304120F170082
:10140300F404120F17EDFE03120F1770FF03120FF0
:1014130017D6FF03120F17F2FF01120F17F5FF0183
:10142300120F17F87F00120F178EE804120F17C65A
:10143300E804120F1708EA04120F178CEA04120FBC
:1014430017D7FA01120F1703FB01120F1774FD01CF
:10145300120F17B4FD01120F17F4FD01120F170835
:10146300FE01120F1721FE01120F1712FF01120FB7
:1014730017B7FF01120F17CBFF01120F1771EC04FF
:10148300120F1795EC04120F17AEEC04120F17E0AE
:10149300EC04120F1710ED04120F173DED04120F99
:1014A3001747ED04120F17A9ED04120F17B8ED0437
:1014B300120F17C2ED04120F17CFED04120F1762AC
:1014C300E104120F1782E104120F17C1E104120F96
:1014D30017DCE104120F17FBE104120F1761E2049A
:1014E300120F176AE204120F17C7E204120F17D67E
:1014F300E204120F17FAE204120F17BBE304120FF0
:1015030017C8E304120F17D9E304120F1775F60473
:10151300120F178DF604120F17B9F604120F17E600
:10152300BD04120F1742BF04120F174FBF04120F4F
:101533001762BF04120F1777BF04120F178CBF0473
:10154300120F179FBF04120F1713C004120F17783F
:10155300C004120F1700C104120F177CC104120F2D
:101563001740C204120F1750C204120F175FC204B0
:10157300120F17AEF404120F17D2F404120F17FA56
:10158300F404120F1722F504120F1707E404120FC5
:10159300172EE404120F174CE404120F17BFE404D0
:1015A300120F178FDE04120F17A8DE04120F17B4E1
:1015B300DE04120F17C8DE04120F17E6DE04120F43
:1015C30017F0DE04120F17FADE04120F170DDF04F3
:1015D300120F1793DF04120F1708E004120F1737C7
:1015E300E004120F1785E004120F17D4E004120F62
:1015F30017EFE004120F17F9E004120F170AE104C2
:10160300120F174DE104120F17CEF504120F17191D
:10161300F604120F174DAD04120F1777AD04120F16
:101623001794AD04120F17A7AD04120F17BDAD0425
:10163300120F171BAE04120F1753AE04120F1747E6
:10164300B204120F178CB304120F17BFB304120F97
:101653001722B404120F1782B504120F17AAB50488
:10166300120F17BFB504120F17CFB504120F1713BC
:10167300B604120F176EB604120F177EB604120FBC
:10168300176FF004120F1789F004120F17B1F0044B
:10169300120F17CAF004120F17EEF004120F170CF3
:1016A300F104120F1723F104120F1751F104120F53
:1016B300176CF104120F179FF204120F17E5F204CF
:1016C300120F1729D804120F1739D804120F173E17
:1016D300D904120F1770D904120F17A0D904120FCF
:1016E30017C3D904120F17DAD904120F1714DA0427
:1016F300120F1779DA04120F17BBDA04120F17FA55
:10170300DA04120F172BDB04120F1756DB04120F28
:1017130017D9ED04120F17EBED04120F17FFEE04A8
:10172300120F1702EF04120F1762FF02120F178D29
:10173300FF02120F17A3FF02120F17E7FF02120F88
:1017430017AEB604120F17E8B604120F1751B704F9
:10175300120F176EB704120F1710B804120F1719D0
:10176300B804120F175EB804120F1787B804120FCC
:101773001794B804120F1705B904120F1790B90480
:10178300120F17DEB904120F171CBA04120F1781B8
:10179300BA04120F17A4BA04120F171BBB04120FBB
:1017A3001772BB04120F17ADBB04120F17E2BB0471
:1017B300120F17F4BB04120F1706BC04120F1725E0
:1017C300BC04120F172EBC04120F17EEBC04120F29
:1017D300173ABD04120F1778BD04120F172FEF0429
:1017E300120F1758E604120F178EE604120F17D6BE
:1017F300E604120F172FE804120F1732EB03120F30
:101803001756EC03120F1790EC03120F173AEE035F
:10181300120F1764EE03120F17D9F003120F1719E3
:10182300F103120F17AFF203120F174CF303120F4A
:10183300179EF303120F1741F403120F1779F403E2
:10184300120F17BBF403120F172AF603120F1778A0
:10185300F703120F17A9F903120F17D7F903120F82
:1018630017FEF903120F1707FA03120F175EFA0395
:10187300120F17F0FA03120F171DFE03120F17A012
:10188300FE03120F1706F404120F171EF404120FAF
:101893001728F404120F177CF404120F1725F6040B
:1018A300120F1798C204120F17AEC204120F174F6C
:1018B300C304120F178EC304120F17ABC304120F06
:1018C30017DCC304120F1729C404120F175CC404D6
:1018D300120F1797C404120F1792C604120F17FAA8
:1018E300C604120F179FF104120F17FEF104120F13
:1018F300173CF204120F177DF204120F17AFCF0437
:10190300120F1774D004120F1708D204120F1719ED
:10191300D204120F1730D204120F1762D204120F1F
:1019230017ADD204120F1706D304120F176FD30487
:10193300120F178DD304120F17008002120F170C0A
:101943008002120F176E8002120F17788002120F97
:1019530017058102120F17418102120F172D820200
:10196300120F173A8202120F17988202120F17E50D
:101973008202120F17868302120F17038402120FBB
:1019830017AC8502120F17778702120F17628802AE
:10199300120F17568902120F17AF8B02120F170976
:1019A3008D02120F17A08D02120F17DF8E02120F76
:1019B30017DD8F02120F17419102120F17D59502EF
:1019C300120F17BD9602120F17509702120F1775B9
:1019D3009702120F179A9702120F17349802120FD9
:1019E300174A9802120F176C9802120F17DD98020C
:1019F300120F17FC9802120F17259902120F1725C1
:101A03009A02120F17299B02120F17BB9C02120F87
:101A130017DC9C02120F17829D02120F17CA9D0238
:101A2300120F17309E02120F17B19E02120F1715D5
:101A33009F02120F17719F02120F170FA002120FAE
:101A4300177BA002120F17AEA002120F1716A102E6
:101A5300120F176FA202120F1701A402120F17A879
:101A6300A402120F1703A702120F1750A702120F97
:101A73001760A702120F17AFA702120F1721A802B0
:101A8300120F1751A802120F17BFA802120F176ADD
:101A9300A902120F175CAB02120F17E0AD02120F6F
:101AA30017E6AE02120F17FDB202120F17C2B302EE
:101AB300120F17E4B402120F1781B602120F17D0D8
:101AC300FB02120F178AFC02120F17F0FC02120F0F
:101AD3001711FD02120F17E4FD02120F1763CB0457
:101AE300120F1775CC04120F17CECD04120F17FA6D
:101AF300CD04120F1788CE04120F17A1CE04120FB4
:101B030017A4CE04120F17B2CE04120F17E4CE049B
:101B1300120F178ACF04120F17BCF604120F17699E
:101B2300D603120F1798D603120F1710D703120FED
:101B33001713D803120F176FD803120F17F0D90317
:101B4300120F170CDA03120F175EDA03120F17A125
:101B5300DA03120F17B4DA03120F1706DB03120F9F
:101B630017C1DB03120F172DDC03120F1757DC030A
:101B7300120F178FDC03120F170BDE03120F17E47C
:101B8300DE03120F172DE003120F1700E103120FEC
:101B93001788E103120F17D0E103120F17EAE103CD
:101BA300120F1731E203120F1751E203120F17E757
:101BB300E203120F1776E303120F17D0E303120F9A
:101BC3001714E403120F1790E603120F17BEE7036F
:101BD300120F17FAE703120F17ECE803120F17148B
:101BE300E903120F1717E903120F1721E903120F65
:101BF3001734E903120F17BDE903120F17F3E903B3
:101C0300120F171FEA03120F1746EA03120F176A80
:101C1300EA03120F17DBEA03120F17E9EA03120FA5
:101C2300171CEB03120F1747F504120F1753F50494
:101C3300120F1791F504120F17FBFF01120F173143
:101C4300C003120F1754C003120F179AC103120FC8
:101C530017E3C103120F173DC203120F17A3C203E9
:101C6300120F17A6C203120F17F2C203120F176C3B
:101C7300C303120F17F2C303120F17F5C303120F97
:101C83001781C403120F17C4C403120F1703C90328
:101C9300120F17A0CA03120F17E2CA03120F175726
:101CA300CE03120F1785CF03120F170FD103120F95
:101CB300179CD103120F1796D203120F17EDD403FB
:101CC300120F17466C00120F17E66C00120F175015
:101CD3006D00120F17696D00120F17F36D00120FCD
:101CE30017496E00120F178D6E00120F17F46E0056
:101CF300120F176A7000120F17987100120F171145
:101D03007200120F1764A804120F17BC7400120F8D
:101D1300174B7500120F171E7600120F17F9770075
:101D2300120F179A7900120F1788DB01120F17543D
:101D33007B00120F17B9A503120F172DA603120F5D
:101D43001775A603120F17B3A603120F17FCA603EA
:101D5300120F1746A703120F177EA703120F17FCC4
:101D6300A703120F1756A803120F17B2A903120FD6
:101D73001743AA03120F17A1AA03120F1721DB019E
:101D8300120F17DCAA03120F1734AB03120F17A598
:101D9300AD03120F17C4AD03120F17A3AE03120F37
:101DA30017BBAF03120F1738B003120F17A5B003F9
:101DB300120F170EB103120F17C8B103120F1786B4
:101DC300B303120F1787B403120F170CB603120FC6
:101DD30017F7B703120F175ABA03120F1700BC03F2
:101DE300120F17CEBC03120F1734BD03120F174B7C
:101DF300BD03120F173BBE03120F1727BF03120FAA
:101E03001794BF03120F17AEDB04120F17FADC048B
:101E1300120F17B7DD04120F171BDE04120F179DE5
:101E23007C00120F17B87C00120F17FC7C00120FF6
:101E330017227D00120F17487D00120F17607D00D7
:101E4300120F17C37D00120F17D87D00120F17FA58
:101E53007E00120F17037F00120F170C7F00120F63
:101E630017157F00120F1707C704120F17F5CA04BF
:101E7300120F17FACA04120F17FCCA04120F17FE27
:101E8300EA04120F17FAF604120F17A07F00120FBD
:101E930017B07F00120F17F5D304120F170080033A
:101EA300120F17338003120F179F8003120F173A75
:101EB3008103120F17D78103120F171C8203120F0E
:101EC300173E8203120F17578203120F177D8203E7
:101ED300120F179F8203120F17DD8203120F1721B0
:101EE3008303120F17438303120F17A58303120FE4
:101EF300176C8403120F17238503120F179585039D
:101F0300120F17608603120F17B38603120F1719E8
:101F13008703120F17538703120F17A58703120F97
:101F230017138803120F177E8803120F1781880374
:101F3300120F17028903120F17998903120F17192A
:101F43008A03120F17388A03120F179C8B03120F81
:101F530017A98B03120F17B58C03120F17C28C032B
:101F6300120F17CB8C03120F17A38E03120F17BD7B
:101F73008F03120F17369003120F17A89003120F37
:101F830017CA9003120F175E9103120F17329303B0
:101F9300120F17099703120F171D9703120F172D0F
:101FA3009703120F17379703120F17409703120F58
:101FB30017499703120F17539703120F17809703AD
:101FC300120F17A99703120F17B49703120F17D8FD
:101FD3009703120F17FC9703120F17669803120F3C
:101FE30017AC9803120F17C99803120F17469903DA
:101FF300120F177D9903120F17BC9903120F1709BC
:102003009A03120F178F9A03120F175D9C03120F77
:1020130017E09C03120F17C49D03120F172BA00385
:10202300120F1784A003120F17CEA003120F172944
:10203300A203120F175EA203120F17B0A203120F0F
:102043001765A303120F1714A403120F1751A40348
:10205300120F17E6A403120F1752A503120F17F856
:102063008101120F172A8201120F17588201120FD2
:10207300172E8401120F170E8501120F17668501A3
:10208300120F17A18601120F17ED8601120F1716F3
:102093008A01120F17098D01120F17598E01120FA2
:1020A30017EF8E01120F17FB8E01120F172D8F01E1
:1020B300120F17B09001120F17BE9101120F17E8FC
:1020C3009101120F174F9201120F17A89201120FCD
:1020D300170E9301120F17259501120F17B49601CE
:1020E300120F177E9701120F17C49801120F1714BE
:1020F3009B01120F17E49D01120F17F19D01120F9F
:1021030017789E01120F170C9F01120F174F9F0193
:10211300120F17D59F01120F17F29F01120F1722EB
:10212300A001120F1757A001120F1727A101120FB9
:1021330017D0A101120F1756A401120F1776A5018C
:10214300120F1761A601120F17E3A601120F171A38
:10215300AB01120F1757AB01120F17AFAB01120FE1
:1021630017E2AB01120F174CAC01120F1782AC012F
:10217300120F170DAD01120F1765AD01120F173CAA
:10218300AE01120F17F5AE01120F1790AF01120F28
:102193001798B201120F17B4B301120F1757B701F3
:1021A300120F174BB801120F174EB801120F177DFC
:1021B300B801120F1783BA01120F175CBB01120F7C
:1021C300179FBB01120F17F5BC01120F1734BD0186
:1021D300120F17C6BD01120F17FABD01120F17BF59
:1021E300BE01120F17D7C001120F1748C101120FFA
:1021F3001788C101120F1716C201120F173EC30130
:10220300120F1700C401120F1707C601120F171F71
:10221300C601120F1733C601120F176BC601120F37
:102223001799C601120F1718C801120F173DC901DC
:10223300120F17A1C901120F1753CA01120F1783E7
:10224300CA01120F174ACB01120F17E2CB01120F6B
:102253001708CE01120F173DCE01120F17A0CE01A2
:10226300120F17CFCF01120F1777D001120F17A834
:10227300D001120F17C0D001120F174FD101120F47
:102283001703D401120F17DBD501120F17F7D5016E
:10229300120F1713D601120F17E1D601120F17D41D
:1022A300DA01120F174F2F00120F17812F00120F91
:1022B30017703300120F17BC3300120F17023400CC
:1022C300120F17A43400120F17003500120F174511
:1022D3003500120F178C3600120F17A03700120F9C
:1022E300178F3B00120F17133C00120F17203D00EE
:1022F300120F177C3D00120F176C3F00120F17E1EE
:102303003F00120F17EB3F00120F17F83F00120F99
:1023130017234000120F170A4100120F17B4410090
:10232300120F17324200120F17524200120F177B7F
:102333004200120F179D4200120F17FD4400120FA7
:1023430017C34500120F17084600120F17854600E2
:10235300120F17364700120F17684700120F17AEF8
:102363004700120F17EA4700120F173A4800120FDF
:10237300178E4800120F17E44800120F1730490058
:10238300120F179D4900120F17184A00120F17E377
:102393004B00120F17E34C00120F17084E00120FD9
:1023A30017475100120F175A5400120F17175500F1
:1023B300120F175B5500120F170B5700120F171F41
:1023C3005700120F17295700120F17335700120F18
:1023D300173F5700120F175B5700120F17065800CD
:1023E300120F17455800120F174F5800120F1759A5
:1023F3005800120F17C95800120F17145900120F63
:1024030017295A00120F17855A00120F17065B007F
:10241300120F17C55B00120F17CE5C00120F1702C5
:102423005E00120F17F05E00120F17085F00120F05
:1024330017635F00120F17815F00120F17C95F0048
:10244300120F17F05F00120F178B6000120F175156
:102453006100120F17E36100120F175D6200120F84
:1024630017776300120F17246400120F174C6500CF
:10247300120F179C6500120F17006600120F1762E8
:102483006600120F17906600120F17B46600120F42
:1024930017E96600120F171A6700120F174D67002E
:1024A300120F176D6700120F17D56700120F17C9A8
:1024B3006800120F17246900120F174D6900120FDD
:1024C30017D56900120F17586A00120F17836A0095
:1024D300120F17686B00120F178A8D04120F17C2A1
:1024E3008D04120F17E38D04120F17258E04120F9C
:1024F30017878E04120F17918E04120F17A18E04E3
:10250300120F17DC8E04120F17BC9204120F17A9B7
:102513009404120F178F9604120F17269704120FA5
:1025230017C89704120F17D1B902120F174FBA0227
:10253300120F17ABBA02120F17F6BA02120F1711C6
:10254300BB02120F173CBB02120F1759BB02120F2B
:102553001765BB02120F17FCBC02120F1715BD0241
:10256300120F179ABD02120F17ADBD02120F17CC2F
:10257300BD02120F1770BE02120F17F1BF02120F26
:1025830017A4C102120F173AC202120F173DC2025B
:10259300120F17ADC202120F17CBC202120F17622E
:1025A300C302120F17AAC302120F17ADC302120FF1
:1025B3001773C402120F17E0C402120F1706C502E5
:1025C300120F1791C502120F17AFC502120F17F59D
:1025D300C502120F17A9C602120F17F3C602120F74
:1025E3001722C702120F177FC702120F17B4C702B1
:1025F300120F17E0C702120F17EEC702120F173B95
:10260300C802120F17ABC802120F17F4C802120F39
:102613001740C902120F176CC902120F1777C902AC
:10262300120F1795C902120F1780CA02120F178AC9
:10263300CA02120F17C5CA02120F17D5CA02120F08
:1026430017DECA02120F1732CB02120F1746CB0244
:10265300120F1775CC02120F178CCC02120F17A191
:10266300CC02120F172FCD02120F1774CD02120FC7
:102673001700CE02120F170BCE02120F174DCF0207
:10268300120F1768CF02120F17B4CF02120F1723BE
:10269300D002120F175CD002120F1776D002120F5E
:1026A30017B8D002120F1788D302120F1735D402AE
:1026B300120F17A2D402120F17E2D602120F17FA43
:1026C300D602120F17FDD602120F1709D702120FE7
:1026D300171DD702120F1725D702120F1758D7024B
:1026E300120F175AD802120F17E1D802120F1751FF
:1026F300D902120F17D3D902120F1794DA02120F4D
:1027030017B3DA02120F1754DB02120F17B1DB02F1
:10271300120F17B4DB02120F17E1DB02120F17F6C9
:10272300DB02120F176ADC02120F17B9DD02120F58
:1027330017BFDE02120F174ADF02120F1765E002FE
:10274300120F172DE102120F175EE102120F17810C
:10275300E102120F178AE102120F17B9E102120FF9
:102763001749E202120F17FFE202120F1774E30276
:10277300120F171BE402120F1790E402120F17C770
:10278300E402120F1705E502120F173BE502120FC1
:102793001769DB01120F176EA704120F179FA60408
:1027A300120F179CA404120F17EFA304120F178321
:1027B300A304120F17A0FB02120F1796FB02120FAE
:1027C3001729FB02120F177DF902120F173BF902AB
:1027D300120F1765F802120F17427A00120F1736FD
:1027E300DB01120F174FF802120F1710F802120F26
:1027F30017F6DA01120F1707AD04120F176AF70263
:10280300120F176DF402120F1756F202120F17234D
:10281300F202120F17BEF102120F1751F102120F3B
:102823001710F102120F1749F002120F17E4EF020B
:10283300120F178FEF02120F1732EF02120F170941
:10284300EE02120F17A6ED02120F17F0EC02120F91
:1028530017EBEC02120F17DFEC02120F1792E902CB
:10286300120F176CE902120F1711E902120F17BCAE
:10287300E802120F17CFAC04120F1778AC04120F33
:1028830017F3AA04120F1734AA04120F1797A904F7
:10289300120F178DA904120F1783A904120F17A97A
:1028A300E802120F179EE802120F177AE802120FBE
:1028B3001719A904120F1789E602120F1708E60267
:1028C300120F17C4E502120F1798E502120F17BB78
:1028D300AA03120F1738A304120F1705A904120F26
:1028E30017DFA204120F17A1A204120F1774A20478
:1028F300120F1740A204120F17DFA104120F17C7FC
:10290300A104120F1797A104120F176C9E04120F44
:10291300173F9C04120F17469A04120F17CC990401
:10292300120F177B9904120F17359904120F179F73
:102933009804120F1714740000000080FB0000229B
:102943008F000100F11587000100EF153500040029
:10295300B81525000200BC1526000200BE1527008D
:102963000200C01528000100CA1529000100CB157B
:102973008400040035138600010057152A00010066
:10298300CC152B000100CD152C000100D1152D0015
:10299300080041132E000100D2152F000100D315AA
:1029A30030000100D41531000100D51532000100BB
:1029B3004913330001004A1334000100D6153600D1
:1029C30001004B1338000100D71539000100D01561
:1029D30083000200ED15630001005713640001003A
:1029E300CE1565000100CF156D000100581371006D
:1029F3000800391366000100EC1543000100DD15E2
:102A030044000200DE1545000100E0154600020007
:102A1300E115470008004F1348000100E3154B0080
:102A23000100E41504000100F015A1000100F415F4
:102A330037000100F31588000100F2153C00010086
:102A43004C133D000100D81549000200E51567004D
:102A5300010059134D000200E7154E000100E9156E
:102A63004F000200EA153E000100DC155100010091
:102A73004D1352000100DA1553000100DB15540019
:102A830001004E1300000000000000013636010172
:102A93000001020100010301000104010606050211
:102AA3000000070100340801000F090401010D01B2
:102AB30000FF0E08000017020000190100FF1A01B1
:102AC30000011B0100FE1C0100081D0200001F0184
:102AD300000120010001210200002301000F240254
:102AE30000002601000127010008280200FF2A0137
:102AF30000072B0102402C0100002D0100012E01D3
:102B030000012F0100FF30010B1D310800003A01C5
:102B130000083B01000F3C0100013D0100FF3E04A2
:102B2300000042040000460400004A0400004E0472
:102B3300000052040000560400005A040000000084
:102B430000002005F681000003002001F78100004A
:102B5300040042012A81000005004201DD800000DB
:102B630006004201E680000007003001F481000006
:102B730010004203841500001100300329120000E5
:102B83001200100395150000FDFF2101F0810300E1
:102B9300000021032A120300FDFF2101F08106003A
:102BA300000010052C120600FDFF2101F081020038
:102BB300000029052D120200FDFF2101F081010013
:102BC300200020052F120100FDFF2101F0810103E8
:102BD3007103010301030103010301032203020340
:102BE30001031003000300030003000300030003B9
:102BF300000342030003240306030003000304034A
:102C030012032503230325032303040304030003FF
:102C130000030003440300030003230300036503CD
:102C230021003503810300030503000300030003B0
:102C33000003250323030302710230016002110222
:102C430070020102020202028002100261023A00D3
:102C53004100630273027202620243020002130222
:102C63003800000200020402120200020002000205
:102C7300000204020402370037003C02440200024F
:102C830039000002000265020002350281020002DF
:102C9300050282028302000203007100300160001A
:102CA3001100700031022003500480001000610005
:102CB3000000140063007300720062004300000010
:102CC30013000600000000000400120000000000D2
:102CD3000000000004000400370037003C024400F9
:102CE30000000000000000006500000035008100C6
:102CF30000000500000083000000010171010101D3
:102D030001011101010131010101010180011001E2
:102D130061013B001400630173017201620143010D
:102D23000001130106013D013500040112010001F8
:102D330000010001000104010401330133013C01DE
:102D43004401320136000001000165010001350034
:102D530081010001050182018301000136000100A8
:102D6300060000000F00000000000000000000004B
:102D7300000003FFFF00000403FFFF0000FFFF0F3D
:102D8300F4010005C4040320000100000B0000004F
:102D9300000000000003010F00000000000000001D
:102DA3000000000000000000000000000000000020
:102DB30000000000000000000000471A8F1A4D1A9F
:102DC3005719531A951A531AA11A591A5719531AFC
:102DD300951A5F1A571900000000651A5719000069
:102DE3000000000000006B1A5719711AA71A771A0E
:102DF30057190000000000000000000000007D1AC9
:102E0300B91A831A57197D1AB91A831A5719711ADD
:102E1300A71A891A57190000ED1C0100ED1C0200C6
:102E2300631C02805D1C0300691C04006F1C04808A
:102E3300751C05007B1C0600871C3100991C3300A0
:102E43009F1C3400A51CFFFF000007ECFDFDFDECFB
:102E5300DCDCCCBCACAC9C9C8C7C7C6C6C5C5C5C2F
:102E63004C4C3C3C2C2C1C1C03EAF5E5D5D5C5B5D4
:102E7300A5959585857575656555554545353525FF
:102E8300251515050A1D2302E72205F32207ED2266
:102E93000CCF220DDB22FF000000160F00000B15E4
:102EA3000B020002220F3300000E0F5A69674265BE
:102EB30065416C6C69616E63653039D0D1D2D3D40E
:102EC300D5D6D7D8D9DADBDCDDDEDF000000040697
:102ED300000004060001040600020430301718192C
:102EE30021301B1D1F3000034D4C4651181A250578
:102EF300020001191618161618230300303016188D
:102F03001920231A1C1E30003C40423A3F3F392F00
:102F130047300C0E020B040B0A0708000F020402D1
:102F230001010101090200BE040AE80300000100D7
:102F33000300E8030E001E0404091203101E030A13
:102F43000C04040828020C05081504FF74F7120A80
:102F530077E990142EF09013E3E4F0121711901414
:102F630046E4F0A3F090142FF0A3F012246D12178F
:102F730017901367E4F0A3F0121E4F0248B574F0E4
:102F8300120A7774D3120FFD126311548060669096
:102F9300142EE0F91217778A088B09AF09EA4F60FC
:102FA3004C7C0080010CEC75F003A4F8A9F0748745
:102FB30028F582742E39F583E493F46029E493F8B9
:102FC3008A828B83E06870DDEC75F003A4F8748863
:102FD30028F582742E39F583E493C0E0740193F5E8
:102FE30083D082120C02AA08EFFB121765126A4300
:102FF3006480023350851882851983A3E0542060CE
:103003001F1223838A088B09AF09EA4F600A122231
:10301300DBAA08EFFB121765126A436420023350E0
:10302300851882851983E0A2E050429013E8E0649A
:103033000F702E9007A0126A4E9007A0C3E094E988
:10304300A3E09403400A7A007B80901259124997B7
:1030530079001222B1E960099015B81212311222D7
:10306300C9851882851983E06401023335542070C1
:103073000302333A7A207B0090142EE0F91218CD24
:10308300EA4B4C4D701A901442121249E8494A4BCC
:10309300700E750801750900750A00750B00806DC7
:1030A300750C00750D00750E00750F001218DF8A80
:1030B300088B098C0A8D0B901442121249E8494A75
:1030C3004B60319014427808120ED0400E750CFFFD
:1030D300750DFF750EFF750F7F801985080C850927
:1030E3000D8C0E8D0F901442780C120FE57401783D
:1030F3000C120FB4850C08850D09850E0A850F0B7C
:10310300E5084509450A450B70030232947C0079B2
:10311300047A007B001223598A0C8B0DAE0CAF0D81
:103123000231D8740212126074FFF0740312126039
:1031330074FFF0740412126074FF124A0A1261CB16
:103143007407120FDD126481E96401706A12335C43
:103153004480F8A3E0F97428121260E8F0A3E9129E
:103163006715E0C0E0742A121260D0E01249F754E8
:103173000860167428121260A3E04401123369C078
:10318300E0742C121260D0E0F01263546011E82452
:103193000B123B4FF87416121260E8F0A3E4F090A0
:1031A30081C2120DBB7406120FDD740B120FD51200
:1031B3001F8D7404120F7F8E828F83A3A3A3A3A3F7
:1031C300A3A3A3A37406123369F912233B74051254
:1031D30012601264D8EE4F70030232947C007904BB
:1031E300EEFAEFFB1223597405121260EAF0A3EB17
:1031F300124721E0F50CA3E0F50DE4F50EF50F7889
:1032030008790C1211AD4023EE2404F8E43FF9854C
:10321300080C85090D8882F583C3E0950CF0A3E0C3
:10322300950D126B38E84970A4800C8E828F83A3AE
:10323300A3A3A3E4F0A3F08E828F83A3A3A3A3A3EA
:10324300A3A3A3A3A3E064018E828F83A3A3A3A359
:10325300A3A37020E0540460030231268E828F837F
:10326300A3A3A3A3A3A3A3A3A37406F07AB71234BF
:103273008F0231D0A3A3A3A3E060030231268E8281
:103283008F83A3A3A3A3A3A3A3A3A37401F00231D6
:10329300D01223297C0079017A007B00122359EA9A
:1032A3004B60031249907C0079047A007B0012235F
:1032B30059EA4B701380448A828B83A3A3A3A3127E
:1032C30064F0EE98EF99400B8A828B83A3A3A3A3A8
:1032D3001264D87C0079041223598B0BA90BEA4999
:1032E30070D5C3E5089EE5099F500DC3EE9508FE12
:1032F300EF9509FFEE4F700D12499090144212336F
:1033030062A3F08024EE2EFEEF338E08F509E4F578
:103313000AF50B7808120F647A20123538120F7FE2
:103323001218DF90144212123D851882851983E02A
:103333006420FAA3E08016A3E054046013125BA890
:1033430012286F7901123D16126A436404FB80044C
:103353007A007B00742D026330EE12633EE022E4B8
:10336300F0A3F0A3F0221249FCA3A3E022C082C081
:103373008374EA120FFD7C167D007900AA18AB193D
:1033830012174D74081212607402F09013D7125D75
:10339300E41233B07409121260125DFC741312123A
:1033A30060E4125A7B121E437416024CC6E8F0A363
:1033B300E9F09013E11264C02274F7120A7774DA09
:1033C300120FFDEAFEEBFFEA4F602DAC18AD1912A8
:1033D30023A17406121260E0601E7417121260E0DB
:1033E300FD7401121260E0FCEEFAEFFB7900122289
:1033F30087E9600479A48002790074260248B274D4
:10340300F7120A77EAFEEBFF8A82F583A3A3A3A34D
:10341300A3A3E0544060178A828B831262F1124B9C
:10342300D560067AFF7BFF80151262ED800390134F
:10343300D71261CB74FE6A700374FF6B6041126232
:10344300ED126317122437E98E828F83600B125EAD
:10345300DA126B03E4F0A38003126AF2F07CB77D07
:10346300228E828F8312424BE9F5087015EE4F606E
:10347300097901EEFAEFFB122335A9080248B57565
:1034830008CDAA0812348FE960E380EE8E828F8321
:10349300125EDE240CF582E438F583E0F91222C3D0
:1034A3002274F6120A77E9FEEAFF7A0F7B001217FD
:1034B3005FEA4B601A8A828B83740CF0EEA3A3F04D
:1034C300EF8A828B83124670125AD97900802BEED1
:1034D300F912235F8B09A909EA49601C8A828B834D
:1034E300A3A3A3A3A3A3A3A3A37406124679E0F9FA
:1034F30012202FEEF912233B79100258C474F412F0
:103503000A778A088B098C0A8D0B9013E8E0640F05
:10351300701EEA4B4C4D60189013E3E0640860059D
:10352300E06404700B7808120F64123536120F7FB3
:1035330002379B7A017B0090142EE0F91218BB74BA
:10354300042274F4120A7774FC120FFDEAFEEBFFF7
:103553008A82F583A3A3E0F912235F8A088B09EA21
:103563004B700302367E8E828F83A3A882A983E0E9
:10357300C0E0EA125ACFD0E01244DF64F160288E33
:10358300828F83A3E064CD601E8E828F83A3E06469
:103593001A60148E828F83A3E064E9600A8E828F9F
:1035A30083A3E064E170337900122335E9602BE5EE
:1035B300082404F50AE43509F50B85088285098397
:1035C300A3A3A3A3A3A31245B51244BD1217238536
:1035D3000A82850B8312631780708E828F83A3E028
:1035E300C0E07402121260D0E0124CD4124DF712F4
:1035F3003F65C0E07403121260D0E0F0E508126783
:10360300C0123C0EE0AA18AB197005121F87800385
:1036130012241F7402121260E064E9702D8508827F
:10362300850983123D74750A01780A120F70750AB1
:10363300E9780A120F70124491123F32FCA3E0FDA5
:103643008A828B83123F5C120F7F850882850983F0
:10365300A3A3A3A3A3A3A3A3A3E064027012850857
:1036630082850983A3A3A3A3A3A3A3A3A37406F09F
:103673008E828F83A3A3E0F912233B122329901593
:10368300BE123B80740402379874F4120A77EAFE80
:10369300EBFF7508008A82F583A3A3A3A3A3E060CD
:1036A300387508081261BE79FF122107EA4B6010D2
:1036B30075082C8E828F83A3A3A3A3A3E0D2E0F08B
:1036C3008E828F83A3A3A3A3A3E0540364016003A7
:1036D300023787430811023787EA24181250BD6066
:1036E30036EA241A1250BD6003F470131264A070FA
:1036F30003A3E0696003023787750822023787EA6C
:10370300241B12378B241A1250BDFAEE24191250BF
:10371300BDF912201D806D8A828B83A3A3A3A3A36B
:10372300A3A3A3A3123B6B70037508018E828F833F
:103733001264A47003A3E0697006E508D2E1F508FA
:10374300E50860158E828F83A3A3E07006E508D297
:10375300E58004E508D2E6F508124BC8640170065B
:10376300E508D2E0F5088E828F83A3A3E06015EE0F
:10377300241D1253DCF9122425E964016006E508CF
:10378300C2E0F508A9088010F582E43FF583126BC7
:103793005BEA227409120F7F7F04020CF074F012AB
:1037A3000A7774D7120FFDEAFEEBFF8A82F583A333
:1037B300A3A3A3E0600E9015BC12635B6006901593
:1037C300BC123B807403120FDD8E828F83A3A3A3ED
:1037D300125CA71261C91223A1E97003023931787F
:1037E300017405121260E0C394024002780074076A
:1037F300121260E0C3940240027800740C1212604B
:10380300E064F87003A3E0F47003023931740C121E
:103813001260E064F97003A3E0F4700302393174B9
:103823000C121260E064FA7003A3E0F4700302392F
:1038330031740C121260E064FB7003A3E0F47003B4
:103843000239317406121260E0F99013D1E0696015
:1038530003023931E8A2E04003023931742712121E
:1038630060E06003023931EE24131264B67422124D
:103873001260125CB1241C1264B67410121260122E
:103883005DFC7409121260E0601D741A121260E08C
:10389300FD7404121260E0FC8E828F831261C97979
:1038A30001122287E9703B7403120FD51222D5E966
:1038B300F50C7409121260E0702C9013CBE06026B3
:1038C3007422596422601F74425964427014742034
:1038D300121260123B65600E7420121260123B5E7E
:1038E30060047ACF804AE9A2E6504D742012126038
:1038F3001253E224FD600F14600C24FD600824FDC4
:10390300600424FE70287420121260123B57700E5C
:103913007420121260125A08A3E0640D601A740333
:10392300120FD512244FE96401700D023B477AD37D
:103933007B00121C39023B47EE242DF582E43FF550
:1039430083123D6B7003A3E069701D75080078084E
:10395300120F707808120F70EE242F1250BDF91257
:103963003B71123F5C120F7F7409121260E0700307
:10397300023A0F123B711261CB12249D8A0E8B0FF8
:10398300EA4B7003023AA07404121260E0F88E82CC
:103993008F83A3A3E028F8A3E03400F9E8240D12F1
:1039A3003B4FF88A828B83A3A3A3E068600EE88A67
:1039B300828B83A3A3A31246691233637904E912AA
:1039C30012601250DCA3E02AF8A3E034008882F5E9
:1039D30083A3AA82AB831217538A088B098C0A8D9F
:1039E3000B850E82850F83A3A3A3A37808120ED0A1
:1039F3004003023B4790818E7808121108850E829E
:103A0300850F83A3A3126B61A3124E009013E3E00F
:103A130064046008E064096003023B47E50CA2E527
:103A23004003023ADAEE242F1250C5F0EE2430128E
:103A330050BDC0E07401121260D0E0F0EE243112E8
:103A430050BDC0E07402121260D0E0F07414121280
:103A530060E064017026740E1212601244B82413DD
:103A63001250BD687003A3E0697011740C121260E8
:103A7300123B6B70077414121260E4F0EE2425F508
:103A830082E43FF583120DBB7404120FDD74071239
:103A93000FD5121F8D7404120F7F023B4790142819
:103AA300E064016003023A0F7420121260123B6556
:103AB3007009E50CA2E65003023A0F74101212606B
:103AC300E0F47003A3E0F4607BEEFCEFFD740312FB
:103AD3000FD51222E1806DA2E650697420121260A4
:103AE300125EEA7016741A121260E0640270557462
:103AF30003120FD579001224198049742012126021
:103B0300123B5E7014741A121260E0640470357410
:103B130003120FD512240D802B7420121260123B56
:103B230057700C79007403120FD512245B8015743F
:103B330020121260125A08E0640C70087403120F0A
:103B4300D51224677429026330E82406F582E43928
:103B5300F583E0221262F7E06403221262F7E06465
:103B630007221253E6640622124BD9640222EE2482
:103B73002BF582E43F126B59EE124BAE22E0F508AF
:103B8300A3E0AA08FBE4FCFD1222C92274F4120A82
:103B930077EAFEEBFF8C088D09901349E0600F1262
:103BA30064A07003A3E069700512200B80537900B1
:103BB3001261BE12203B8A828B83E5824583602C8F
:103BC300A3A3A3A3A3A3E054186021E508241C1214
:103BD3003C0B120DBF123C07120DBFEE2418123F0F
:103BE300431256A3126478120F7F801579008E82D8
:103BF3008F83A3A3A3125ED01256A31261CB12200C
:103C03001102379BE5082413F582E43509F5832275
:103C130074F7120A7774F7120FFDEAFEEBFF9013A5
:103C2300E3E06403600DE064016008E0640960039D
:103C3300023D118A828B83A3E06003023CDF7C0098
:103C43007D007A027B0012171D12651D8A821264A1
:103C5300BA9013D4125DFC7953121E319013E3E032
:103C6300640960099013E11261CB122497851882CD
:103C73008519837401125A209013E37404F07401BC
:103C8300120FD5794A121E2B7401120FDD7AD97BDC
:103C9300131218F790125CE0640B70057406F08041
:103CA300057900123D169013D4125ED67A037B0079
:103CB30012171D9013D7125ED67A047B0012171DBC
:103CC3009013CEE0A2E35004D2F08002C2F0125A65
:103CD3000D9015B81212311222C9802FFC7D007A83
:103CE300037B1012171D90125CE0640B7003740ABF
:103CF300F090134DE4F0FA7B401257FD8E828F83D0
:103D0300A3E0F9123D169013E3E4F012230B7409B8
:103D13000248B29013E11261CF121F9F22C082C0EA
:103D23008390136712635B70179013E3E024FB60C7
:103D330005146007800A90136D801F90136F801A1B
:103D4300E8496007123B4C6401700C8A828B83A3A1
:103D5300E0F9121F93800E90145D12635B600612EC
:103D63005A09120C020255541264C09013E1E06820
:103D7300221264C0E8FAE9FB2274F5120A7774D8B8
:103D8300120FFD8A088B098A828B83A3A3A3A3A3A3
:103D9300A3A3A3E0C3940F5003023F2D8A828B8316
:103DA300A3A3A31264D87415120FDD8A828B83A395
:103DB300A3A3A3A3A3A3A3123F32FAA3E0FB12235B
:103DC300177415121260E0702E850882850983A38B
:103DD300A3A3A3A3A3A3A3E0C3940B401A8E828F30
:103DE30083A3A3A3A3A3A3A3A3E064027009EE2464
:103DF3000B1250BDF46003023F2D7417121260E0E2
:103E0300600764026003023F2D9013E3E0640260E5
:103E13001CE06406601790136712635B7003023F34
:103E23002D123B4C64016003023F2D8025901367E4
:103E330012635B701D7508007808120F7078081202
:103E43000F70EE2410123F438E828F83123F5C1259
:103E53000F7F8E828F83126B301244E81264BC741E
:103E630002121260125CB112335DC0E074041212CC
:103E730060D0E0123F65F508A3E0F509740F7808F8
:103E83001211DC7405121260E508F0741912126045
:103E9300E0C0E07406121260D0E0F0741B121260EE
:103EA300E0C0E07407121260D0E0F07416121260E2
:103EB300E0C0E07409121260D0E0F07417121260CF
:103EC300E0C0E07408121260D0E0F0EE241012504B
:103ED300BDC0E0740A121260D0E0F0741A121260CE
:103EE300E0C0E0740B121260D0E0F074271212608D
:103EF300E0C0E0740C121260D0E0F0741C12126087
:103F0300A982AA8389088A09750A007808120F68AA
:103F13007C087D007410121260AA82AB831250B425
:103F2300120F7FAA18AB19121F997428024A10E0C6
:103F3300F98A828B83A3A3A3A3A3A3A3A3A3E022AE
:103F4300F582E43FF583E0F98E828F83A3A3A3A3D5
:103F5300A3A3A3A3A3126B5B221261CF1223D77473
:103F63000222F0EE1256A8E02274F2120A7774F8D5
:103F7300120FFD8A0A8B0B8C0C8D0D89089081071B
:103F8300AC18AD197408120E90C200AC0AAD0BAA9E
:103F930018AB1912614C7002D20090142F8013AC2D
:103FA3000AAD0BEE240BFAE43FFB12614C701B12BB
:103FB3004B9F124832601EA20040E48E828F83E042
:103FC300650C7004A3E0650D70E58E828F83A3A357
:103FD300E0650870DAEEFAEFFB74080244F5C0827C
:103FE300C08390142F025551C082C08390142FE4D4
:103FF300F0A302424774F7120A7790142F126A490A
:10400300800FEA2414F582E41264D51217F5EEFA50
:10401300EFFBEA4B70EC90142FE4F0A3F00248B5E9
:1040230074F2120A778A0C8B0DEDFF890B8A828B4F
:1040330083E08C828D83F0A3A882A9838A828B83F9
:104043001240EC124663E0C454F0FA88828983E09C
:104053004AF0EC2402F8E43FF9850C828B83A3A396
:104063001240EC1240FFE0333354FC1240F3E033D0
:10407300333354F81240F3A3E0A2E0E4331313FA0A
:1040830088828983E04AF0EC2403FE50010FE50C9B
:104093002407F508E4350DF509750A007808120FB1
:1040A300687C087D00EEFAEF1250B3120F7FEE2406
:1040B30008FE50010FE50C240FF508E4350DF50952
:1040C3007808120F687C037D00EEFAEF1250B312EA
:1040D3000F7FE50BC3940F400DE50C2412F582E42A
:1040E300350D1256B7F00244F8A3E0888289832283
:1040F300FA88828983E04A1240FFA322F0850C826A
:104103008B83A3A3A3A32274F2120A77EBFF8C0C75
:104113008D0D8A82F583E08C828D83126B1AA3A89E
:1041230082A983E01254FC1244DEC41254F6F0EA6E
:10413300126B241255031244DCA2E2E4338C828D09
:10414300831244DB131313541F1254FCA31244DBD6
:10415300A2E7E4338C828D83A3A3A3A3A3A3F0EAF2
:104163002403FE50010FF5088F09750A0078081221
:104173000F687C087D00E50C24071250AF120F7FF7
:10418300EE2408FE50010FF5088F097808120F6816
:104193007C037D00E50C240F1250AF120F7F8E823B
:1041A3008F83A3A3A3E0C0E0126B40D0E0F00244EE
:1041B300F874F6120A77EAFEEBFF8A82F583A38589
:1041C3008208858309E0F9121FB785088285098370
:1041D300E064EB601E8E828F83A3E064E160148E43
:1041E300828F83A3E064F1600A8E828F83A3E064ED
:1041F3001A70078E828F83A3E4F09015B8121231E0
:104203001222C97508017808120F708E828F83A35A
:10421300E0F5087808120F7079009013E1125ED66A
:104223009013D7123F5C120F7F1223290258C4C088
:1042330082C083E99014417003E480027401800416
:10424300EAF0A3EBF00255541261CF121E49227417
:10425300F6120A77901441E0701B7C0079017A0012
:104263007B00122359EA4B600C8A828B8312635BB7
:1042730060031222BD0258C4C082C0831247124099
:104283001079FF122353E9F8902F49E493C3985010
:104293000479018002790002555474F2120A778A74
:1042A3000A8B0B8909C2008A828B83A3A3A3A3A3CE
:1042B300A3A3A3E0F912235F8A0C8B0DAE0CAF0D01
:1042C300750801EA4F600302437E850A82850B83EA
:1042D300125ED0850A82850B83A3A3A3A3A3A3A302
:1042E3001244BD1223478A0C8B0DAE0CAF0DEA4F5F
:1042F300700302448A8A828B83A3A3A3A3E4F0A35B
:10430300F0E50A240CFAE4350BFB8A82F583E0C05E
:10431300E0124491D0E0F0E50A240D1244B1240DDB
:10432300125DF612243D124BB7126317E50A2411EE
:104333001244B12411125DF6E50A24131264E7C096
:10434300E0124BA9D0E0F0D200EE2406F8E43FF9E6
:104353001244A41244DF540460030243F09015CACC
:10436300E0F50A750B007407780A12112E8E828FFE
:1043730083A3A3A3A3A3A312449BF08E828F83A33F
:10438300A3A3A3A3A3E0F50AA3E0F50B7407780A9C
:104393001211DCE50A5407FCE50960618E828F8304
:1043A300A3A3A3A3A3A3A3A3A37402124A0A12471A
:1043B300A7600B9013CF12513DA3A3125DFCEC70C9
:1043C30003024461EE2406F8E43FF9E8FAE91244F3
:1043D300A4F0EC24FFF50AE434FFF50B7407780A24
:1043E30012112E8A82898312449BF080718E828FF0
:1043F30083A3A3A3A3A3A3E0448002437DEC70059E
:1044030075080080598E828F83A3A3A3A3A3A3E07F
:104413005420600C121759EA547F7900245F8019E5
:104423008E828F83A3A3A3A3A3A3E05410601A12C5
:104433001759EA540F7900240A5001098E828F8399
:10444300A3A3A3A3F0A3E9800D8E828F83A3A3A3C9
:10445300A37401F0A3E41244E87404124728A200F1
:1044630050288E828F83A3A3A3A31261D5F9EEFAFA
:10447300EFFB12234DE9601212635460031244CA26
:10448300EEFAEFFB1217F5750800A9088067EE2412
:104493000CF582E43FF58322E0450AF0A3E0450BE7
:1044A300228882F583E0547FF0A3E054FC22F58256
:1044B300E4350BF5831264C0EE22A3E0F9850A828A
:1044C300850B831261CF221244D112492722EE2495
:1044D3000FF582E43FF58322A3A3A3A31244E322AF
:1044E300126503E0221244EC22124A00A3A3A32282
:1044F3007403120F7F7F06020CF074F4120A7774B0
:10450300F7120FFD7E0012235FEA4B70030245B0E2
:104513008A828B83A3A3A3A3A3A3A3A3A3E0640679
:1045230060030245B08A828B83A3A3A3A3A3A3A39F
:10453300E0FF8A828B83126AE2E0C0E07408121201
:1045430060D0E01248D8125DE9125DFC122371EFCE
:1045530054086057851882851983125ED67A007BCA
:1045630000122341EA4B7043126B4B7C007D007AAF
:10457300007B0080228E828F831253E2F47003A3A8
:10458300E0F460279013E11245B51248BA601C7C31
:10459300007D00EEFAEFFB1223418A0A8B0BAE0A71
:1045A300AF0BEE4F70CF7900121E617E01EEF90260
:1045B30037961245B922E0FCA3E0FD8E828F832259
:1045C300C082C0838A828B83E582458370099014FD
:1045D3004680068A828B83A3A31247DB60208A82EC
:1045E3008B83A3A3A3A3A3A3A3E0540860E5EC4D8B
:1045F30060101247E17003A3E06D70D780047A0066
:104603007B0002555474F2120A778A088B09890ACF
:10461300ECFEEDFF7A147B001217EFEA4B60378A4A
:10462300828B83A3A3A3A3A3A3A3A3A3E412467987
:10463300E50A1248C4EEF0A3EF1246691248DF12EE
:1046430046708A828B83126B6312465C126252A39A
:10465300124663F0A3F00244F8EA240FF582E42241
:10466300126B1EA3A3221248CAE4F0A322A3F012E2
:104673006ADB1262522212467D221248CEA3A3A302
:10468300A32274F5120A77EAFEEBFF890A8C088DE0
:1046930009EA4F607574016970127901122353E9B5
:1046A300F8902F4BE493C3985015800A74046970F3
:1046B30009124712500979118052740269704B8EA6
:1046C300828F83A3A3A3A3A3A3A3A3A3E50A124750
:1046D30021124DF71263DCA3E4F0A3F09014461209
:1046E300635B601880031264BC88828983A3A3126E
:1046F30047DB88828983A3A370EC8003901446EE82
:10470300F0A3EF1247287900800279C1024A137996
:1047130004122353E9F8902F4AE493C398221263B7
:10472300E0A3A3A322F07A207B0090142EE0F912D9
:1047330017A122C082C083E9F87900901446801D36
:104743008A828B83A3A3A3A3A3A3A3A3A3E06860E9
:104753000574FF687001098A828B83A3A31247DB68
:1047630070DE02555474F7120A77EA4B7005901401
:104773004680068A828B83A3A31247DB601F8A824B
:104783008B83A3A3A3A3A3A3A3A3A3E06970E4ECD4
:10479300600F8A828B831247A770D880047A007BCC
:1047A300000248B5126AFBE0540422C082C0839021
:1047B300144680068A828B83A3A31247DB60128A86
:1047C300828B83A3A3A3A3A3A3A3A3E06970E58020
:1047D300047A007B000255541261CFEA4B228A828D
:1047E3008B831253E66C2274F2120A778A0A8B0BBC
:1047F3008C0C8D0D750800750900EA4B602A901426
:104803004680068E828F83A3A3124832601AAC0CB3
:10481300AD0DEEFAEFFB850A82850B83120C02E9DC
:10482300640170DF8E088F09AA08AB090244F8E01F
:10483300FEA3E0FFEE4F2274F7120A77901446129C
:1048430064BC7C007D00800DE8FCE9FD88828983DF
:10485300A3A31264BCE8496030EA687002EB697094
:10486300E79014461261CBE86A7002E96B8882898B
:1048730083A3A370081264BC90144680091264BC1D
:104883008C828D83A3A3125DFC802774F7120A77B1
:10489300EAFEEBFFEA4F601512236B124913126312
:1048A3005460031244CAEEFAEFFB1217F5800312A9
:1048B3000F7F7F01020CF01261CF121E55E9641ABB
:1048C300221248CAA3A3221248CE22F08A828B83E3
:1048D300A3A3A3A322126B1E1253E62212467DA3A7
:1048E3002274F6120A779014461264D88014126464
:1048F300F51249131244CAEEFAEFFB1217F5AE088C
:10490300AF09EE4F70E8901446E4F0A3F00258C4E8
:104913008E828F83126ACFF5831249278E828F830B
:1049230012492722E0FAA3E0FB1217F522C082C046
:1049330083EAFCEBFDEA4D6017EA24FBF582EB34D6
:10494300FF1263597007124985E0F4600712176577
:104953007905802B90142EE0C0E0124985D0E0F059
:10496300902F42E493F97A487B1412179BE9640170
:10497300700B7A007B20124994790080027904023B
:104983005554EA24FFF582EB34FFF583227A207B2A
:104993000090142EE0F91217A12274F4120A77A2E0
:1049A300AFE433F508C2AF9014481248326038EED2
:1049B30024FBF582EF34FF1263597A007B209014B5
:1049C3002E60051249978005E0F91217A7E4F50A4E
:1049D300F50B780A120F6CEEFCEFFD7A487B14128C
:1049E30017957402120F7FE508A2E092AFEEFAEF7B
:1049F300FB02379B1249FCE022124A0022124A0AA8
:104A0300A3A3A3A3A3A322F08E828F8322120F7FDB
:104A13007F03020CF074F2120A7774FA120FFDEAA4
:104A2300FEEBFF7508FE7509FF12232FE960057978
:104A330011024B9A1250BA603C9015E4E0C433540F
:104A4300E0F8E0333354FC48C0E0EE125AC93FF5B6
:104A530083D0E0126517FAA3E0FB79FF122107EA7E
:104A63004B60127508FFEE240F1250BD4404F01280
:104A730050BAD2E0F08E828F83124BD36006EE24BD
:104A83001212652FEE24131250BD700D902F40E4C7
:104A930093C0E0124BA9D0E0F08E828F83E0A2E7AF
:104AA300500454038019EE24141250BD7012901355
:104AB300C0E0C0E0124B9FD0E0F09013C0E004F0E0
:104AC300EE24111250BD640170169015CEE0600DF6
:104AD3009013CBE0700A8E828F83E0700312652CF3
:104AE3008E828F83E064017013EE240B1253DC6417
:104AF300027009EE240F1250BD4440F0AC18AD19FA
:104B0300EEFAEFFB12239B8A0A8B0B74FE65087087
:104B13000374FFF470031264F5EA4B60768E828FA0
:104B230083E0C0E07401121260D0E0F0740412124A
:104B330060EEF0A3EFF0EE241E1264B674021212BC
:104B430060125DFC7401120FCD880C890D780C1274
:104B53000F6CEE2420124BBC120F70124BB7120DC8
:104B6300BFEE240E124BBC120F709013D4120DBF64
:104B73007408121260E0F9AC08AD091223957408A9
:104B8300120F7FE9FE74106E700BAA0AAB0B12179B
:104B9300F580027E10EEF974060244F5EE2414F556
:104BA30082E43FF58322EE124BAE222413F582E416
:104BB3003FF58322EE1244D222F582E43FF583E0EF
:104BC300F50C780C228E828F83A3A3A3A3A3A3A3A4
:104BD300A3A3124BD922E0FAA3E0FB122437E92264
:104BE300C082C08374D7120FFD9080927403120F9A
:104BF300DD7426120E908A828B83A3A3A3A312646F
:104C0300BC740E1212601263611264BC740C121233
:104C130060124CDC240D124CCCC0E0741A121260EA
:104C2300D0E0F01262581264BA7420121260124C6F
:104C3300DC2415124CCCC0E07408121260D0E0F0F2
:104C4300EA241CF582E43B1264BA74121212601255
:104C53004CDC2411124CCCC0E07409121260D0E079
:104C6300F0EA2412124CCCC0E07407121260D0E0B8
:104C7300F0EA241EF582E43B1264BA742412126033
:104C8300124CDC2420124CCCC0E07426121260D0EB
:104C9300E0124CD474FFF0740112126074FFF074CC
:104CA3000212126074FFF09081C2120DBB740412E1
:104CB3000FDD7407120FD5121F8D7404120F7F7945
:104CC300007429120F7F025554F582E43BF583E00B
:104CD30022F085188285198322E8F0A3E9F0EA22FD
:104CE30074F4120A7774EC120FFD8A0A8B0B8C088A
:104CF3008D09E9FF7E107A217B001217EF85188258
:104D0300851983EAF0A3EB12636BE8497003024D44
:104D1300F07C217D007900851882851983E0FA12E1
:104D2300174D9013E11261CB851882851983125EAA
:104D3300DA2409F582E438F583126317742012121A
:104D4300601264BC7411121260E812544B12631D9A
:104D530038F583740212544E126AE97402125438FD
:104D6300124DF712544E126AC6EFF07422121260FB
:104D73001253F9F9A3E0C91267C039F583E8125158
:104D83000EA3E0C9241FF582E439124DFE742312E9
:104D930012601261CB740612126012631774081248
:104DA3001260E8F074261212601262F1C082C083AE
:104DB300740C121260AC82AD83D083D0827405125E
:104DC3000E907425121260E0C0E07413121260D0CA
:104DD300E0F07900AA18AB19122335E964017004D5
:104DE3007E0080098518828519831244CDEEF974FB
:104DF30014023798E508F0A3E50922F583E50AF0E4
:104E0300A3E50BF02274F0120A7774FF120FFDEA88
:104E1300FEEBFF8C088D098A82F583A37408F0EA00
:104E230024161250BD60088A828B83A37410F0EAA3
:104E330024171250BD60098A828B83A3E02408F0F3
:104E4300EA1250BB60088A828B83A3E004F08A8253
:104E53008B83A3A3A3A3A3A3E060198A828B83A359
:104E6300A3A3A3A3A3A3E0C3332402F88A828B835F
:104E7300A3E028F0EA24111250C56004740E8001E7
:104E8300E4F09015DCE0640170168A828B83E064A1
:104E930001600D90134DE060071250A5740180046A
:104EA3001250A5E412510E8A828B83A3E0F8EA1212
:104EB300335D28298C828D83F0EA24111250BD6062
:104EC300051256E629F0850882850983E0C39475A7
:104ED3004009750C00750D0002509CE0FA7B00122E
:104EE30017EF8A0C8B0DEA4B700302509C8E828F56
:104EF30083E0FA9013D11251077402780812112E2D
:104F0300EA4508FAAB09EE24121251017406780837
:104F130012112EA808EA48FCEBFD1250BA6004787F
:104F23000180027800EE2416FAE43FFBE4C8F9EDB1
:104F330049FDEE24111250BDF5088809740978085B
:104F430012112EED4509FD8A828B83125107740BD2
:104F5300780812112EED4509FDEE24171251017444
:104F63000C780812112EED4509FD8E828F83A3A3C1
:104F7300A3A3A3A3125107740A780812112EED45B7
:104F830009FDEE2423125101740D780812112EED40
:104F93004509F9EC850C82850D83F0E9A3F0EE2435
:104FA300021250E4125123F0EE24041250E4A3A39E
:104FB300125123A3A3F0EE24131250F4F0EE2414A1
:104FC3001250F4A3F0750B088A828B83E0601512EC
:104FD30063CD125ED6E50C2408FAE4350DFB1218F6
:104FE300F7750B10EE24171250BD6019125F59129A
:104FF3005ED6A80BE50C28FAE4350DFB1218F774FE
:1050030008250BF50B8E828F83A3A3A3A3A3A3E091
:10501300604EEE2407F50EE43FF50F850E82F5830F
:10502300E0C0E01250D3D0E0125113E0C0E0081208
:1050330050D5D0E0125113A3126347120F68850EA7
:1050430082850F83E01253ADA80BE50C281250AFF5
:10505300120F7F850E82850F83E0C333250BF50B7B
:105063001250BA6008C0E01250D3D0E0F01256A339
:10507300126347120F6812335CFC7D007403121233
:10508300601250DCE0F8E50C28F8E4350DF9E82A65
:10509300FAE4391250B3120F7FAA0CAB0D7401025C
:1050A3006330EA2423F582E43FF58322FAE4350DE5
:1050B300FB121741740322EE2415F582E43FF583B6
:1050C300E022F582E43FF583E08518828519832287
:1050D300A80BE50C281253C022E0FA8E828F83A31B
:1050E30022F8E43FF98882F583E0850C82850D83FD
:1050F30022F582E43FF58312512DA3A3A322F58267
:10510300E43FF583E0F50875090022126B0CF922E0
:10511300F0050B8E828F83A3A3A3A3A3A3A3A32230
:10512300A3A3126503A312512D22E0850C82850DE2
:1051330083A3A3A32274030237981264C08E828FC1
:1051430083A3A32274F0120A7774FD120FFD126376
:10515300117402121260E9F08C0C8D0D750B017C39
:10516300267D007900AA0CAB0D12174D74021212A2
:1051730060E0C3940850030253361250ECF0AC0CB9
:10518300AD0D8518828519831253E2FA851882853D
:105193001983125A081256DFE96003750B0085184C
:1051A300828519831262F1125403E0F9EA850C82B5
:1051B300850D83A3A3A3A3A3A3A3A3A3F0A3E9128E
:1051C3005438A3A3125403A3A3E0F9E50C126370AC
:1051D300EA12544B125EC6C0E0E50C2411126B4474
:1051E300D0E012544E2407F582E438F583E0C0E0A2
:1051F300126B40D0E0126304740812542FA3E060D2
:1052030026851882851983E02408F8A3E03400F981
:10521300E50C2413F582E4350D125DFA850C8285C5
:105223000D83A3E02408F0850C82850D83A3A3A33B
:10523300A3A3A3A3A3E0602A850C82850D83A38582
:10524300820E85830F1253F0F8A3E03400F9E50CC6
:10525300125AC9350D125DFA850E82850F83E0243B
:1052630008F01253B4E4F01253C8E4F0A312630439
:10527300A3A3A3A3E06011125414850C82850D83AC
:10528300A3A3A3A3A3125440E50C1253D5E07003C8
:10529300025322125414FA1253B4EA125440F885FA
:1052A3001882851983E028FBA3E034008B82F58301
:1052B300E0F8E50C241A126B44E8125440E8C39A50
:1052C300E50C50561253D0F8902F43E493C39850F3
:1052D300047E0C8006E50C1253D0FE850C82850DEE
:1052E300831253EFF508A3E03400F509750A00783B
:1052F30008120F68EE1253AD7A167B091250B412DE
:105303000F7F1253C87416F0A37409F0EEC333F879
:10531300850E82850F83E02880041253D5E4F0853F
:105323000C82850D83A3E0F8850C82850D83E0C391
:10533300985004790080701253EFFAA3E03400FB15
:10534300E50C126526126B47126317850C82850DD7
:1053530083E0C398C0E0E50C2417126B44D0E0123D
:10536300542FE06040E50C2417FEE4350DFF8E82D8
:10537300F583E024F2F0E50C241DF8E4350DF988FB
:1053830082F583E0240EFAA3E03400FB888289834C
:105393001263179013CCE0F912228DE9F88E828FF5
:1053A30083E0C398F0A90B02632E25E0FCE433FDF0
:1053B30022E50C1253BA2224191253C022F582E4B7
:1053C300350DF58322E50C241B1253C0221253BA68
:1053D300E0221262FE1253C322F582E43FF58312E8
:1053E30053E6221264C5F5838882E022A31253F4A4
:1053F300221253F92822E0F8851882851983E022C6
:10540300A3A3E0FA8518828519831262F7A3A3A3E5
:1054130022850C82850D83A385820E85830F12530B
:10542300F4FAA3E034008A82F583E022126308A32E
:10543300A3A3A3A322125453F583888222F0850EDB
:1054430082850F83E004F022F0A3E9125453C822AB
:10545300126B10F8A3E02274F4120A778A088B09FE
:10546300EA125503A3A3F0EA1313543F1254F6A30D
:10547300F0EAC4131312550312550D7409780A1276
:1054830011DC1254EDA3A3A3A3A3A3F0EB1254EFD7
:1054930012550C740A780A1211DCE50A5401C0E0B3
:1054A300EC1262FE3DF583D0E0125511740B780ABD
:1054B3001211DC1254ED12550A740C780A1211DC25
:1054C3001254EDA312550A740D780A1211DCE50A81
:1054D3005401C0E0EC2424F582E43DF583D0E0F0F0
:1054E300740E78081211DC023787E50A54018C82A6
:1054F3008D83221254FCA3A322540F8C828D83220A
:1055030054038C828D8322A3A3A3A3A3A3A3F08A12
:105513000A8B0B22C082C08379008A828B83A3A368
:10552300A3A3A3A3E09013CB600EE0701F8A828B2A
:1055330083A3A3E070168012E060111261BE901382
:10554300D4E06A7003A3E06B600279018003126107
:10555300CBD083D082020F1474F2120A778A0A8B9B
:105563000B890CECFEEDFF8A828B83E0FA1256DF87
:10557300850A82850B83A3A31256D3E0F9EA8E82B0
:105583008F83A3A3A3A3A3A3A3A3A31256F8125683
:10559300D3A3A3E0F91256A3EA1256F8A3A3E0C0DB
:1055A300E0EE2411F582E43FF583D0E01256FFA329
:1055B300A3A3E0C0E0EE2412F582E43FF583D0E03C
:1055C3001263DC7408124721A3A3A3E06017E50A62
:1055D3002408F8E4350BF9124BA9E8F0A3E91263A8
:1055E300DCE02408F08E828F83A3A3A3A3A3A3A349
:1055F300A3E060188E828F83A31256C2EE24151285
:105603005DF6850882850983E02408F08E828F8306
:10561300A3A3A3A3A3E060248E828F83A385820820
:10562300858309E0F8E50A28F582E4350B1256B7BD
:10563300A3A3F0850882850983E004F0EEFAEFFB6B
:105643001223ADE9F50D70498E828F83A3A3A3A323
:10565300A3A31256B1A37014E0F8E50A28FAE435BF
:105663000BFB125699126317E50C801A1256C2E807
:10567300240EF8500109EE241D125DF61256E6F9C8
:10568300E50CC39924F2C398C0E0EE125F50D0E05A
:10569300F0A90D0244F8EE241DF582E43FF58322C0
:1056A300EE1256A822240BF582E43FF58322E08E06
:1056B300828F8322F583E08E828F83A3A3A3228527
:1056C3008208858309E0F8E50A28F8E4350BF92216
:1056D300E0FA850A82850B83A3A3A32212653812FD
:1056E30023A7229013CCE0F912228DE9F8850882D2
:1056F300850983E022F0A3E91256FF22F0850A828E
:10570300850B83A3A3A3A322C082C0837A547B14F3
:1057130079E2121E2B7A547B14025554C082C08343
:105723009013D4025551C082C0839013D7025551B0
:10573300C082C083794A121E2B02555474F6120A92
:105743007790145CE0FE04F0EEF912235FEA4B70ED
:10575300F0EE60EDF90258C474F2120A77EAFEEB38
:10576300FF8C088D09890A12249D740E121260E0C1
:10577300F9740F121260E0F8EA4B7012E8701BA97B
:105783000AAC08AD09EEFAEFFB1224BB8065E860B2
:1057930017E970068A828B83E4F07401687054E918
:1057A30090145F7024E4801EE97048EA2402124CCE
:1057B300CCA80A28F8E4340013E813F070358A8281
:1057C3008B83A3A37401F0802AE004F09015CBE04F
:1057D300F890145FE0C398401AE4F09013D7E06E9A
:1057E3007003A3E06F700CEEFAEFFB7901121FB1A7
:1057F3001257F90244F87A017B0090142EE0F91253
:1058030018C72274F4120A778A088B098C0A8D0B45
:1058130090818E780812106870077A01124992807D
:105823001E9015B878081211FAEA4B4C4D600D78AA
:1058330008120F64123536120F7F80031257F902D4
:10584300379BC082C0839015BC024243C082C08391
:105853009015BE02424374F6120A777E007508C0A3
:105863007509137808120F6C7C6E7D007A217B001A
:105873001218677402120F7FE9640A70027E011224
:105883001F0FE9640A7004EED2E1FE9004871263ED
:105893005B600F125A09120C02E9640A7004EED21B
:1058A300E3FE122119E9640A7004EED2E4FE121D2C
:1058B300ADE9640A7004EED2E5FEEEF98003120F3F
:1058C3007F7F02020CF074F6120A7712171775081D
:1058D300C07509137808120F6C75086E7509007886
:1058E30008120F6C125906120F7F121F15900489AC
:1058F30012635B6006125A09120C0212211F121D59
:10590300BF80BE7C007D007A217B00121873740473
:105913002274F6120A7774FF120FFD7E007508C019
:105923007509137808120F6C7C6E7D007A217B0059
:105933001218677402120F7FE960030259E07808B6
:10594300120F6C75086E8E097808120F6C7C007D3F
:10595300007A217B001218797404120F7FE9707D9D
:105963009013D4E064FE7003A3E0F460707E0190B2
:1059730013E3E064086005E06404705C85188285C5
:105983001983EE125A207AEB7B137943121E317A74
:10599300E87B137947121E317AD97B13794A12595E
:1059A300FB7AE17B137950121E317AD47B1379533E
:1059B300121E317AE97B137954121E317AD67B1386
:1059C30079E1121E319013CEE0A2E35004D2F080AD
:1059D30002C2F0125A0D80051217177E00121F0320
:1059E30090048B12635B6006125A09120C02122197
:1059F3002BEEF974010258C1121E317AD77B137949
:105A03004B121E3122A31262F822A2F0E43385184E
:105A130082851983125A7F7952121E3122125A7FBC
:105A23007942121E312274F6120A77E9FEA2E0507F
:105A33001C7508C07509137808120F6C75086E750C
:105A430009007808120F6C125906120F7FEEA2E3B9
:105A53005003121F09EEA2E2500E90048D12635BF5
:105A63006006125A09120C020258C41223117A3129
:105A73007B147945121E3122125A7F22F0AA18ABE9
:105A8300192274F7120A7774ED120FFDE9FE9014D0
:105A93002DF0AC18AD19125AB17412121260EE1235
:105AA3005ABEAA18AB19125A6E74130248B2901553
:105AB300FEE0F97A317B1412231722F09015FEE0F1
:105AC300F97C317D14222415F582E422126ADC3537
:105AD30009F58322EFFB90142EE0F912176B22EEE7
:105AE3002416125AE922F582E43FF5837401F02269
:105AF300126ADB3FF583125AFD221264C5F98882CC
:105B0300F5832274F4120A778A088B097A007B04DE
:105B13001257FD125BA89013E37409F0126140124F
:105B23003C071261CB12614C640170677A0F7B00F2
:105B330012175F8A0A8B0BAF0BEA4F60568A828B70
