:020000040000FA
:0600000002119E0207B28E
:03002B00020EFFC3
:030053000206E1C1
:1000830002074301010020FD000200007E1500006D
:1000930000000000E41500000000000066150000E9
:1000A300000000000000000000000000000000004D
:1000B3000000000000000612FFFF01AD0E0000006B
:1000C30001C219C8190000CE19D41900000000009C
:1000D30000000000001020202020202020202020CD
:1000E3002020202020200114001E01040100010013
:1000F300085A8001F3810101010400EE0E000000A3
:10010300581B0000FFFF960F581B0000640064009B
:10011300B801A0BB0D00A0BB0D0002020008000047
:100123000502070401051E02051E020A0A0108084A
:1001330003B80B02803E0102FEFFE8030A0500013B
:10014300FFFF020A1401E005030101FF182C000060
:100153000000E62A00000000FF000000FF0012116B
:10016300AE601D1211BD7005191919801A121063A2
:10017300701F121077C37003E6673319191940070C
:100183001818182208080874FFF618F618F618F657
:1001930022121077601712124B702192F012125430
:1001A3007019501720F014080808090909E7F61810
:1001B30019E7F61819E7F61819E7F6221212546030
:1001C300E6E869701F0808E62480F608E436F618A6
:1001D300547FB47F0CE654806007F6E418F618F6F3
:1001E30022181822E9C6CC08C6CD08C6CE08C6CF49
:1001F300C0E0E8C0E0EAC0E0EBC0E009E9F809E7E5
:10020300FA09E7FBE6F918E6F8C3EC98ED99EE9ADC
:10021300EBC2E7F5F0EFC2E795F0500E600CEBCFC1
:10022300FBEACEFAE9CDF9E8CCF8EAA2E7D2E7FA9D
:10023300EB33FB13F5F0EEA2E7D2E7FEEF33FFC596
:10024300F013A2E730E601B313C5F0C3C0E0C0F07A
:100253007F00C39BFB605E9418600F401D14601AFF
:10026300D0E023F9D0E0F80203428AF0E9486003C2
:10027300D2F0E4AFF0FAF9F8803BEB30E40D89F00B
:10028300EA6003D2F0E4AFF0F9CAF8EB30E30D888B
:10029300F0EF6002D2F0AFF0E4CAC9F8EB540760A4
:1002A30014FBC3EA13FAE913F9E813F8EF13500246
:1002B300D2E0FFDBEDD0E0C0E030E739C3E49FFFDD
:1002C300F5F0EC98FC42F0ED99FD42F0EE9AFE4217
:1002D300F0D0E0F9D0E0F8E5F0607AE923F9EE2018
:1002E300E742D8028067C3EF33FFEC33FCED33FD05
:1002F300EE33FE80EAEC28FCED39FDEE3AFED0E069
:1003030023F9D0E0F84002801BC3EE13FEED13FD8A
:10031300EC13FCEF135002D2E0FF08B800067F7F16
:1003230074FF802EEF3350178CF020F00260100C16
:10033300BC000C0DBD00080EBE000408E860DFE938
:1003430033E813FFEE2313FE4F4D4C8008E954802E
:10035300FFE4FEFDFCEE33EF33F47004FCFD7E801E
:10036300D0E0FBD0E0FAD0E0F8D0E0CFC618CEC69C
:1003730018CDC618CCC6F9221211AE70041818187D
:10038300221211BD700D74FFF61819F61819F6181C
:1003930019F622E7548066F6121254700F12124BAC
:1003A30070F014F608F608F608F680D112124B70B6
:1003B3000CF608F608768008E6447F80EC12107A83
:1003C300700C12106660BFE65480F6E480BB121016
:1003D30066700519191980A5E869700C763F1876BF
:1003E3008018F618F6E8F922E6CDC0E018ECC0E074
:1003F300E633CD33CDD313F6E719FCE7191933CC24
:1004030033C3947F400ECD9D502408E65480F6E418
:1004130018F6800FF4043D14501408E6447FF618D0
:100423007680E418F618F6D0E0FCD0E0FD22CCD3B9
:1004330013CCFD18E4C6CBC0E018E4C6CAC0E0087C
:1004430008ED08C633E613F618E433C675F003C3A4
:10045300CA97CA09CB97CB199C40047D08802EBD4F
:10046300000302052416B6FF050606081618C3CABC
:1004730033CACB33CB33CA27CA09CB37CB193CC3D7
:100483007D08803E187D0820E75CC633C6CA33CAA0
:10049300CB33CB33DDF1D5F0EB30E77BCA97CA0919
:1004A300CB974ACB199C406F4B7025E620E0218007
:1004B30066187D08C3CA97CA09CB97CB199CD3C6C4
:1004C30033C6CA33CACB33CB3350C9DDE7D5F0E1EA
:1004D300D3E4C636C608C636C608C636C608C63608
:1004E300C61818188031C3CA97CA09CB97CB199C71
:1004F300B34097C633C6CA33CACB33CB33DD34D507
:10050300F02EC6A2E0C640C8CA27CA09CB37194A8B
:1005130070BECB3CB480B90808E63308E633601FED
:10052300181818D0E0FAD0E0FBD0E0FCD0E0FD22B0
:10053300187D08CA27CA09CB37CB193CD38080134F
:10054300F618E4B67F11F618B6FF0EF618C6047057
:10055300D20808768080CAF618F618F680C500120D
:1005630011AE604F1211BD6012E7548066F612108F
:1005730063701112124B703B090909F4F618F6184F
:10058300F618F62212107770151212540808086034
:10059300EAE6447FF618768018E4F618F62212127B
:1005A30054601612124B7012E4F608F608F608E6C9
:1005B3005480F609090918181822EAC0E0EBC0E0D4
:1005C300ECC0E0EDC0E0E687F0A4FBACF008E68702
:1005D300F0A42CFCE435F0FA1809E687F0A42C4BC0
:1005E30060027401CA35F0FCE433FB09E687F0D2FC
:1005F300F7A42CCB35F0FC1908E687F0A42BCC35F7
:10060300F0FBE433FD0819E687F0D2E7A42C4ACBCC
:1006130035F0CD3400FC09E687F0D2E7A42DCC35C4
:10062300F0FDE433FA0918E687F0D2F7A42CCD35B0
:10063300F0CA3400FC08E687F0D2E7D2F7A42ACC4C
:1006430035F07A7E20E70B0ACB33CBCD33CDCC33D9
:10065300CC33CB3350147004ED30E00ED2F1E4CD43
:100663003DCDCC3CCC3B5005DA05C2F1EB547FC603
:100673003308E63392F0FBE73309E733C39A502D8F
:100683002B70190C0D4C4D70151806E608C333700A
:100693000D20F10AA2F013F6E418800B4024E4F6CF
:1006A30030F002768018F618F618F68024D33B143F
:1006B300501074FFA2F013F6187680E418F618F6BB
:1006C300800FA2F013F618E63303F618ECF618EDD4
:1006D300F6D0E0FDD0E0FCD0E0FBD0E0FA22C0E0B1
:1006E30074F1120B38A2AFE433F509D2AF85A70832
:1006F300AFA1EF5508FE74105E60061212EA75A1F1
:10070300EF74085E60081212F075A1F78024EFA25F
:10071300E092F0E508A2E082F05017906198E0F8CB
:1007230090034AE0C398A2D265D0335002E8F07533
:10073300A1FE751A00E509A2E092AF7F02020B97B2
:10074300C0E074F2120B38A2AFE433FED2AF906173
:10075300A4E0F8759B00E59158540860087591F77B
:100763001213388023E59158541060087591EF12E5
:10077300133E8014E591A2E092F0E8A2E082F050EB
:1007830007E0C2E0F01214949061A3E0F8E5E958A1
:100793005404600E12146A75E9FB906193E0A2E6BB
:1007A30040F2751A00EEA2E092AF7F01020B97C0F0
:1007B300E074F2120B38A2AFE433FED2AF9061A51E
:1007C300E0F8E5BF585404600675BFFB1214AC8013
:1007D300D1C3E498F8E499F91208158026C3E49A82
:1007E300FAE49BFBE920E7E9120815E498F8E49999
:1007F300F922C3E498F8E499F9120815E498F8E4A7
:1008030099F9C3E49AFAE49BFB22EB20E7CFE920B2
:10081300E7E0B90010BB0008E88AF084F8AAF022E8
:10082300E4FBC8FA22EB70227B10C833C8C933C972
:10083300335007C39AC3DBF280069A50012ADBEADE
:10084300C833F4C8C933F4C9FA2275F008E4C833CD
:10085300C8C933C933C99AC99B5004C92AC93BD5EE
:10086300F0ECFBC833F4C8E4C9FA221208AE20F056
:100873001430E72B74FFFCFBFA747F8022E4FCFB4B
:10088300FA7480801AB48008BC00F2BB00EF800FBA
:1008930050EBF9E4C39AFAE49BFBE49CFCE499C6AD
:1008A300CC18C6CB18C6CA18C6F922E4C9C608CAEA
:1008B300C608CBC6D3330308CCC63392F0C3947FA8
:1008C300402E94184019C9B90704CACBCC2250252D
:1008D300C309CA33CACB33CBCC33CC33D9F422F4D8
:1008E300600DC9CCC313CB13CBCA13CAD9F6CC2220
:1008F300E4FCFBFA2214FCFBFA22080808EAC0E035
:10090300EBC0E086F0E7A4FA180986F0E7A42AFA18
:10091300180986F0E7A42AFA180986F0E7A42AFA48
:100923001986F0E7A4FBE5F02AFA190886F0E7A494
:100933002BFBE5F03AFA190886F0E7A42BFBE5F068
:100943003AFA18180986F0E7A4C5F02BFBE43AFA43
:100953001908E7C5F0C6A426F6E5F03BFBE43AFA2E
:100963001886F0E7A4F6E5F00826F6E43B08F6E47B
:100973003A08F6D0E0FBD0E0FA22080808E630E7B0
:100983001112104F120995080808C64480C618189A
:100993001822181818E9799EC608CAC608CBC608D3
:1009A300CCC6C370207996CACBCC7019798ECBCCC8
:1009B30070137986CC700EF9802ACA33CACB33CB35
:1009C300CC33CC331930E7F2CCCBCA335014700498
:1009D300EA30E00DE4CA3ACACB3BCBCC3CCC500264
:1009E30009C3E913C6CC182313C6CB18C6CA18C645
:1009F300F922E4CFC0E0E4CEC0E0E4CDC0E0E4CC33
:100A0300C0E075F020E626F608E633F608E633F68E
:100A130008E633F6181818EC33FCED33FDEE33FE1D
:100A2300EF33FFC3EC9709ED9709EE9709EF971999
:100A33001919400FFFEC97FC09ED97FD09EE97FE9E
:100A4300191906D5F0BFECF709EDF709EEF709EF31
:100A5300F7191919D0E0FCD0E0FDD0E0FED0E0FF9B
:100A6300222518C582C0E0E51934FFC583C0E0E53F
:100A730018C3958224F810AF0885831985821880DE
:100A830008858319858218D2AFCEF0A3E520F0A3A1
:100A93007808E608F0A3DEFAEFF0A3E58124FAF87C
:100AA300E608F0A3E608F0A3E608F0A30808E608C2
:100AB300F0A3E608F0A315811581D0E0FED0E0F89D
:100AC300158115811581E8C0E0EEC0E022121236CF
:100AD300B90003020B22E49003017803791080022A
:100AE300F0A3D8FCD9FA781A9000867A01BA0002EA
:100AF3008007E493A3F608DAF97A037B1290008760
:100B030078DB79018015E493A3AD82AE838A828B6F
:100B130083F0A3AA82AB838D828E83D8E9D9E7754C
:100B230082B47583AA7404120EE175825675832804
:100B33007400120EE1C0D02518C582C0E0E5193457
:100B4300FFC583C0E0E518C3958224F310AF088581
:100B530083198582188008858319858218D2AFC8C6
:100B6300F0A3E9F0A3EAF0A3EBF0A37908E709F017
:100B7300A3D8FAECF0A3EDF0A3EEF0A3EFF0A3D02B
:100B8300E0F0A3D0E0F0A3D0E0F0A3E520F0A3E5EC
:100B9300F0F0A322851983851882E0C0E0A3E0F971
:100BA300A3E0FAA3E0FBA37808E0F608A3DFFAE0EA
:100BB300FCA3E0FDA3E0FEA3E0FFA3E0C0E0A3E00D
:100BC300C0E0A3E0F5D0A3E0F520A3E0A3F5F01087
:100BD300AF08858319858218800885831985821853
:100BE300D2AFD082D083D0E0F8D0E032FF75F010DE
:100BF3008E218F22858226858325851882851983F8
:100C0300E0CEA3E0CF852682852583EBC9EAC8ED34
:100C1300CBECCAC3E833C8E933C9EA33CAEB33CBF5
:100C2300C3EA9EF524EB9FF523B35004AB23AA2418
:100C3300EC33CCED33CDD5F0DAAE21AF2222D08325
:100C4300D082ECC0E0EDC0E0E493A3FCE493A3FD09
:100C5300ED4C600D120D19EC24FFFCED34FFFD800B
:100C6300EFE493A3FCE493A3FDED4C600D120DECB4
:100C7300EC24FFFCED34FFFD80EFD0E0FDD0E0FC81
:100C8300E493A3C0E0E493C0E0228519838518822E
:100C9300E0A3FEE0A3F5207808E0A3F608DFFAE07E
:100CA300A3FFE0A3C0E0E0A3C0E0E0A3C0E0E0A3B3
:100CB300C0E0E0A3C0E010AF0885821885831980E7
:100CC30008858218858319D2AFD083D082020EE7BC
:100CD300D083D082E9C0E0E493A3C386F0C5F09546
:100CE300F0F908E493A386F0C5F095F0700BE49354
:100CF300A3C3994005E9048002A3E475F002A42587
:100D030082F582E5F03583F583D0E0F9E493A3C05F
:100D1300E0E493C0E022C0E0C3E493960874019337
:100D23009618400FE4936670080874019366187070
:100D3300007019A3A3C3E49396087401939618A3B0
:100D4300A3400DD0E0D0E0D0E0020C7DA3A3A3A389
:100D5300A3A3D0E022D083D082C5F0E493A3C5F04F
:100D6300C395F0F5F0E493A3C395F04005E5F004D3
:100D73008001E475F002A42582F582E5F03583F560
:100D830083E493A3C0E0E493C0E02274048004747A
:100D9300028000CCC0E0EDC0E0E518C39CCCAD19E7
:100DA30050011D10AF068C188D1980068C188D19F3
:100DB300D2AF120E63D0E0FDD0E0FC2274028000BB
:100DC300CCC0E0EDC0E0E518C39CCCAD1950011DCB
:100DD30010AF068C188D1980068C188D19D2AF129E
:100DE3000E41D0E0FDD0E0FC22C0E0C0F088F0E48A
:100DF300936670080874019366187000A8F0A3A3A3
:100E0300700BD0F0D0E0D0E0D0E0020C7DA3A3D0F3
:100E1300F0D0E022D083D082CCC0E0E493A360067C
:100E2300120E841470FAE493A36006120FE6147092
:100E3300FAD0E0FCE493A3C0E0E493C0E022CAC08C
:100E4300E0E493A3C582CCC582C583CDC583F0A35B
:100E5300C582CCC582C583CDC583DAE5D0E0CA227D
:100E6300CAC0E0E0A3C582CCC582C583CDC583F0EB
:100E7300A3C582CCC582C583CDC583DAE6D0E0CADB
:100E830022C0E0E493A3D39C5010E493A3C39C40FB
:100E93000AD0E0D0E0D0E0020E34A3A3A3D0E02236
:100EA300C008C3E096F50808A3E096420808A3E04B
:100EB30096420808A3E09645087001D3D008227033
:100EC30009080808226016181818C6C333C608C6CE
:100ED30033C608C633C608C633C6D5E0EA22C09F68
:100EE300F59FE473D09F22D083D082C09FE493C048
:100EF300E0740193C0E0740293F59F22C0E0C0D078
:100F0300E8C0E0A8A8D2AFC2C7751A00E8A2E7926A
:100F1300AFD0E0F8D0D0D0E03200C0D0251810AF69
:100F230008F518500C05198008F51850020519D258
:100F3300AFD0D0222518F58210AF08F518400C1554
:100F4300198008F51840021519D2AF851983227448
:100F530004800A74038006740280027401C0E0F402
:100F630004120F37D0E01211F922BB0102E722C0AD
:100F730082C08389828A83BB0003E08002E493D02A
:100F830083D082226016080808C6C313C618C61386
:100F9300C618C613C618C613C6D5E0EA222518F824
:100FA300E43519F9222518FAE43519FB222518FC32
:100FB300E43519FD22C3E0C696F608A3E0C696F60B
:100FC30008A3E0C696F608A3E0C696F622251810F5
:100FD300AF08F518400C15198008F51840021519CB
:100FE300D2AF22C0E0E493A36C7009D0E0D0E0D08C
:100FF300E0020E34A3A3D0E022E76670100809E7ED
:1010030066700A0809E76670040809E76622E06665
:10101300701008A3E066700A08A3E066700408A3D2
:10102300E06622C3E09608A3E09608A3E09608A32F
:10103300E096A2D265D03322C3E096F008A3E096EF
:10104300F008A3E096F008A3E096F022181818E43D
:10105300C396F608E496F608E496F608E496F622B4
:10106300181818E60846087009E626087005E633DE
:10107300F4220822191919E70947097009E7270912
:101083007005E733F4220922C3E4939608740193AD
:10109300960874029396087403939622C3E697F610
:1010A3000809E697F60809E697F60809E697F6228F
:1010B300E026F608A3E036F608A3E036F608A3E038
:1010C30036F622E627F60809E637F60809E637F684
:1010D3000809E637F622E647F60809E647F608095F
:1010E300E647F60809E647F622E056F608A3E05677
:1010F300F608A3E056F608A3E056F622E056F008F9
:10110300A3E056F008A3E056F008A3E056F022E669
:1011130057F60809E657F60809E657F60809E657A9
:10112300F622E026F008A3E036F008A3E036F00844
:10113300A3E036F022E493F608740193F6087402F0
:1011430093F608740393F622700422600D18C6C345
:1011530033C608C633C6D5E0F41822600D08C6A20C
:10116300E713C618C613C6D5E0F322C3E09608A357
:10117300E09608A3E09608A3E09622C6F4C608C644
:10118300F4C608C6F4C608C6F4C622C3E79608091F
:10119300E7960809E7960809E7962275D000758156
:1011A3003F75180175190300020AD0E6084608C303
:1011B300134608336002E633F422E7094709C313F1
:1011C3004709336002E733F422600C08C6C313C631
:1011D30018C613C6D5E0F422E6F008A3E6F008A388
:1011E300E6F008A3E6F022E0F608A3E0F608A3E0A1
:1011F300F608A3E0F622CAC0E0E6F0A308DAFAD0C4
:10120300E0FA22E0FAA3E0FBA3E0FCA3E0FD22EA7C
:10121300F0A3EBF0A3ECF0A3EDF022E0F8A3E0F9E8
:10122300A3E0FAA3E0FB22E8F0A3E9F0A3EAF0A32A
:10123300EBF022E5C754F84401F5C77901222518DC
:10124300F582E43519F58322E7271947194719472A
:1012530022E62618461846184622C2AF75D69F02C4
:10126300000022120EEA7DC804120EEA82C804129C
:101273000EEA89C804120EEA8BC804120EEA5BF761
:1012830003120EEA87F703120EEAF8F903120EEAC5
:1012930038FA03120EEA78FA03120EEA8CFA0312F2
:1012A3000EEAA5FA03120EEA96FB03120EEA3BFCC2
:1012B30003120EEA4FFC03120EEA34B904120EEACB
:1012C30058B904120EEA71B904120EEAA3B9041252
:1012D3000EEAD3B904120EEA00BA04120EEA0ABAED
:1012E30004120EEA6CBA04120EEA7BBA04120EEA76
:1012F30085BA04120EEA92BA04120EEA1EA8041268
:101303000EEA3EA804120EEA7DA804120EEA98A87B
:1013130004120EEAB7A804120EEA1DA904120EEA7B
:1013230026A904120EEA83A904120EEAA7A904123D
:101333000EEA68AA04120EEA75AA04120EEA86AA35
:1013430004120EEA80C504120EEA98C504120EEACE
:10135300C4C504120EEA398504120EEA95860412F6
:101363000EEAA28604120EEAB58604120EEACA86B3
:1013730004120EEADF8604120EEAF28604120EEA63
:10138300668704120EEACB8704120EEA538804120E
:101393000EEACF8804120EEA938904120EEAA38997
:1013A30004120EEAB28904120EEA48C404120EEAC9
:1013B3006CC404120EEA94C404120EEABCC40412F0
:1013C3000EEAD2AF04120EEAF9AF04120EEA17B016
:1013D30004120EEA8AB004120EEA4BA504120EEAB6
:1013E30064A504120EEA70A504120EEA84A5041281
:1013F3000EEAA2A504120EEAACA504120EEAB6A5E3
:1014030004120EEAC9A504120EEA4FA604120EEA4C
:10141300C4A604120EEAF3A604120EEA41A70412AC
:101423000EEA90A704120EEAABA704120EEAB5A7C0
:1014330004120EEAC6A704120EEA09A804120EEA61
:1014430006C704120EEA51C704120EEA08DF03129C
:101453000EEA32DF03120EEA4FDF03120EEA62DFF7
:1014630003120EEA78DF03120EEAD6DF03120EEA46
:101473000EE003120EEA02E403120EEA47E503123A
:101483000EEA7AE503120EEADDE503120EEA47E7F8
:1014930003120EEA6FE703120EEA84E703120EEA61
:1014A30094E703120EEAD8E703120EEA33E80312B5
:1014B3000EEA43E803120EEA1DBD04120EEA37BD1D
:1014C30004120EEA5FBD04120EEA78BD04120EEA9E
:1014D3009CBD04120EEABABD04120EEAD1BD041279
:1014E3000EEAFFBD04120EEA1ABE04120EEAE1C2AE
:1014F30004120EEA27C304120EEA63FC03120EEA77
:1015030073FC03120EEA7AFD03120EEAAEFD031218
:101513000EEAD0FD03120EEAF3FD03120EEA11FEEA
:1015230003120EEA4BFE03120EEAB0FE03120EEA9A
:10153300F2FE03120EEA31FF03120EEA62FF0312F8
:101543000EEA99FF03120EEAE6BB04120EEA04BC8C
:1015530004120EEA69BC04120EEA08BD04120EEA74
:10156300067F00120EEA4DBE04120EEA93BE041269
:101573000EEAA1B704120EEAE0B804120EEAF8C9A3
:1015830003120EEACACD03120EEAB9CF03120EEA12
:10159300E7D003120EEAC4D103120EEA46D30312B4
:1015A3000EEA16D403120EEA6AD403120EEAD6B573
:1015B30004120EEAF7B504120EEA29B704120EEA72
:1015C30053B704120EEA4BAD04120EEABFAD041278
:1015D3000EEACAAD04120EEAEBAD04120EEA59A5E7
:1015E30003120EEA5CA503120EEA1CAA03120EEA0A
:1015F30052AB03120EEAA5AC03120EEA69AD031255
:101603000EEA4CAE03120EEA44AF03120EEAF4AF35
:1016130003120EEA24B003120EEADBB103120EEA40
:10162300F6B304120EEA08B404120EEA1BB5041250
:101633000EEAA8B504120EEA95C304120EEACBC350
:1016430004120EEAE5C304120EEA27C404120EEADA
:1016530037C404120EEA4CF003120EEA86F00312AA
:101663000EEAEFF003120EEA0CF103120EEA25F173
:1016730003120EEAC7F103120EEAD0F103120EEAC7
:1016830015F203120EEA3EF203120EEA4BF20312B4
:101693000EEABCF203120EEA47F303120EEA95F3C5
:1016A30003120EEAD3F303120EEA38F403120EEA1E
:1016B3005BF403120EEAD2F403120EEA29F50312C5
:1016C3000EEA64F503120EEA99F503120EEAABF57E
:1016D30003120EEABDF503120EEADCF503120EEA5D
:1016E300E5F503120EEAA5F603120EEAF1F603126C
:1016F3000EEA2FF703120EEAEB8904120EEA2B8B84
:1017030004120EEA4E8B04120EEA5F8B04120EEAE9
:101713005E8D04120EEA7E8D04120EEABEFD0212E5
:101723000EEAF4FD02120EEA3CFE02120EEA95FFE7
:1017330002120EEA008003120EEA248103120EEA5B
:101743005E8103120EEA088303120EEA3283031248
:101753000EEAA78503120EEAE78503120EEA7D87D8
:1017630003120EEA1A8803120EEA6C8803120EEAB9
:101773000F8903120EEA478903120EEA89890312BD
:101783000EEAF88A03120EEA468C03120EEA778EEB
:1017930003120EEAA58E03120EEACC8E03120EEA92
:1017A300D58E03120EEA258F03120EEAB78F0312AA
:1017B3000EEAE69203120EEA699303120EEAE1C4FB
:1017C30004120EEAF7C404120EEA01C504120EEA6B
:1017D30055C504120EEAB48E04120EEACA8E041220
:1017E3000EEA6B8F04120EEAAA8F04120EEAC78F59
:1017F30004120EEAF88F04120EEA459004120EEA60
:10180300789004120EEAB39004120EEAAE92041218
:101813000EEA169304120EEAB0FF01120EEAF1FF6C
:1018230003120EEA64C004120EEAC3C004120EEAE5
:1018330001C104120EEA42C104120EEA82C6041266
:101843000EEA8AC604120EEAE0C604120EEA00800B
:1018530002120EEA0C8002120EEA6E8002120EEAE7
:10186300788002120EEA0B8102120EEA47810212FD
:101873000EEA038202120EEA168202120EEA668250
:1018830002120EEAF58202120EEA2B8302120EEA0C
:10189300AD8302120EEA588502120EEA2C87021259
:1018A3000EEAF88702120EEA7A8902120EEAE38A36
:1018B30002120EEA808B02120EEA289002120EEA3E
:1018C300169102120EEAB49102120EEAD991021293
:1018D3000EEA759202120EEA8A9202120EEAAE9292
:1018E30002120EEA149302120EEA319302120EEA66
:1018F3005B9302120EEAD89402120EEAF9940212D2
:101903000EEA7F9502120EEA259602120EEA6C96F3
:1019130002120EEADF9602120EEA6B9702120EEA29
:10192300CF9702120EEA2F9802120EEAC5980212FE
:101933000EEA409902120EEA739902120EEAD59941
:1019430002120EEA379B02120EEAA79B02120EEA5C
:10195300569C02120EEAAC9D02120EEA429E02123D
:101963000EEAAE9E02120EEAF1A002120EEA7DA268
:1019730002120EEAA8A202120EEA8EA402120EEAC4
:1019830033A602120EEA3CA702120EEA2D9B0412A2
:101993000EEA9D9B04120EEAAB9B04120EEAB99C5D
:1019A30004120EEA73E803120EEADFE803120EEAEA
:1019B300EAE903120EEA99EA03120EEA2AEC031289
:1019C3000EEA61EC03120EEAB5EC03120EEACFEC59
:1019D30003120EEAD2EC03120EEA5AED03120EEAD8
:1019E300EBEE03120EEAA1C704120EEACF9E041215
:1019F3000EEA899F04120EEAEF9F04120EEA10A06A
:101A030004120EEAE2A004120EEA5DC704120EEA03
:101A130066CF02120EEABECF02120EEA44D00212C1
:101A23000EEA5AD102120EEAA7D102120EEA64D2CA
:101A330002120EEA7BD202120EEACDD202120EEA93
:101A43000AD302120EEA1DD302120EEA73D3021254
:101A53000EEACCD302120EEA5CD602120EEAF3D6D9
:101A630002120EEA1DD702120EEA55D702120EEA2F
:101A73008BD902120EEAD1D902120EEA1BDA021234
:101A83000EEAEFDA02120EEA30DB02120EEA53DB41
:101A930002120EEA9ADB02120EEAB0DB02120EEA1F
:101AA30031DC02120EEAB9DC02120EEAC4DC0212C5
:101AB3000EEA14DD02120EEA6EDD02120EEAA9DD51
:101AC30002120EEABFDE02120EEA4DE102120EEA24
:101AD30080E202120EEABBE202120EEA88E302126D
:101AE3000EEAD2E302120EEAD5E302120EEADEE3B5
:101AF30002120EEAF0E302120EEA71E402120EEA97
:101B0300A7E402120EEAD3E402120EEAFAE4021286
:101B13000EEA1EE502120EEAB5E502120EEACEE562
:101B230002120EEAE4E502120EEA05E602120EEADA
:101B330033E602120EEA53E602120EEA90E60212AE
:101B43000EEAC7E602120EEAC6E702120EEAF9E847
:101B530002120EEA0FE902120EEA26E902120EEA57
:101B630005C604120EEA11C604120EEA4DC604128B
:101B73000EEA008004120EEA3E8004120EEACA80C6
:101B830004120EEAD58104120EEAF18304120EEA5E
:101B93006E8404120EEA5AEF01120EEA7DEF01126F
:101BA3000EEA61F001120EEAAAF001120EEA02F146
:101BB30001120EEA5EF101120EEAAAF101120EEA17
:101BC30020F201120EEAAEF201120EEA26F301121E
:101BD3000EEA69F301120EEA7AF701120EEAC1F96D
:101BE30001120EEAFBF901120EEAE7FA01120EEAFC
:101BF300BBFB01120EEA37FD01120EEACDFD011205
:101C03000EEAB69303120EEA569403120EEAC09438
:101C130003120EEAD99403120EEA5B9503120EEA3D
:101C23009F9503120EEAB79603120EEAF396031278
:101C33000EEA709703120EEABB9703120EEA1F987F
:101C430003120EEA529903120EEA809A03120EEA65
:101C5300F99A03120EEAD19C03120EEA719D031244
:101C63000EEA149E03120EEA739E03120EEAE89E16
:101C730003120EEA4CA003120EEAE5A103120EEAC8
:101C8300E5BF04120EEAFBA203120EEA10A403122C
:101C93000EEA38E902120EEAB0E902120EEAF8E996
:101CA30002120EEA3CEA02120EEA85EA02120EEA78
:101CB300CFEA02120EEA04EB02120EEA82EB0212E0
:101CC3000EEADCEB02120EEA35ED02120EEABEED6D
:101CD30002120EEA1AEE02120EEA34EE02120EEAB3
:101CE3005BEE02120EEAB3EE02120EEA1DF00212CE
:101CF3000EEA3CF002120EEA64F102120EEAF3B3AA
:101D030004120EEA4EF202120EEAB0F202120EEAC8
:101D130060F302120EEA32F502120EEA1DF6021207
:101D23000EEA17F702120EEA1DF802120EEA39F94B
:101D330002120EEA47F902120EEA20FA02120EEA22
:101D4300C0FA02120EEA04FB02120EEA19FB021297
:101D53000EEA2AFC02120EEACDFC02120EEA25FD5F
:101D630002120EEA719704120EEA199904120EEA8E
:101D7300D69904120EEA2B9A04120EEAA89A0412B8
:101D83000EEA48A204120EEA63A204120EEAA7A204
:101D930004120EEACDA204120EEAF3A204120EEA12
:101DA3000BA304120EEA6EA304120EEA83A3041219
:101DB3000EEAA5A404120EEAAEA404120EEAB7A416
:101DC30004120EEAC0A404120EEA239304120EEACC
:101DD300039704120EEA089704120EEA0A970412F4
:101DE3000EEAD8AB04120EEA25C804120EEA77AB4A
:101DF30002120EEACEAB02120EEA3AAC02120EEA5D
:101E0300C6AC02120EEA7CAD02120EEAC4AD021297
:101E13000EEADDAD02120EEA00AE02120EEA22AEA7
:101E230002120EEA60AE02120EEAAFAE02120EEA20
:101E3300DAAE02120EEA38AF02120EEADFAF021276
:101E43000EEA87B002120EEA03B102120EEAD0B113
:101E530002120EEA1CB202120EEAA4B202120EEA37
:101E6300DDB202120EEA6EB302120EEA7FB3021261
:101E73000EEAF1B302120EEA8AB402120EEAF4B4C5
:101E830002120EEAE4B502120EEA09B602120EEAD3
:101E930006B702120EEA13B702120EEA1CB70212B9
:101EA3000EEA05B902120EEA21BA02120EEAB2BA1A
:101EB30002120EEA23BB02120EEAFDBC02120EEA64
:101EC300C8C002120EEADCC002120EEAECC0021213
:101ED3000EEAF6C002120EEAFFC002120EEA08C1B1
:101EE30002120EEA12C102120EEA41C102120EEAF6
:101EF3006FC102120EEA7AC102120EEA9EC10212E9
:101F03000EEAC2C102120EEA34C202120EEA7DC206
:101F130002120EEA99C202120EEA0AC302120EEA72
:101F230056C302120EEA9FC302120EEADDC3021267
:101F33000EEA5EC402120EEA29C602120EEAC8C6EF
:101F430002120EEA90C702120EEA1CCA02120EEA2D
:101F530071CA02120EEA99CA02120EEACCCB02121D
:101F63000EEA11CC02120EEA66CC02120EEA14CD6E
:101F730002120EEAB9CD02120EEAEECD02120EEAF9
:101F83008ECE02120EEA0ACF02120EEAE32E0012DE
:101F93000EEA152F00120EEA492F00120EEAFD3049
:101FA30000120EEAD13100120EEA303200120EEAAC
:101FB300463300120EEA923300120EEA2F36001255
:101FC3000EEAA43800120EEAF03900120EEA883A3B
:101FD30000120EEA943A00120EEADD3A00120EEAFB
:101FE300103B00120EEA9C3B00120EEAAE3C0012BC
:101FF3000EEAEF3D00120EEAEE3E00120EEA183F23
:1020030000120EEA833F00120EEADC3F00120EEAD2
:102013004F4000120EEA854200120EEA0B440012F2
:102023000EEAF64400120EEA444600120EEA7C4819
:1020330000120EEA734B00120EEA824B00120EEAF4
:10204300164C00120EEAC14C00120EEA044D0012A7
:102053000EEA704D00120EEA8C4D00120EEABB4DD3
:1020630000120EEAFA4D00120EEAE24E00120EEAD8
:10207300914F00120EEA085200120EEA3A53001270
:102083000EEA095400120EEA8B5400120EEAD758D6
:1020930000120EEA065900120EEA615900120EEA06
:1020A300945900120EEAEF5900120EEA0B5A00126D
:1020B3000EEA6C5A00120EEABC5A00120EEA6B5B6F
:1020C30000120EEA2E5C00120EEAF65C00120EEA13
:1020D300425F00120EEACE6000120EEA2562001281
:1020E3000EEA416300120EEA446300120EEA7363C0
:1020F30000120EEA626500120EEA2B6600120EEA67
:102103006C6600120EEAC26700120EEA386800120B
:102113000EEA6B6800120EEACF6800120EEAF06A4C
:1021230000120EEA4F6B00120EEA256C00120EEA43
:10213300396C00120EEA4D6C00120EEA7A6C001232
:102143000EEAAA6C00120EEA4E6E00120EEA4B6FF4
:1021530000120EEA996F00120EEAC06F00120EEA27
:102163009B7000120EEA417100120EEAC772001250
:102173000EEA0E7300120EEA7B7300120EEAD0749D
:1021830000120EEA797500120EEAAD7500120EEA1E
:10219300C57500120EEA687600120EEAE4780012A2
:1021A3000EEA8C7A00120EEAB07A00120EEACE7AA8
:1021B30000120EEA9A7B00120EEAE87E00120EEA83
:1021C300F98101120EEA2B8201120EEAAB8601128B
:1021D3000EEAFA8601120EEA408701120EEAE3873D
:1021E30001120EEA488801120EEA8C8801120EEAE7
:1021F300F38901120EEA1F8B01120EEA1C8F0112E2
:102203000EEA9B8F01120EEAC19001120EEA24918D
:1022130001120EEA709201120EEA089501120EEAFB
:10222300959501120EEA9F9501120EEAC7950112C8
:102233000EEA8F9601120EEA249701120EEA4D97C9
:1022430001120EEA7A9701120EEACF9901120EEAF1
:102253009C9A01120EEADB9A01120EEA5D9B0112AF
:102263000EEA089C01120EEA3A9C01120EEA859CC2
:1022730001120EEABE9C01120EEA0D9D01120EEA36
:10228300699D01120EEAEB9D01120EEA509E0112A6
:102293000EEAC89E01120EEA71A001120EEA69A1AC
:1022A30001120EEAAAA201120EEAFEA501120EEA1B
:1022B3005AA801120EEA13A901120EEA5BA9011230
:1022C3000EEA3CAB01120EEA77AB01120EEA80ABC9
:1022D30001120EEA89AB01120EEA94AB01120EEA67
:1022E300B3AB01120EEA66AC01120EEAC3AC0112E3
:1022F3000EEACDAC01120EEAD7AC01120EEA23AD01
:1023030001120EEA6BAD01120EEA6FAE01120EEA74
:1023130008AF01120EEACFAF01120EEAF9B00112B3
:102323000EEA24B201120EEA1AB301120EEA32B314
:1023330001120EEA66B301120EEA84B301120EEA29
:10234300CCB301120EEA05B401120EEABCB40112B9
:102353000EEA7DB501120EEAF0B501120EEA6CB673
:1023630001120EEA08B701120EEA2EB801120EEAA4
:10237300EAB801120EEA8AB901120EEA77BA01121B
:102383000EEACFBA01120EEA95BB01120EEAB8BBF0
:1023930001120EEACDBC01120EEA18BD01120EEABB
:1023A30074BD01120EEADCBD01120EEA00BE011279
:1023B3000EEA28BE01120EEA6DBE01120EEA91BEAC
:1023C30001120EEA15BF01120EEAFEBF01120EEA58
:1023D30043C001120EEA6CC001120EEA0AC10112D7
:1023E3000EEA75C101120EEAA1C101120EEA82C200
:1023F30001120EEA88D403120EEAC0D403120EEAC5
:10240300E1D403120EEA23D503120EEA87D5031291
:102413000EEA91D503120EEAA1D503120EEAD8D51E
:1024230003120EEA81D903120EEA49DB03120EEA04
:102433002DDD03120EEACFDD03120EEA59DE03127D
:102443000EEA72C401120EEAD6C401120EEA34C5B2
:1024530001120EEA7FC501120EEA9AC501120EEAB5
:10246300C1C501120EEADEC501120EEAEAC5011268
:102473000EEA7BC701120EEA94C701120EEA10C8D6
:1024830001120EEA23C801120EEA33C801120EEA42
:10249300D7C801120EEA43CA01120EEA56CB011243
:1024A3000EEAF6CB01120EEA00CC01120EEA7FCC43
:1024B30001120EEA90CC01120EEACFCC01120EEA01
:1024C300FDCC01120EEACACD01120EEA21CE011291
:1024D3000EEA5ACE01120EEAB0CE01120EEACECEA9
:1024E30001120EEA1CCF01120EEAE7CF01120EEA27
:1024F30035D001120EEA82D001120EEA05D1011283
:102503000EEA2FD101120EEA65D101120EEA74D13F
:1025130001120EEAD3D101120EEA4BD201120EEAD6
:102523008CD201120EEADCD201120EEA07D3011299
:102533000EEA21D301120EEA3BD301120EEA10D4A4
:1025430001120EEA1AD401120EEA55D401120EEA50
:1025530065D401120EEA6ED401120EEABFD4011241
:102563000EEAD3D401120EEAF5D501120EEA0CD607
:1025730001120EEA21D601120EEAB4D601120EEAB6
:1025830028D701120EEACDD701120EEAD8D70112CD
:102593000EEA38D901120EEA54D901120EEAA0D973
:1025A30001120EEA0EDA01120EEA40DA01120EEA05
:1025B3005ADA01120EEA9CDA01120EEAEFDC01127A
:1025C3000EEA87DD01120EEAFEDD01120EEA5BE080
:1025D30001120EEA73E001120EEA76E001120EEA2E
:1025E30082E001120EEA96E001120EEA9EE0011269
:1025F3000EEAD5E001120EEAC9E101120EEA53E236
:1026030001120EEAD5E201120EEA55E301120EEAB7
:102613002CE401120EEA4EE401120EEAE7E4011281
:102623000EEA44E501120EEA47E501120EEA74E5EB
:1026330001120EEA89E501120EEAF8E501120EEA2B
:1026430044E701120EEA57E801120EEAE2E801122A
:102653000EEAF5E901120EEABAEA01120EEAEBEA12
:1026630001120EEA11EB01120EEA1AEB01120EEA45
:1026730049EB01120EEAF9EB01120EEAA9EC011281
:102683000EEA1CED01120EEABFED01120EEA32EE64
:1026930001120EEA71EE01120EEABAEE01120EEA0F
:1026A300EFEE01120EEA62BF04120EEADBC204125D
:1026B3000EEA4AC204120EEA3BC204120EEA2BC20D
:1026C30004120EEA6AC804120EEAFCFF03120EEAB1
:1026D30013C204120EEA75C104120EEA64C1041295
:1026E3000EEA6FB304120EEA2DB204120EEAFEC70D
:1026F30004120EEAE3C704120EEAF5B104120EEA5D
:10270300F87F00120EEA7FBE03120EEAA5BD031284
:102713000EEADBBC03120EEA4ABB03120EEA13BB3A
:1027230003120EEAE5BA03120EEA99BA03120EEA8D
:1027330002BA03120EEA72B903120EEA4CB903127B
:102743000EEA01B903120EEACBB803120EEA4EB831
:1027530003120EEAE9B703120EEA98B703120EEA60
:10276300C0B603120EEA30B603120EEAE4B5031242
:102773000EEA5FB503120EEA67C804120EEA1AB531
:1027830003120EEA64C804120EEA61C804120EEAC8
:1027930051C804120EEAFDFF02120EEAFAFF0212FA
:1027A3000EEAF7FF02120EEAFEB403120EEAA6B314
:1027B30003120EEA78B303120EEA45B303120EEACC
:1027C300F4FF02120EEAC9B203120EEAADC90312F4
:1027D3000EEA54C903120EEA1FC903120EEAF9FFE7
:1027E30003120EEAEAC803120EEAE1F102120EEA3C
:1027F300B6C803120EEA49C803120EEA31C803121F
:102803000EEA0CC803120EEAE5C403120EEAB8C2BC
:1028130003120EEABFC003120EEA4BC003120EEA04
:10282300FCBF03120EEAB6BF03120EEA58BF03122F
:102833000EEA44BB04120EEA0CBB04120EEAEFBA12
:1028430004120EEA9CBA04120EEA4BC004120EEAFA
:1028530091A20300000080FBE47387000100C11212
:10286300350004008712250002008B1226000200A7
:102873008D12270002008F122800010099122900EF
:1028830001009A12840004009B12860001009F122B
:102893002A000100A0122B000100A1122C0001004C
:1028A300A5122D00080016102E000100A6122F00FD
:1028B3000100A71230000100A81231000100A91283
:1028C300320001001E10330001001F10340001000C
:1028D300AA1236000100201038000100AB123900A3
:1028E3000100A41283000200BF1263000100311033
:1028F30064000100A21265000100A3126D00010033
:102903003210710008000E1066000100BE12430071
:102913000100AF1244000200B01245000100B212E0
:1029230046000200B31247000800291048000100C6
:10293300B5124B000100B61204000100C212A1003F
:102943000100C51237000100C41288000100C31240
:102953003C00010021103D000100AC1249000200BF
:10296300B7126700010033104D000200B9124E0088
:102973000100BB124F000200BC123E0001002810F0
:1029830051000100221052000100AD12530001005A
:10299300AE125400010023100000000000000001EB
:1029A30036360101000102010001030100010401A7
:1029B300060605020000070100340801000F0904A0
:1029C30001010D0100FF0E080000170200001901AC
:1029D30000FF1A0100011B0100FE1C0100081D027B
:1029E30000001F010001200100012102000023015A
:1029F300000F24020000260100012701000828021D
:102A030000FF2A0100072B0102402C0100002D01C9
:102A130000012E0100012F0100FF30010B1D3108C1
:102A230000003A0100083B01000F3C0100013D0199
:102A330000FF3E04000042040000460400004A0474
:102A430000004E04000052040000560400005A0423
:102A530000000000210100010021020000012366A3
:102A630000010123670002012368000301236900B9
:102A73000401216A000501216B000601212C0107D5
:102A830001212D010801212E010901212F010A0134
:102A93002130010B012131010C0121C8000D01215D
:102AA300C9000E0121CA000F0121CB00100121CC66
:102AB30000110121CD00120121CE001301213201A9
:102AC3001401213301150121CF001601213401170F
:102AD3000121D000180121D100190121D2001A01CE
:102AE30021D3000103710301030103010301030166
:102AF3000322030203010310030003000300030086
:102B0300030003000300034203000324030603003E
:102B130003000304031203250323032503230304F0
:102B2300030403000300030003440300030003231F
:102B3300030003650321003503810300030503003C
:102B43000300030003000325032303000003002005
:102B530001F681000000002001F78100000400421B
:102B6300014E81000005004201E58000000600429D
:102B7300014980000007002001F881000010004295
:102B8300035412000011002003BC0E0000120010B9
:102B9300036512030000002103BD0E0600000010B0
:102BA30001BF0E020000002901661201002000206F
:102BB30001681201017101010101011101010131DA
:102BC30001010101018001100161013B0014006357
:102BD3000173017201620143010001130106013D0A
:102BE300013500040112010001000100010001048C
:102BF300010401330133013C014401320136000079
:102C03000100016501000135008101000105018218
:102C130001830100010300710030016000110070A5
:102C230000310220035004800010006100000014F2
:102C3300006300730072006200430000001300068B
:102C4300000000000004001200000000000000006B
:102C53000004000400370037003C02440000000079
:102C63000000000000650000003500810000000541
:102C730000000083000000030271023001600211B2
:102C83000270020102020202028002100261023A91
:102C930000410063027302720262024302000213E4
:102CA30002380000020002040212020002000200C5
:102CB30002000204020402370037003C024402000F
:102CC300023900000200026502000235028102009F
:102CD30002050282028302000236000100060000A0
:102CE300000F0000000000000000000000000003CF
:102CF300FFFF00000403FFFF0000FFFF0FF40100CC
:102D030005C4040320000100000B000000000000C4
:102D1300000003010F00000000000000000000009D
:102D230000000000000000000000000000000000A0
:102D330000000000000000381974193E196C184493
:102D4300197A19441986194A196C1844197A1950B1
:102D5300196C1856196C185C196C1862196C186880
:102D6300196C186E196C18000000000000000000B8
:102D73000000000000000000000000000000000050
:102D83000000000000000000000000000000000040
:102D93000000000A00000002000000040000000818
:102DA3000000001000000020000000400000008030
:102DB3000000000001000000020000000400000009
:102DC3000800000010000000200000004000000187
:102DD300003E1C0200B41B0300BA1B0400C01B0509
:102DE30000C61B0600D21B1100EA1B1400F01B15C2
:102DF30000E41BFFFF000007ECFDFDFDECDCDCCC79
:102E0300BCACAC9C9C8C7C7C6C6C5C5C5C4C4C3C2F
:102E13003C2C2C1C1C03EAF5E5D5D5C5B5A5959529
:102E230085857575656555554545353525251515CF
:102E3300050A32220202220514220708220CEA2183
:102E43000DF621FF000000160F00000B150B02000A
:102E530002220F3300000E5A6967426565416C6CAC
:102E630069616E6365303901030507090B0D0F00B6
:102E7300020406080A0C0D303017181921301B1DE7
:102E83001F3000034A49434E181A25050200011951
:102E93001618161618230300303016181920231A93
:102EA3001C1E3000393D3F373C3C362C442D0C0E64
:102EB300020B040B0A0708000F02040201010101BF
:102EC300090200BE040AE80300000E00E8031E1E08
:102ED3000D040903030A100C0408280C0508040454
:102EE300C082C0831227C690105E74A4F0A3741F1F
:102EF300F090106074AAF0A3741FF090106274B085
:102F0300F0A3741FF090106474B6F0A3741FF00262
:102F1300662474F7120A64E9FE901052E4F0EE900E
:102F23001051F07C297D107A537B101218369012C1
:102F3300B5E090105BF090105C740EF0A37410F089
:102F4300121FDA02540474F0120A648A088B09EB24
:102F5300548070030230A1901051E0F91216928A46
:102F63000A8B0BAE0AAF0BEE4F7003023098125769
:102F7300FD707EEE241F125B4364137002A3E070A6
:102F8300708E828F83A3A3E0F50EA3E0F50F90105C
:102F93006C12602D750A00750B00800D123DD8125E
:102FA30067F712172EAA0CAB0DEA4B60448A828B8B
:102FB30083E0650E7004A3E0650F70288A828B831B
:102FC300A3A3A3A312581BE50A450B8A828B83A3F1
:102FD300A3A3A360C7124D5A850A82850B83A3A3BB
:102FE300A3A380BB8A0A8B0B8A828B8312602980FE
:102FF300B8EE242A125B43F9126BB090106C1242A4
:1030030071A3A3A3A3A3A3A3A3E0640270378A823B
:103013008B8312602D80078C828D831244D5EC4DF7
:1030230060208C828D83E06A7003A3E06B70E88C70
:10303300828D83A3A3E06970DE9012BB125197F0D7
:10304300804C121FF28E828F83E064017034EE2471
:10305300181230F5120F5E124BFB120D8EEE241276
:103063001230F5120F5E124BEF120F5A123CA012E0
:103073000D92EE2417124C03122814740A120F1C1B
:10308300800CE064027007EEFAEFFB122112EEFAF5
:10309300EFFB121680AA08E5096480FB8051EA540D
:1030A30002600C9012C97401F0EA6402FA8040EAEB
:1030B30054046009121FE0E50864048029EA5408F7
:1030C3006029121FEC8B0BEA450B701690106EE40F
:1030D300F0A3F0A3F0A3F07A08FB901051E0F912EB
:1030E30017FAE5086408FAAB0980047A007B00024A
:1030F300463F125807F50A780A2274F4120A648AC2
:10310300088B098A828B83126042124AEF38F58357
:10311300E02409FA7B0012167A8A0A8B0BAE0AAFF7
:103123000BEE4F70030231C18E828F837402F0A3C2
:10313300E4126F34A3A3A3A3E8F0A3E9126BD4A30F
:10314300A3A3A3A3A3A3F0E5082403F8E43509127A
:1031530062E5124AEF3AF58312426AF0EE2409FA65
:10316300E43FFB8E828F83A3A3126782F583888259
:10317300E0A2E58E828F83A3A3A3A3A350047401CB
:103183008001E4F0E5082403F88882898312602D26
:10319300EA124AE33BF5831231C4120F56EA2410B4
:1031A30012681D8E828F8312602B121656740312BF
:1031B3000F1CEEFAEFFB901051E0F9121686023A5B
:1031C300D8E0F508A3E0F509750A0078082274F23F
:1031D300120A648A088B09ECFAEDFB740E12124191
:1031E300E0FC1227668A0C8B0DAE0CAF0DEE4F6020
:1031F30030AC08AD0912277EE96026AC08AD09EEB4
:10320300FAEFFB122772E970148E828F83124D52EC
:10321300FAEFFB1227A8AA08AB0912274E79008000
:103223000279B48003120F1C7F06020C8D74EE1218
:103233000A6474F7120FD08A0A8B0BECFEEDFF754C
:103243000CB3750D00750E008002050E902EE1E49F
:1032530093F8E50EC398400302333FAA0E7B001296
:10326300272A8A088B09EA450960DF8A828B83A3B0
:10327300A3A3A3A3E0250DF50DF8C3E50A98E50B79
:10328300940050C67C157D007900EEFAEFFB121610
:1032930062850882850983A3A3A3A3A3E0F8E50AB3
:1032A300C3950D2825E0F8E433F9E50828F582E510
:1032B3000939F5831240401267F71222C28A0A8B3A
:1032C3000BAC0AAD0BEEFAEFFB12183685088285BC
:1032D3000983A3E06401700B124BFB7401127A772C
:1032E300A3803DAC18AD1985088285098312602B34
:1032F300122742E9602D7408121241E0C0E0124B1C
:10330300FBD0E0F07408121241E06403700CAC18B7
:10331300AD19124262121836800985188285198305
:103323001267EB850882850983124612A3A3126FE5
:103333000BC0E0124830D0E0F0750C00A90C740902
:103343000272A674F7120A64E9FE8A828B83A3A32E
:10335300A3A3A3A3E0540860338A828B83A3A3A30C
:10336300A3A3A3E0540260218A828B83A3A3A3A314
:10337300A3A3A3A3A3E06406600F74E96E600A74B9
:10338300CD6E600574F06E7003121FC20254047494
:10339300E8120A6474F8120FD0740612124112581C
:1033A300D1ECFEEDFF891775150012360812275A66
:1033B3008A0A8B0BEA450B70030235C4EE24101204
:1033C30043F7A90A121F028A128B13EA45137003EB
:1033D3000235C4EE2403F50CE43FF50DEE2406F5A7
:1033E30008E43FF5097C00850882124B47122754F5
:1033F3008A108B11850C82850D83E08512828513DB
:1034030083A3A3A31260C1851282851383A3A3A3FD
:10341300A3E8F0A3E9123CA8851282851383A3A332
:10342300A3A3A3A3A312588E851282851383A3A3F8
:10343300A3A3A3A3F0EE124AE33F123619120F56C9
:10344300EE124AEF3F126821851282851383A3127D
:1034530060251216567403120F1C7428121241129F
:103463004D5AE51212518935131267F5742A121257
:1034730041E0C0E0E512124AE33513F583D0E0F0F2
:103483007514007423121241E0F5167424121241CC
:10349300780C1211EA02354B851082851183126074
:1034A3002B12273C850882850983A3EAF0A3EB123C
:1034B300362AA3A3126BEC123624A2E6500F85081A
:1034C30082850983A3A3A3A3A3E0D2E1F0E515704A
:1034D30066850882850983124D599010A2E06870B1
:1034E30003A3E0697051850882850983A3A3A3120E
:1034F30044057510007810120F5E780C120F52E518
:1035030016F5107810120F5E7426121241120D92E6
:103513009010AF120D9279007410121241126BCCFD
:10352300122142740A120F1C850882850983A3A302
:10353300A3A3A3E04405F074012514FC123608127A
:1035430027548A108B110514E5104511604EC3E50D
:1035530014950AE4950B5044E51475F006A4F8A9F4
:10356300F0E51228F8E51339F9E8240FF508E439F2
:10357300F509850882F583E4127E9DE0640160030A
:1035830002349B75150185088285098374011236FF
:103593002A125AAEA3E8F0A3E90234B2AA12AB137B
:1035A300121F087812120F5AAD167424121241E03A
:1035B300FCA917EEFAEFFB121FBC7402120F1C805A
:1035C3003A8E828F83A3A3A3E0C0E0740312124157
:1035D300D0E0123CA8C0E07404121241D0E0F0E540
:1035E3000A450B7009740512124174B980077405FA
:1035F300121241741012683212213C7408120F1C0B
:103603007F10020C8D8E828F831260318E828F83A6
:10361300A3A3A3E0F922F58312581F750E00780CBB
:1036230022A3126C15E022127EA1A32274E9120ACE
:103633006474F3120FD08A0C8B0D89168C148D15BC
:103643007424121241125F29AA08FB121EF6E9F52F
:1036530013AA08AB09121EFCE51370030238757533
:103663000E00800F8E828F83A3A3A3A3A3E0D2E3D4
:10367300F0050E12483AE0F8E50EC398400302380D
:103683006CE513700302386CE50E75F006A4F8A917
:10369300F0E50828F8E50939F9E8240FFEE439FFD5
:1036A3008E828F83A3A3A3A3A3E0A2E040C3750FDD
:1036B30000750A08750B00E5156003750F207C087B
:1036C3007D007900AA18AB191216628E828F83E0EF
:1036D30060379010F2E064017017E50FD2E3F50F45
:1036E300750B108E828F8312389712621074FF80CD
:1036F30028430F0C750A0C8E828F83A312388DA377
:10370300A3A3A312729BA38010E5166009E50FD251
:10371300E6F50F750A0A123897F07402121241E5A2
:103723000FF0124AED350DF583E0C0E07404121278
:1037330041D0E0F07405121241126830122118745E
:103743000C121241E0600302384F74081212411246
:10375300608F8E828F83A3A3A3A3F07408121241F8
:10376300125843E50AF0A3E50BF01257F3E51412E0
:10377300362560119010F2E0C0E074081212411275
:103783005833D0E0F0740812124112485AA3A3A38D
:103793001238881257EA1258D11273061238881257
:1037A30057E1EAF0A3EB126E38C0E01257D7D0E02E
:1037B300126EFCC0E07408121241125329D0E012B9
:1037C3006AE5C0E0740812124112531DD0E0F07490
:1037D3000812124112388D12530C1239E012388834
:1037E300242CF582E439F5831258D1E50C12516982
:1037F300350DF583E0C0E0125304D0E0F0740812F5
:10380300124112602D850C82850D8312387F242886
:10381300F582E43B1267F5E50C124AE3350DF583B7
:103823001272B67512007810120F56124AED350D4A
:10383300126821EA126A623BF58312602D12165652
:103843007403120F1CAA18AB1912211E8E828F83C8
:10385300A3A3A3A3A3E0D2E0F0740C121241E0608F
:103863000302366715130236747900AA08AB0912EE
:103873001FC8740D120F1C7F0F020C8DA3A3A3A3EB
:10388300124D5EEA22126037E822124D5E850C82E9
:10389300850D8322A312389C221267B7E8F0A3E9AF
:1038A3002274EE120A6474E9120FD08A088B098914
:1038B3000A8A828B83A3A3A3A3A3A3A3A3E0F912DE
:1038C3001F208A0C8B0DEA450D700302396F125EBF
:1038D300F51244F0E50A60030239747C048508821A
:1038E300850983A3A3A3A3A3A3A3A3E0F9121F267C
:1038F300EE4F60788E828F83A3A3A3124D59740673
:10390300121241E8F0A3E9126BFBF8A3E0F9740883
:103913001212411258C4C0E07410121241D0E012C6
:1039230039E0124D59740E1212411267F7741112D5
:103933001241E41260B2C8241FF582E438F5831201
:103943005CF2C413135403FC70027C048E828F83D5
:10395300E0F9780C120F5A742059FD744059F97428
:1039630002120FA8121FBC7402120F1C74170272EA
:10397300A67C08850882850983A3A3A3A3A3A3A385
:10398300A3E0F9121F268B0FEA450F70030238F3E9
:10399300EE4F60D8E50AF50B780B120F5E850C82AB
:1039A300850D83A3A3A3A3A3A3A3E0F50B780B1215
:1039B3000F5E8A828B83A3A3A3E0FB8A82850F8396
:1039C3001244D88A82850F83E0FA8E828F83A3A361
:1039D300E0F912281A7402120F1C0238F7F0850C52
:1039E30082850D83A3A3A3A3A3A3A3A32274F71286
:1039F3000A6474FA120FD0E9FE7C017D017F008016
:103A0300037D000F125B38E0F8EFC3985028EF7581
:103A1300F006A4F885F008A908EA28F8EB39F9E8D4
:103A230024141264DAA2E050D8540C60D4E0A2E269
:103A330050D17C0080CD8A828B83A3A3A3A3A3A3AD
:103A4300E0703DEDA2E0400574016E70338A828B15
:103A530083A3A3A3A3A3A374011251D1E0C0E07471
:103A630003121241D0E01251C9E0C0E074041212F3
:103A730041D0E0F07405121241EC12683212213C7D
:103A83007406025401C082C0837901121FC8026602
:103A93002474F4120A64EA4B9012C96022E4F08A97
:103AA300088B09F50AF50B7808120F527A027B008E
:103AB300901051E0F91217EE7404120F1C800F746A
:103AC30001F07A027B00901051E0F91217FA800599
:103AD3007402120F1C7F04020C8DC082C0839012EB
:103AE30036E075F005A4FCADF079007AF77B05129A
:103AF30016627A00800A123C8174FEF0A304F00A75
:103B0300901236E0F8EAC39840EC026624C082C003
:103B1300837A007B0080037A010B901236E0F8EB86
:103B2300C3985056EB75F005A4F8ACF0EC123C9832
:103B33007003A3E0F460E274F728F8740539F9E838
:103B43002403F850010988828983E024FFF0A3E06D
:103B530034FF12633AF9E84970BDEB75F005A4F838
:103B6300ECF974F728F8740539F98882898374FEAF
:103B7300F0A304123EE8E4F0809FEAA2E05017901D
:103B83008189120D8E7A047B00901051E0F912178F
:103B9300EE7404120F1C02662474F7120A64EAFE20
:103BA300EBFF901236E07003023C78EE2411125BB7
:103BB300437003023C788E828F83A3126025122305
:103BC3003AE96402600F8E828F83A3A3A3A3A3E0C9
:103BD3007003023C787A008027123CA01244D91269
:103BE3003C81E06C7003A3E06D7014EE2412125B51
:103BF30043FC74F928F58274051264DD6C607B0A5A
:103C0300901236E0F8EAC39840CF7A0080010A9018
:103C13001236E0F8EAC3985061EA75F005A4F8ABF0
:103C2300F0EB123C987003A3E0F470E274F728F809
:103C330074053BF9123CA0126A92EAF0A3EB123C22
:103C4300A888828983123EE1740C12588E7A04FB91
:103C5300901051E0F9121800EA4B4C4D7017908107
:103C630089120D8E7A047B00901051E0F91217EE41
:103C73007404120F1C7901025404790080F9EA7567
:103C8300F005A4F8A9F0123C8D2274F728F582748C
:103C93000539F58322F9123C8DE064FE22EE126BA6
:103CA300A83FF58322F0127084E02274E8120A64BC
:103CB30074FC120FD07402121241E4F0A3F09010BE
:103CC3006C1244F0851882851983E4F0A3F075140F
:103CD3000190109CE0A2E35003023D641218128A83
:103CE300088B098C0A8D0B8A0C8B0D8C0E8D0F9013
:103CF300106E780C120FB8123DDF7810790C121188
:103D03008E50077A017B00023DD3850C14850D1577
:103D1300850E16850F17781479101209F5A814A9C2
:103D2300159012BBE0C398E4995003E08001E8F5D5
:103D330014123DDF780C79101209F5E4F512F5132E
:103D43007808791012109F90106E78081211DB809A
:103D530010123DD8125C29FAEFFB12172EAE08AFF2
:103D630009EE4F60638E828F83A3A3A3E0F8E5146B
:103D7300C3985029EE2403F582E43FF583A814E0A9
:103D8300C398F060217402121241124ED912589353
:103D9300EEF0A3EF126AEAFEA3E0FF80C48E828FE7
:103DA30083A3A3A3E4F08E828F83125F25851882F9
:103DB3008519831260AD8E828F83A3A3A3A3609121
:103DC3001267AF126300808C740212124112602DCD
:103DD3007404023600124D5E90106C229012B9E00A
:103DE300F510A3E0F511E4F512F5132274F2120AAB
:103DF300648A0A8B0BE9FE7A007B0090106C125FD9
:103E03002990106C1260AD601E0A850882850983B3
:103E1300A3A3A3A31260AD600E0AEA70010B880886
:103E23008909E8450970E39012BC124D5AC3EA9818
:103E3300EB994003023EDE7A067B001217288A0CB8
:103E43008B0DA80CA90DE8497003023EDE88828918
:103E530083E50AF0A3E50BF0EE88828983A3A3F040
:103E63009012BB126534A3123EE1A3E4F0A3F090D9
:103E7300106C124D6A600F850882850983A3A3A382
:103E8300A31267F7801F90106C1267F790109CE0E5
:103E9300A2E34011121812EAF8EBF9ECFAEDFB90E9
:103EA300106E12122A90109CE0A2E3502E7A087B27
:103EB30000901051E0F9121800EA4B4C4D701C9021
:103EC30012B91278DB7808120F527A087B0090102F
:103ED30051E0F91217F47404120F1C02322BA3A33E
:103EE300123EE8A3221264BFA3A322C082C083E9C7
:103EF3009012CAF09010667410F0A37420F0901022
:103F0300687422F0A37420F090106A7434F0A374E0
:103F130020F002662474F7120A64EAFEEBFF8908B4
:103F2300EE4F70031226CA9010721260AD700890A3
:103F330010728022124D5A88828983A3A3A3A3A35C
:103F4300A3A3A3A3124D6A88828983A3A3A3A3A3D4
:103F5300A3A3A3A370DEEEF0A3EF123F6FA3A3A36B
:103F6300E4F0A3123F6FE508F0025404123F7322FA
:103F7300123F7722F08E828F83A3A3A3A3A3A3224E
:103F830074F7120A64901072800D8E828F83A3A33C
:103F9300A3A3A3A3A3A3A31244F0EE4F60348E8282
:103FA3008F83A3A3A3A3A3A3A3E06970DD8E828F52
:103FB30083A3A3A3A3E06A7003A3E06B70CC8E82F8
:103FC3008F83A3A3A3A3A3A3E06C70BEEEFAEFFBBE
:103FD30080047A007B0002540474F7120A64901080
:103FE300721244F0901072123883687002EB697099
:103FF3001EE0C82409F582E438F583124D5A901067
:10400300721267F79010721244F080271244E3EEA5
:104013004F60208E828F83A3A3A3A3A312387F684C
:104023007002EB6970E68A828B83A3A3A3124040DC
:104033001267F712172EEEFAEFFB025404A3A3A3A1
:10404300A3A3A312484EA3A3A3A3A32274F0120A0B
:104053006474FA120FD08A088B098A828B83A3A314
:10406300A3A3A3A3A3A3E060336401602F8A828B7D
:104073008312602D12233AE9702285088285098311
:10408300A3A3A3A3A3A3A3A3E064037014740412C0
:104093000FB0AA08AB091220B2E9701679020242E6
:1040A3004B850882850983124D5A740412124112FA
:1040B30067F7127077243412676A1217288A0A8BFB
:1040C3000BAE0AAF0BEE4F70030242497C347D0006
:1040D30079001216627402120FA88508828509837B
:1040E300A3A3A3A3A3A3A3A3A3E0F91227CC7402BE
:1040F300121241E0C0E012425AD0E0F0EE242EF555
:104103000AE43FF50B7403121241E0850A82850B22
:1041130083F07901EEFAEFFB121FFE85080C850987
:104123000D750E00780C120F567C1E7D0012426234
:104133001216567403120F1CEE243212460824344E
:10414300F8E43FF98A828B831267F7E5082411F8B4
:10415300E43509F9E8FCE9FD8C828D8312584F247C
:10416300301267F1124600127B94120F568C828D27
:104173008312427112602D1216567403120F1C74AF
:104183000412124112484A1267F790105212426AFF
:10419300A3A3A3F0901052E004F01218128E828FA2
:1041A30083125887242C124B1C750D00850A8285B7
:1041B3000B83E0780C12114B8A828B83E50CF0128F
:1041C3004250E50C125893E4F0E508241512707B75
:1041D300A2E07401500712124174018004121241CB
:1041E300E4F0EE2429125F1CAA18AB191227F0E998
:1041F30024FE850882850983F0EE2430F8E43FF934
:10420300E8FCE9FD124279120815E88E828F83A338
:10421300A3A3A3A3A3A3A3F01242791208158B09A6
:10422300EA4509600F8E828F83A3A3A3A3A3A3A34D
:10423300A3E004F0EE2420125B434408124B6812FF
:1042430016BC790080027910740602463CEE242BDA
:10425300F582E43FF58322EE126A623FF58322EE94
:10426300240BFAE43FFB22126BDCA3A3A322124428
:10427300DD8A828B83228C828D83125AB2E0FA7B91
:10428300002274F4120A64EAFEEBFF1218121258A9
:10429300CD9012AFE0F8EE242D125B43C398400398
:1042A3000243E5124B287013EE242D125B430412D4
:1042B300462DE0C0E0124250D0E0F0EE242A125B1B
:1042C30043FC7900800109EE242E125B43F8E9C315
:1042D300985026750801750900E9780812114B12E8
:1042E3004B28550860E0E92CFC750801750900E9C5
:1042F300780812114BE04508F0EE24291243F7EE3B
:104303002430F582E43FF583EC8AF0A4F8ABF0E4C3
:104313002BF9E098F8A3E099F9C3E89AE99400EE41
:1043230040342429125B43F8124B28602F12425A5F
:10433300124405A3E4F0EC704AEE2420125B4344DC
:10434300201258C8C0E0125B61D0E0F0EE243212B4
:1043530043F7A3E0805212425174FFF0901092E0B1
:10436300FA9012B21243FCABF075F064A4FAADF00C
:1043730075F064EBA42DFB8E828F83A3A3EAF0A3D5
:10438300EB80B2EE2420125B4354DF125B5CECF053
:10439300FAEE2429F582E43FF5831243FCFAABF0ED
:1043A300EE1257D13F124B3EFB126EE0EAF0A3EB45
:1043B300126C04C0E0EE2425F582E43FF583D0E0DF
:1043C30012585FE812588E9010741260AD600BECB7
:1043D300F9127AAC12285BE9701712426212208834
:1043E300800F7BE912461E122820EEFAEFFB122003
:1043F3000A023AD8125807FA22E0F508EA8508F0CB
:10440300A422126BDCA3F02274F4120A64901072DB
:104413001244F01218128A0A8B0B78FF79FF80205E
:10442300E0C39AFCA3E09BFDC3EC98ED99500E8E7C
:10443300828F83A3A3E0C39AF8A3E09BF91244E31A
:10444300EE4F605C8E828F8312602DE50AC39AFA69
:10445300E50B9BFB8E828F831244D7C3EA9CEB9DB3
:104463008E828F83A3A340B8A3A3A3A3E0640270A7
:104473001AEE240B124B2B6009124B0312602D1200
:104483001680EEFAEFFB12200A8007EEFAEFFB121A
:1044930020167A017B009012CAE0F91216BC80291B
:1044A30074FF68700374FF69601F88088909E4F565
:1044B3000AF50B7808120F527A017B009012CAE0BA
:1044C300F91217EE7404120F1C023AD8A3A3A3A384
:1044D300A3A3A3A3A3A31244DD22E0FCA3E0FD2234
:1044E3008E828F83A3A3A3A3A3A3A3A3A3E0FEA36B
:1044F300E0FF2274F0120A648A088B09ECFAEDFBE0
:10450300890A7C01127077F91220048A0C8B0DAE94
:104513000CAF0DEE4F70030245FEE50A6003024542
:10452300FE1246001246166860030245FE1246005C
:10453300E0FAEE242E125B43F8EA28FAE43400FB97
:104543008E828F83A3A3A3A3A3A3A3A3E0F8EA98D4
:10455300EB9400C365D033401CE508241412707B30
:10456300F470127B0012461E122820EEFAEFFB12A3
:10457300200A0245FEE508241412707BF47041EE14
:10458300242B124608242EF8E43FF9E8FCE9FD75D4
:1045930008FF7509008C828D83E0780812114B8A1D
:1045A300828B83E50812462DE508F08C828D8312F9
:1045B300461628F0EE242DF582E43FF583E4801BB4
:1045C300E5082414F8E43509F9E0C0E0124632D0D6
:1045D300E0126336C0E0124250D0E0F01218128E9F
:1045E300828F8312588712425B124612A312588E8F
:1045F3007A01FB9012CAE0F91216BC803FE5082449
:104603001312484222F8E43FF9E8FAE9FBEE2212DA
:104613006BDC22E0F8EE1264C5E022EE242212588D
:1046230007FAEE2414125807F922F012463222EE4A
:10463300242CF582E43FF58322120F1C7F08020C21
:104643008D74EC120A6474FE120FD08A0A8B0B8CE1
:104653000E8D0F89108A828B83A3A3E0F91227FCA6
:104663008A088B09AE08AF09EE4F70077A007B000A
:104673000248267A127B001217288A088B09EA451A
:104683000970030248227C127D007900121662AA87
:1046930018AB19850A82850B83A3A3E0F91227CCF3
:1046A300E508240FF50CE43509F50D7401121241E8
:1046B300E0850C82850D83F07902AA08AB09121FED
:1046C300FE850E82850F8312485A124868124ADC0F
:1046D300126BE3F07512FF751300850C82850D8351
:1046E300E0781212114B127306E512125335127A47
:1046F300AAE0C0E012483AD0E0F0124AF9F50CE51E
:1047030008240D12730AE50CF0E50A124B0B850C15
:10471300F0A4A9F02427FAE439FB12167A8A0C8B49
:104723000DAE0CAF0DE508126DF8EEF0A3EFF0EE51
:104733004F70030248158E828F83741A12588E8E1F
:10474300828F83A3A3F0A312486E12484A1267F71D
:10475300AC0EAD0F126EEA1227D2850A82850B8347
:10476300A3A3A3E0C0E0125CE4D0E0F09010AF128A
:10477300584F241012486212583D350B12584D12EF
:104783006814E8F0A3E912486EA3A3A3A312584F39
:1047930024121267F1850A82850B83A3A3E0C0E08C
:1047A300124830D0E0F0E50A125189124B17E0C0ED
:1047B300E0126B9BD0E0F07416121241126E12C01D
:1047C300E0127065D0E0126BF6C0E0126DFED0E02F
:1047D300126E1BC0E0126E08D0E0125854E510F0C0
:1047E300741812124112121EEE241AF582E43FF5D8
:1047F3008312122AEE2427F8E43FF9EE242212480A
:1048030062126762124B17E0C0E0126EF2D0E0F062
:10481300800DAA08AB0912200A750800750900AAC1
:1048230008AB097402120F1C7F0C020C8DEE2414CA
:10483300F582E43FF5832212483E22E508240BF576
:1048430082E43509F5832212484E22126F948E8238
:104853008F83A3A3A3A322125AB2A3A3A3A322F5D4
:1048630082E43FF5831258BEE50A22F0850A828569
:104873000B83A3A3A3A3A3A32274ED120A648A0A3E
:104883008B0B8C108D118912750900EA124B0BF5F5
:10489300089010741260AD600EA908127AAC122849
:1048A3005BE96003024AD77C02851082851183127B
:1048B300602DE50A124ADCE0F91220048A0C8B0D04
:1048C300AE0CAF0DEE4F7054850A82850B83A3E0C7
:1048D300A2E04003024AD77415121241120D8E74DE
:1048E30017121241120D92A912AC10AD11AA0AAB04
:1048F3000B1220287406120F1C8A0C8B0DAE0CAF02
:104903000DEE4F7003024AD78E828F83A3A3A3A316
:10491300A3A3A3A3E508124B681216BCA8088E82B2
:104923008F83A3A3A3A3A3A3A3A3E024FFFAE43445
:10493300FFFBEA684B7003750901EE240B124B2B46
:104943007003024A8C850A82850B83A3E0A2E050A0
:1049530003750800124B55E5089AE49BC365D033F1
:10496300401CE0F8EE240E125B4328F0750CFF7533
:104973000D00E8780C12114B126656E50CF0E50AAF
:10498300124AE3350B123619120F56E50A124AEF93
:10499300350B126821EE240D125B43F50CE50885F7
:1049A3000CF0A4FAABF0124B031260452422F582FB
:1049B300E438124B3EFB1216567403120F1C750C8F
:1049C30001124B30780C12114B125B40450CF0E591
:1049D30009A2E05063EE240C124B1C124B300478F6
:1049E3000C12114B8A828B83E0450C125872850896
:1049F3000C850CF0A4F8A9F0124AF9FCE82CFCE4AD
:104A030039FD124B031260452420F582E438F58307
:104A1300ECF0A3ED12589FF4701EEE240BF50CE49A
:104A23003FF50DEE124AEF3F124B47121686850CE7
:104A330082850D8374FF80501218121258CD901086
:104A430092E0FA9012B2E0F50CEA850CF0A4FAAB0E
:104A5300F0F8EBF99012AFE0F50CE8850CF0A4F850
:104A6300ACF0850CF0E9A42CF9EA28F8EB39F9E865
:104A730075F064A4F8AAF075F064E9A42AF98E82AB
:104A83008F83A3A3E8F0A3E9F0A808124B55EA2407
:104A9300FF1AEB34FFFBEA687001EB600EEE240CA7
:104AA300124B2B6006E509A2E05029E50A124B10D0
:104AB300ECF0125B40C0E0E50A2414F582E4124BEB
:104AC30017D0E0F0AC0AAD0B85108285118312601C
:104AD3002D1220767F0B020C8D125169124B172277
:104AE300124AE722240EF582E422E50C124AF3224D
:104AF3002410F582E422E50A124AF3124B17E0224E
:104B0300EE124AF33FF58322124B10E02212516357
:104B1300124B1722350BF58322F8E43FF9E8FAE943
:104B2300FB750CFF22EE242B125807F422750D009F
:104B3300125804F5F0E50884E5F022F583E02AFA3B
:104B4300A3E03B22F583126037850C82850D83E059
:104B5300F922EE240E125807FC125804FAEC2AFA32
:104B6300E43400FB22F07A017B009012CAE0F922C0
:104B7300C082C0839012CAE0F912168602662474BA
:104B8300F4120A648A088B09EB5480703BEAA2E0B2
:104B9300505312201CE5086401FAAB09804B8E8246
:104BA3008F83E06401701A124BFB120D8E124BEFD0
:104BB300120F5AEE2412124C0312202E7406120FF7
:104BC3001CEEFAEFFB1216809012CAE0F91216924D
:104BD3008A0A8B0BAE0AAF0BEE4F70C2AA08E50927
:104BE3006480FB80047A007B00023AD8EE240FF540
:104BF3000AE43FF50B780A22EE1251633FF5832254
:104C0300125807F9EE2402FCE43FFDEE2419FAE4FE
:104C13003FFB2274F1120A64890A8A088B098A828B
:104C23008B8312602D1220468B0DEA450D600579AA
:104C3300B8024CBE122052E9F8902ED9E493F9E859
:104C4300C399400479B280737A157B001217288ABE
:104C53000C8B0DAE0CAF0DEE4F70047910805C8E93
:104C6300828F83E4F0A3126C10A3E50A126E2B1259
:104C73000F567C127D00EE2403FAE43FFB12165616
:104C83007403120F1C9010761260AD9010767006AC
:104C9300EEF0A3EF801FE0FAA3E08003E8FAE9FB5C
:104CA3008A828B831260AD70F3EEF8EFF98A828B00
:104CB30083E8F0A3E9F0122064790002621BC0824A
:104CC300C08390107680048C828D831244D9EC4D7E
:104CD30060288C828D83A3A3E069600574FF6970EB
:104CE300E68C828D83A3A3A3E06A7003A3E06B70B9
:104CF300D6EC2403FAE43DFB80047A007B000266D1
:104D03002474F7120A64E9FD74FE6D70047C01805B
:104D1300027C0090107680096D70027C0188828984
:104D2300831260AD601F88828983A3A3A3E06A70A6
:104D330003A3E06B70E7ECA2E088828983A3A3E07E
:104D430050D6F9800279FE025404EEF9025203A30D
:104D5300A3125F2DEE22A3124D5E22126F94221234
:104D63000F1C7F03020C8D126037EA4B22C082C0F6
:104D730083790090107680010912602D8A828B83DB
:104D8300E582458370F202662474F6120A64E4F540
:104D930008F5097808120F5A902ED9E49375F01389
:104DA300A4A9F0124ECE1217A07402120F1CE9FE32
:104DB300600312205E024D4D74F6120A6474FE12F3
:104DC3000FD0851882851983E4F0A3F0A818A919D8
:104DD300880889097808120F5A750802750900783E
:104DE30008120F5A7C007D007A427B001217AC74C4
:104DF30004120F1C0251FE74F5120A6474EB120FB5
:104E0300D0851882851983E4F0A3F0901076E0FE34
:104E1300A3E0807E8E828F83A3A3E0C0E07402129E
:104E23001241D0E0126210A982AA8389088A097507
:104E33000A007808120F567C127D00740612124184
:104E4300AA82AB831216567403120F1C7402120F3C
:104E5300A0880889097808120F5A75081375090084
:104E63007808120F5A7404121241125F3975F01345
:104E7300A4F8AAF075F013E9124ECA1217AC740421
:104E8300120F1C851882851983124ED9126F89E877
:104E9300FEE9FFEE4F6003024E17A818A919880810
:104EA30089097808120F5A750802750900780812E3
:104EB3000F5A7C007D007A427B001217AC740412F7
:104EC3000F1C7415024D62A42AF9E82402FCE4398C
:104ED300FD7A427B0022E02401F0A3E03400227437
:104EE300F4120A6474EB120FD07E007F00A818A995
:104EF30019880889097808120F5A7508028E0978EB
:104F030008120F5A7C007D007A427B001217B2749C
:104F130004120F1CE9706E8E0880587402120FA0E1
:104F2300880A890B780A120F5A750A13750B0078D1
:104F33000A120F5AE50875F013A4F8AAF075F013D6
:104F4300E509124ECA1217B27404120F1CE9701B42
:104F53007403121241AA82AB837402121241E0F964
:104F6300122040E970050EEE70010F0508E5087088
:104F7300020509851882851983124D5AC3E50898DD
:104F8300E509994096EEFAEFFB7415023AD574F6EB
:104F9300120A648C828D83A3A31251BFF0EA2417F3
:104FA300F582E43BF583E0C0E012518FD0E0F012CC
:104FB300516F124D5A1251791251BFA3F0A3F0EA67
:104FC300241FF582E43BF5831244F0EC12583D3D77
:104FD300F583EEF0A3EFF0EA1266503BF58312512E
:104FE300A0A3A3A3A3A3A3EEF0A3EF126336FE8CA7
:104FF300828D831251E974035EFEC394034003025E
:105003005156EE600574026E70798C828D83E05484
:105013000CFE740C6E70030250C3E0A2E4400D88D2
:10502300828983E08C828D83A31251F174086E60B0
:10503300030250C31251817401F08A828B83A3A3AC
:10504300A3A3A312620A70148C828D83E0440C1212
:1050530051C9A3A31251A0EEF0A3EFF08C828D836C
:10506300E0A2E4401E1251AE1251DA50010912516E
:10507300AEA3A31251DA5001098882898312519792
:105083001251E988828983E0C0E0EC1251693DF551
:1050930083D0E01251E98C828D83E0A2E7507888B7
:1050A300828983E0FE8C828D831251F174FC5E70E1
:1050B3000C8C828D83A3E054036403701B0251564E
:1050C300125181E4F0740C6E600302503D1251AE34
:1050D3001251DC50870980848C828D83A3E05403B2
:1050E300603888828983E0C0E0EC1251633DF58328
:1050F300D0E01251F28C828D83E054036402701A63
:1051030088828983E0C0E0EC2414F582E43DF583D2
:10511300D0E01251F28003A3E4F0EC124AE33D1213
:1051230067F5EC2410FEE43DFF12516FE0F5088EA5
:10513300828F83E0C3982508F508F0EA24171267E5
:10514300A5C39508C0E0125179D0E0126336C39528
:1051530008500A125179E4F012518FE4F00252031D
:105163002413F582E4222411F582E422EA241DF5B6
:1051730082E43BF58322EC1266503DF58322EC1268
:1051830051893DF58322240CF582E422EC124AF383
:105193003DF58322E08C828D83A3A3A322E0FEA3AB
:1051A300E0FF8C828D83A3A3A3A32288828983E05B
:1051B300F508A3E0FFE5088C828D8322E4F08C825E
:1051C3008D83A3A3A3221251D1A3A3A3A322F08A65
:1051D300828B83A3A3A322A3A3A3A3A3A3F0A3EFDD
:1051E300F0E82402F8221251F9A882A98322A3121B
:1051F30051F908A983221264BFA3227402120F1C5F
:105203007F02020C8D74F4120A6474F3120FD08AB5
:105213000A8B0BECFEEDFF8E828F83E0540CF508B6
:10522300E0A2E75006E508D2E7F508E508D2E1F584
:105233000812620A7006E508D2E4F508E0A2E55018
:1052430006E508D2E5F5087C087D007900AA18ABCD
:10525300191216627402121241E508125335C0E0A6
:105263007403121241D0E0125893E50AF0A3E50B40
:10527300F07405121241126830122118740C1212C4
:1052830041E0707874081212411260451267623867
:10529300126C1BC0E07408121241125329D0E012A1
:1052A3006AE5C0E0740812124112531DD0E0F07495
:1052B3000812124112682812530C1258C812587A55
:1052C3002411125B43C0E0125304D0E0F0EE241427
:1052D300125B43C0E074081212411260452435F595
:1052E30082E438F583D0E012586AC0E074081212E1
:1052F30041125827D0E012683212211E740D023A6F
:10530300D5E81257D139F58322126031E8242AF502
:1053130082E439F583EAF0A3EB22126ADB2427F552
:1053230082E438F58322126ADB2426F582E438F519
:105333008322126C10E02274F7120A647E008A82C0
:105343008B83A3A3A3A3A3A3A3A3A3E064046003E6
:105353000253E61260C6E060030253E61253EA3BCF
:105363001260AB607E88828983E054037075E82401
:105373000C1264DAFA8C828D83A3A3E0FBA3E0CB47
:105383001251693BF583E06A705988828983A3A32C
:10539300A3A3A31253F5E06A7003A3E06B704488E0
:1053A3008289831253F5A3A31264EF2406125B438D
:1053B3006A7003A3E06B702B88828983A3A3E0F850
:1053C3008C828D83A3A3E0F9A3E0F5838982A3A351
:1053D300E068600D8C828D83125CF0540C64047061
:1053E300027E01EEF9801AEA1253EF22240FF582AE
:1053F300E422A3A3A3A31260378C828D8322120F0E
:105403001C7F01020C8D74F6120A6474FC120FD017
:10541300EAFEEBFFECFAEDFB8A828B83A3E05403F5
:1054230060169010681260AD60597900EEFCEFFDD4
:10543300127AAC12285B804B851882851983EEF0B3
:10544300A3EFF074021212411258D1AC18AD197ABD
:105453007C7B201222748A088B09A808A909E849D1
:10546300602188828983A3A3A3A3A3A3A3A3A37473
:1054730006F07A0088828983126045126A71E0F926
:105483001221DE740402520074F2120A6474F312DD
:105493000FD0EAFEEBFF8E828F83A3A3A3A3A3A364
:1054A300A3A3A3A3E0F50A9012C9E0700579BA0299
:1054B30057CC750801750900750C00750D007C0843
:1054C3007D007900AA18AB191216627405121241F5
:1054D30074011258A6540460127402121241E0D2ED
:1054E300E61258A654087003750803E054106006CA
:1054F30074404508F508E054086022740212124112
:10550300E044C01258A65420600A7403121241E00A
:10551300D2E080087403121241E0D2E1F0EE2415C8
:10552300125B4312580F70037401697006740845C7
:1055330008F5088E828F83A3A3A3A3A3A3A3A3E049
:1055430070161222C88518828519831258D17402E5
:10555300121241E0D2E2802C640F70107402121216
:10556300411258AE74044508F508807B8E828F8300
:10557300A3A3A3A3A3A3A3A3E064028E828F837038
:1055830006123898F08060A3A3A3A3A3A3A3A3E068
:105593006403700DAC18AD19EEFAEFFB1220B28064
:1055A300468E828F83A3A3A3A3A3A3A3A3E0640133
:1055B30070359010F2E0601074021212411258AE6E
:1055C300750910750AFF80187402121241E0440C29
:1055D30012589374FDF0A374FFF074044508F508A2
:1055E3008E828F8312581BEE2415125B43A2E05068
:1055F3003F7402121241E0540C701B8E828F83128F
:10560300602D121CF8E9700579BB0257CC740212A5
:105613001241E0D2E5F0EE2415125B43A2E05010F4
:105623007402121241E0540C64047004E0D2E5F0F9
:10563300EE2411125B43C0E07404121241D0E01255
:105643006832122118740C121241E060030257C52C
:105653007408121241125843E508F0A3E509F0EE6D
:105663002418125B43C0E01257F3D0E0125854E001
:10567300C0E0740812124112604512516338F58379
:10568300D0E01258C8640170119010F2E0C0E074C9
:1056930008121241125833D0E0F07408121241126A
:1056A300584F24171243F7E81257EAEA12588EEEBE
:1056B3002415FAE43FFB8A828B831244D9E81257FC
:1056C300E1ECF0A3ED12585FE0C0E01257D7D0E051
:1056D30012589F12580F70037401697013740812E3
:1056E300124112608FFAEE241D125B43F9121F2C34
:1056F3008E828F83A3A3A3A3A3A3A3A3A3E0C0E04A
:105703007408121241125329D0E0F07408121241A6
:1057130012531DE50AF07408121241125F3924284E
:10572300F582E439F583E50CF0A3E50D125872FA1E
:10573300A3E0FBE8242A125881240F125B4312587A
:105743007A2417125B43C0E0E82433F582E439F589
:1057530083D0E0F01257FDC0E074081212411258D2
:1057630027D0E0F0EE241A125B43C0E07408121253
:10577300411260451257D138F583D0E012586A12AE
:1057830031C5120F56126DF01244D9740B12124127
:10579300126BB8FAA3E0FB1216567403120F1CEE39
:1057A3002415125B43544060129010821260AD6066
:1057B3000AAA18AB19127AAC12285BAA18AB1912F1
:1057C300211E740C121241E0F9740D0232282432A6
:1057D300F582E422E82420F582E439F58322241EAD
:1057E300F582E439F58322241CF582E439F583221A
:1057F300E82412F582E439F58322EE241B125807BC
:1058030022EE240FF582E43FF583E0225480F8A3CF
:10581300E05401F97480682212581F22E0F50CA3AA
:10582300E0F50D22126ADB2434F582E438F5832295
:10583300126ADB12583D38F583222415F582E422DF
:10584300125F3D1253EF39F58322F583124D5EEE5D
:1058530022F0EE2419F582E43FF58322F0EE241CB6
:10586300F582E43FF58322F0EE241312580722F069
:10587300EE240D12580722FAA3E0FBE8242CF5824C
:10588300E439F583EAF0A3EBF0EE22F0A3E4F0228F
:1058930012589722F085188285198322F08A828B09
:1058A30083E022F0EE241512580722E0D2E3126FB0
:1058B3008D1258B822851882851983E8F0A3E9F080
:1058C30022E8F0A3E9126AC5E0228E828F83EAF010
:1058D300A3EBF02274F7120A647E638A828B83E05F
:1058E300600C79051221A8E9F87456C398FE90104C
:1058F3009AE0600CF91221A8E9F8EEC39824F2FEAD
:105903000253E674F6120A6474FE120FD0851882ED
:105913008519831258D1E9FEECFAEDFB90030412CA
:1059230060AD6035A818A919880889097808120F8D
:105933005A7D01740E121241E0FCEEF99003041239
:105943006A8D12285B7402120F1C8B09EA450960E9
:10595300047900800679B2800279B60251FE74F7A9
:10596300120A64E9FE90105E1260AD601F740912A2
:105973001241E0F5087808120F5EEEF990105E12FE
:105983006A8D12285B7401120F1C800279B60254CF
:105993000474F7120A648908ECFEEDFF79B5E50893
:1059A300245E601F14600624F86033803C90030675
:1059B300124D6A6034900306126A8D12285B1258E6
:1059C300CD80249010601244D9EC4D601CEEFCEFA6
:1059D300FD901060126A8D12285BE9F9800B90101C
:1059E3005C126BCC121836790002540474F7120A55
:1059F30064E9FE79B574AB6E700B90105C12602D88
:105A0300121836790002540474F2120A648A088B5D
:105A130009ECFEEDFF750A019010A2E06508700421
:105A2300A3E0650970141222C28A088B09AC08AD81
:105A330009EEFAEFFB121836802A1222CE8A0C8B5B
:105A43000DE508650C7004E509650D7009EEFAEFC4
:105A5300FB1222D4800EEEFCEFFDAA08AB09121E46
:105A63001EE9F50AA90A02322B74F2120A64EAFE4D
:105A7300EBFF8C088D09750A011222C28A0C8B0D6B
:105A8300AC0CAD0DEEFAEFFB121830E96401700BAC
:105A93009010A2125AAE1267F7800EAC08AD09EE51
:105AA300FAEFFB121E24E9F50A80B9125AB2221248
:105AB3006F948508828509832274F6120A64EAFECC
:105AC300EBFF7A0D7B00121728EA4B6065EE242466
:105AD300126FB4F0EE2425126FB4A3125B5C126F45
:105AE300BAA3A3126E20125B47F0EE242A125B5076
:105AF300125C25242C125B50125C23242EF582E4C5
:105B03003FF583125B47A3A3A3A3A3F0EE243312B1
:105B13005B43C0E0125B38D0E0126C1F125B53A3EF
:105B2300A3A3125C232432125B43C0E01260C6D0ED
:105B3300E0F0025203EA126BA83BF58322EE240C39
