:020000040000FA
:060000000211BD0207C55C
:03002B00020F2C95
:030053000206F4AE
:10008300020756010100F0FF0700080000FFFF0010
:10009300000504000000030001FF0020FD0002062C
:1000A300FFFF1E01001A12000000010100000007FB
:1000B3001B0000131B0000000000000000000010E4
:1000C300202020202020202020202020202020202D
:1000D300010104010C000105CA8001F6810104003D
:1000E300005912000000581B0000FFFFAA120188EC
:1000F300130000581B000064006400B801A0BB0D8E
:1001030000A0BB0D00020202070401051E02051E2A
:10011300020A0A010108080103B80B02803E01022A
:10012300FEFFE8030A050001FFFF020A011401E0D4
:100133000200000005030101FF0FA72C00000000CF
:10014300DD2B00000000FF000000FF001212096019
:10015300461211CD603DE9687008F618F618F618D6
:10016300F622748067F7120183090909748067F71F
:10017300221211CD601D1212097005191919801A66
:100183001210E1701F1210CDC37003E66733191903
:100193001940071818182208080874FFF618F618EB
:1001A300F618F6221210CD601712126A702192F01F
:1001B30012127C7019501720F01408080809090955
:1001C300E7F61819E7F61819E7F61819E7F62212F1
:1001D300127C60E6E869701F0808E62480F608E4EC
:1001E30036F618547FB47F0CE654806007F6E418A3
:1001F300F618F622181822E9C6CC08C6CD08C6CED2
:1002030008C6CFC0E0E8C0E0EAC0E0EBC0E009E91F
:10021300F809E7FA09E7FBE6F918E6F8C3EC98ED05
:1002230099EE9AEBC2E7F5F0EFC2E795F0500E6056
:100233000CEBCFFBEACEFAE9CDF9E8CCF8EAA2E77A
:10024300D2E7FAEB33FB13F5F0EEA2E7D2E7FEEFCA
:1002530033FFC5F013A2E730E601B313C5F0C3C003
:10026300E0C0F07F00C39BFB605E9418600F401DED
:1002730014601AD0E023F9D0E0F80203558AF0E9BC
:10028300486003D2F0E4AFF0FAF9F8803BEB30E4D6
:100293000D89F0EA6003D2F0E4AFF0F9CAF8EB306D
:1002A300E30D88F0EF6002D2F0AFF0E4CAC9F8EBD7
:1002B30054076014FBC3EA13FAE913F9E813F8EFE0
:1002C300135002D2E0FFDBEDD0E0C0E030E739C3EA
:1002D300E49FFFF5F0EC98FC42F0ED99FD42F0EE5F
:1002E3009AFE42F0D0E0F9D0E0F8E5F0607AE92335
:1002F300F9EE20E742D8028067C3EF33FFEC33FC0B
:10030300ED33FDEE33FE80EAEC28FCED39FDEE3AE9
:10031300FED0E023F9D0E0F84002801BC3EE13FEC9
:10032300ED13FDEC13FCEF135002D2E0FF08B8000D
:10033300067F7F74FF802EEF3350178CF020F0027E
:1003430060100CBC000C0DBD00080EBE000408E8D4
:1003530060DFE933E813FFEE2313FE4F4D4C8008B3
:10036300E95480FFE4FEFDFCEE33EF33F47004FC4C
:10037300FD7E80D0E0FBD0E0FAD0E0F8D0E0CFC63D
:1003830018CEC618CDC618CCC6F9221211CD7004EA
:1003930018181822121209700D74FFF61819F6189E
:1003A30019F61819F622E7548066F612127C700FBC
:1003B30012126A70F014F608F608F608F680D112E5
:1003C300126A700CF608F608768008E6447F80EC23
:1003D3001210D0700C1210E460BFE65480F6E48073
:1003E300BB1210E4700519191980A5E869700C7621
:1003F3003F18768018F618F6E8F922E6CDC0E01823
:10040300ECC0E0E633CD33CDD313F6E719FCE7199F
:100413001933CC33C3947F400ECD9D502408E6544A
:1004230080F6E418F6800FF4043D14501408E644F3
:100433007FF6187680E418F618F6D0E0FCD0E0FDDD
:1004430022CCD313CCFD18E4C6CBC0E018E4C6CA53
:10045300C0E00808ED08C633E613F618E433C675A2
:10046300F003C3CA97CA09CB97CB199C40047D08F4
:10047300802EBD000302053716B6FF0506060816D3
:1004830018C3CA33CACB33CB33CA27CA09CB37CB3A
:10049300193CC37D08803E187D0820E75CC633C63F
:1004A300CA33CACB33CB33DDF1D5F0EB30E77BCAAC
:1004B30097CA09CB974ACB199C406F4B7025E6200E
:1004C300E0218066187D08C3CA97CA09CB97CB1968
:1004D3009CD3C633C6CA33CACB33CB3350C9DDE74B
:1004E300D5F0E1D3E4C636C608C636C608C636C656
:1004F30008C636C61818188031C3CA97CA09CB97DD
:10050300CB199CB34097C633C6CA33CACB33CB335C
:10051300DD34D5F02EC6A2E0C640C8CA27CA09CB2F
:1005230037194A70BECB3CB480B90808E63308E6F5
:1005330033601F181818D0E0FAD0E0FBD0E0FCD0ED
:10054300E0FD22187D08CA27CA09CB37CB193CD353
:10055300808013F618E4B67F11F618B6FF0EF6186E
:10056300C60470D20808768080CAF618F618F6809A
:10057300C5001211CD604F1212096012E754806654
:10058300F61210E1701112126A703B090909F4F6B0
:1005930018F618F618F6221210CD701512127C08F0
:1005A300080860EAE6447FF618768018E4F618F641
:1005B3002212127C601612126A7012E4F608F60810
:1005C300F608E65480F609090918181822EAC0E06B
:1005D300EBC0E0ECC0E0EDC0E0E687F0A4FBACF0DC
:1005E30008E687F0A42CFCE435F0FA1809E687F056
:1005F300A42C4B60027401CA35F0FCE433FB09E61A
:1006030087F0D2F7A42CCB35F0FC1908E687F0A4C9
:100613002BCC35F0FBE433FD0819E687F0D2E7A4D1
:100623002C4ACB35F0CD3400FC09E687F0D2E7A4A1
:100633002DCC35F0FDE433FA0918E687F0D2F7A4A0
:100643002CCD35F0CA3400FC08E687F0D2E7D2F7A8
:10065300A42ACC35F07A7E20E70B0ACB33CBCD33FB
:10066300CDCC33CC33CB3350147004ED30E00ED209
:10067300F1E4CD3DCDCC3CCC3B5005DA05C2F1EBEA
:10068300547FC63308E63392F0FBE73309E733C3FD
:100693009A502D2B70190C0D4C4D70151806E60849
:1006A300C333700D20F10AA2F013F6E418800B4057
:1006B30024E4F630F002768018F618F618F6802453
:1006C300D33B14501074FFA2F013F6187680E4188D
:1006D300F618F6800FA2F013F618E63303F618ECBB
:1006E300F618EDF6D0E0FDD0E0FCD0E0FBD0E0FA68
:1006F30022C0E074F1120B4BA2AFE433F509D2AF81
:1007030085A708AFA1EF5508FE74105E60061214AA
:10071300AD75A1EF74085E60081214B375A1F7807C
:1007230024EFA2E092F0E508A2E082F05017906176
:1007330098E0F89004C4E0C398A2D265D033500285
:10074300E8F075A1FE751A00E509A2E092AF7F02F9
:10075300020BAAC0E074F2120B4BA2AFE433FED239
:10076300AF9061A4E0F8759B00E5915854086008C8
:100773007591F71215018023E5915854106008759F
:1007830091EF1215078014E591A2E092F0E8A2E040
:1007930082F05007E0C2E0F012165D9061A3E0F82A
:1007A300E5E9585404600E12163375E9FB90619322
:1007B300E0A2E640F2751A00EEA2E092AF7F0102DA
:1007C3000BAAC0E074F2120B4BA2AFE433FED2AF1C
:1007D3009061A5E0F8E5BF585404600675BFFB12AD
:1007E300167580D1C3E498F8E499F9120828802695
:1007F300C3E49AFAE49BFBE920E7E9120828E498AA
:10080300F8E499F922C3E498F8E499F9120828E482
:1008130098F8E499F9C3E49AFAE49BFB22EB20E706
:10082300CFE920E7E0B90010BB0008E88AF084F8BC
:10083300AAF022E4FBC8FA22EB70227B10C833C86B
:10084300C933C9335007C39AC3DBF280069A5001F8
:100853002ADBEAC833F4C8C933F4C9FA2275F008AD
:10086300E4C833C8C933C933C99AC99B5004C92AD8
:10087300C93BD5F0ECFBC833F4C8E4C9FA2212082B
:10088300C120F01430E72B74FFFCFBFA747F802245
:10089300E4FCFBFA7480801AB48008BC00F2BB004D
:1008A300EF800F50EBF9E4C39AFAE49BFBE49CFC62
:1008B300E499C6CC18C6CB18C6CA18C6F922E4C92F
:1008C300C608CAC608CBC6D3330308CCC63392F0D6
:1008D300C3947F402E94184019C9B90704CACBCCDE
:1008E300225025C309CA33CACB33CBCC33CC33D93B
:1008F300F422F4600DC9CCC313CB13CBCA13CAD9EA
:10090300F6CC22E4FCFBFA2214FCFBFA22080808CA
:10091300EAC0E0EBC0E086F0E7A4FA180986F0E746
:10092300A42AFA180986F0E7A42AFA180986F0E738
:10093300A42AFA1986F0E7A4FBE5F02AFA19088637
:10094300F0E7A42BFBE5F03AFA190886F0E7A42BAD
:10095300FBE5F03AFA18180986F0E7A4C5F02BFB7B
:10096300E43AFA1908E7C5F0C6A426F6E5F03BFB1E
:10097300E43AFA1886F0E7A4F6E5F00826F6E43B35
:1009830008F6E43A08F6D0E0FBD0E0FA22080808BB
:10099300E630E71112107D1209A8080808C6448042
:1009A300C618181822181818E9799EC608CAC60866
:1009B300CBC608CCC6C370207996CACBCC70197944
:1009C3008ECBCC70137986CC700EF9802ACA33CAC9
:1009D300CB33CBCC33CC331930E7F2CCCBCA335047
:1009E300147004EA30E00DE4CA3ACACB3BCBCC3CEA
:1009F300CC500209C3E913C6CC182313C6CB18C6BF
:100A0300CA18C6F922E4CFC0E0E4CEC0E0E4CDC00A
:100A1300E0E4CCC0E075F020E626F608E633F608FD
:100A2300E633F608E633F6181818EC33FCED33FD1D
:100A3300EE33FEEF33FFC3EC9709ED9709EE970909
:100A4300EF97191919400FFFEC97FC09ED97FD0972
:100A5300EE97FE191906D5F0BFECF709EDF709EE8D
:100A6300F709EFF7191919D0E0FCD0E0FDD0E0FE4B
:100A7300D0E0FF222518C582C0E0E51934FFC58305
:100A8300C0E0E518C3958224F810AF088583198563
:100A930082188008858319858218D2AFCEF0A3E52A
:100AA30020F0A37808E608F0A3DEFAEFF0A3E581CF
:100AB30024FAF8E608F0A3E608F0A3E608F0A30892
:100AC30008E608F0A3E608F0A315811581D0E0FE3F
:100AD300D0E0F8158115811581E8C0E0EEC0E02271
:100AE300121255B90003020B35E4900401784979D9
:100AF300128002F0A3D8FCD9FA781A9000867A0102
:100B0300BA00028007E493A3F608DAF97A497B1561
:100B130090008778C979018015E493A3AD82AE83F1
:100B23008A828B83F0A3AA82AB838D828E83D8E9DA
:100B3300D9E775829C7583EA7404120F0E75824798
:100B43007583297400120F0EC0D02518C582C0E02A
:100B5300E51934FFC583C0E0E518C3958224F3107B
:100B6300AF088583198582188008858319858218C3
:100B7300D2AFC8F0A3E9F0A3EAF0A3EBF0A379089E
:100B8300E709F0A3D8FAECF0A3EDF0A3EEF0A3EF9E
:100B9300F0A3D0E0F0A3D0E0F0A3D0E0F0A3E520F1
:100BA300F0A3E5F0F0A322851983851882E0C0E065
:100BB300A3E0F9A3E0FAA3E0FBA37808E0F608A317
:100BC300DFFAE0FCA3E0FDA3E0FEA3E0FFA3E0C0A7
:100BD300E0A3E0C0E0A3E0F5D0A3E0F520A3E0A309
:100BE300F5F010AF0885831985821880088583196D
:100BF300858218D2AFD082D083D0E0F8D0E032E43F
:100C03007375F0108E218F228582268583258518A2
:100C130082851983E0CEA3E0CF852682852583EBE9
:100C2300C9EAC8EDCBECCAC3E833C8E933C9EA3330
:100C3300CAEB33CBC3EA9EF524EB9FF523B35004F1
:100C4300AB23AA24EC33CCED33CDD5F0DAAE21AF10
:100C530022221211CD601C121209601712127C702D
:100C63000712126A7001D322C0D012126A7006D022
:100C7300D0B322C32233D0D0501430E0F6C3E7966A
:100C83000809E7960809E7960809E796B32220E0E2
:100C9300D5E6970809E6970809E6970809E697B3A2
:100CA30022D083D082ECC0E0EDC0E0E493A3FCE467
:100CB30093A3FDED4C600D120D7CEC24FFFCED3491
:100CC300FFFD80EFE493A3FCE493A3FDED4C600DE3
:100CD300120E19EC24FFFCED34FFFD80EFD0E0FD94
:100CE300D0E0FCE493A3C0E0E493C0E02285198341
:100CF300851882E0A3FEE0A3F5207808E0A3F608B8
:100D0300DFFAE0A3FFE0A3C0E0E0A3C0E0E0A3C0FC
:100D1300E0E0A3C0E0E0A3C0E010AF08858218853F
:100D230083198008858218858319D2AFD083D08236
:100D3300020F14D083D082E9C0E0E493A3C386F00A
:100D4300C5F095F0F908E493A386F0C5F095F0702B
:100D53000BE493A3C3994005E9048002A3E475F06F
:100D630002A42582F582E5F03583F583D0E0F9E42A
:100D730093A3C0E0E493C0E022C0E0C3E4939608E9
:100D83007401939618400FE49366700808740193F6
:100D9300661870007019A3A3C3E4939608740193B3
:100DA3009618A3A3400DD0E0D0E0D0E0020CE0A35E
:100DB300A3A3A3A3A3D0E02274048004740280003D
:100DC300CCC0E0EDC0E0E518C39CCCAD1950011DCB
:100DD30010AF068C188D1980068C188D19D2AF129E
:100DE3000E90D0E0FDD0E0FC2274028000CCC0E085
:100DF300EDC0E0E518C39CCCAD1950011D10AF0642
:100E03008C188D1980068C188D19D2AF120E6ED0E6
:100E1300E0FDD0E0FC22C0E0C0F088F0E49366700F
:100E2300080874019366187000A8F0A3A3700BD090
:100E3300F0D0E0D0E0D0E0020CE0A3A3D0F0D0E00B
:100E430022D083D082CCC0E0E493A36006120EB11B
:100E53001470FAE493A360061210131470FAD0E02E
:100E6300FCE493A3C0E0E493C0E022CAC0E0E493AF
:100E7300A3C582CCC582C583CDC583F0A3C582CC6F
:100E8300C582C583CDC583DAE5D0E0CA22CAC0E0F6
:100E9300E0A3C582CCC582C583CDC583F0A3C5823B
:100EA300CCC582C583CDC583DAE6D0E0CA22C0E0D3
:100EB300E493A3D39C5010E493A3C39C400AD0E0D3
:100EC300D0E0D0E0020E61A3A3A3D0E022C008C308
:100ED300E096F50808A3E096420808A3E0964208C6
:100EE30008A3E09645087001D3D0082270090808CA
:100EF30008226016181818C6C333C608C633C608B6
:100F0300C633C608C633C6D5E0EA22C09FF59FE4C0
:100F130073D09F22D083D082C09FE493C0E074013A
:100F230093C0E0740293F59F22C0E0C0D0E8C0E014
:100F3300A8A8D2AFC2C7751A00E8A2E792AFD0E063
:100F4300F8D0D0D0E0322518F58210AF08F518405C
:100F53000C15198008F51840021519D2AF851983AD
:100F6300227404800A74038006740280027401C030
:100F7300E0F404120F49D0E01212182200C0D02569
:100F83001810AF08F518500C05198008F518500211
:100F93000519D2AFD0D022BB0102E722C082C083A1
:100FA30089828A83BB0003E08002E493D083D082EA
:100FB300226016080808C6C313C618C613C618C687
:100FC30013C618C613C6D5E0EA222518F8E4351966
:100FD300F9222518FAE43519FB222518FCE4351902
:100FE300FD22C3E0C696F608A3E0C696F608A3E082
:100FF300C696F608A3E0C696F622251810AF08F5A4
:1010030018400C15198008F51840021519D2AF22A3
:10101300C0E0E493A36C7009D0E0D0E0D0E0020E0E
:1010230061A3A3D0E022C3E7960809E7960809E77E
:10103300960809E796A2D265D03322E766701008B6
:1010430009E766700A0809E76670040809E766227B
:10105300C3E09608A3E09608A3E09608A3E096A24F
:10106300D265D03322E066701008A3E066700A08E8
:10107300A3E066700408A3E06622181818E4C39678
:10108300F608E496F608E496F608E496F622C3E436
:1010930093960874019396087402939608740393C5
:1010A3009622C3E096F008A3E096F008A3E096F03A
:1010B30008A3E096F022C3E697F60809E697F60838
:1010C30009E697F60809E697F622191919E7094779
:1010D300097009E727097005E733F4220922181874
:1010E30018E60846087009E626087005E633F42278
:1010F3000822E026F008A3E036F008A3E036F00863
:10110300A3E036F022E026F608A3E036F608A3E0D3
:1011130036F608A3E036F622E627F60809E637F6A0
:101123000809E637F60809E637F622700422600D4F
:1011330018C6C333C608C633C6D5E0F41822E05632
:10114300F608A3E056F608A3E056F608A3E056F621
:1011530022E657F60809E657F60809E657F608099E
:10116300E657F622E647F60809E647F60809E64792
:10117300F60809E647F622E056F008A3E056F00821
:10118300A3E056F008A3E056F022C6F4C608C6F45E
:10119300C608C6F4C608C6F4C622C3E09608A3E090
:1011A3009608A3E09608A3E09622C3E7960809E70A
:1011B300960809E7960809E7962275D00075813FDE
:1011C30075180175190400020AE3E6084608C313FB
:1011D3004608336002E633F422600C08C6C313C624
:1011E30018C613C6D5E0F422E0F608A3E0F608A378
:1011F300E0F608A3E0F622E6F008A3E6F008A3E68B
:10120300F008A3E6F022E7094709C313470933604F
:1012130002E733F422CAC0E0E6F0A308DAFAD0E02A
:10122300FA22E8F0A3E9F0A3EAF0A3EBF022E0FA54
:10123300A3E0FBA3E0FCA3E0FD22EAF0A3EBF0A311
:10124300ECF0A3EDF022E0F8A3E0F9A3E0FAA3E0C9
:10125300FB22E5C754F84401F5C77901222518F5A7
:1012630082E43519F58322E72719471947194722DD
:10127300C2AF75D69F02000022E62618461846180C
:101283004622120F17CDDB01120F176BDC01120F71
:10129300172ADD01120F1774E001120F17EBE20199
:1012A300120F1791E301120F17BEE301120F170F6D
:1012B300E401120F179AE401120F173BE501120F15
:1012C300179EE501120F17E2E501120F178FE601D2
:1012D300120F17FCE601120F172FE701120F173D2C
:1012E300E801120F1761E801120F17C5E801120F89
:1012F30017A9E901120F17ACEB01120F174EEC01FE
:10130300120F17D8EE01120F175CEF01120F17D44B
:10131300F101120F170DF401120F1747F401120F09
:1013230017ACF501120F17B6F501120F17FCF501F3
:10133300120F179EF701120F1739F901120F170039
:101343008004120F177C8004120F17AF8004120F52
:1013530017DD8004120F17208304120F173F830435
:10136300120F17848304120F171A8404120F1766BF
:101373008404120F17F88404120F17D08504120F78
:1013830017218604120F17868604120F170387048A
:10139300120F17398704120F17848704120F17AA25
:1013A3008704120F173A8804120F17D18804120FFB
:1013B300171D8904120F174E8904120F178589040C
:1013C300120F170D8B04120F17D78B04120F17B1BF
:1013D3008C04120F1743F704120F175BF704120F55
:1013E30017F37F00120F17E3FF01120F1760F304C7
:1013F300120F1770F304120F177CF304120F170D5B
:10140300F404120F17EDFE03120F1770FF03120FF0
:1014130017D6FF03120F17F6FF01120F17F9FF017B
:10142300120F17F87F00120F17AFE804120F17E718
:10143300E804120F1715EA04120F1799EA04120FA2
:1014430017DBFA01120F1707FB01120F1778FD01C3
:10145300120F17B8FD01120F17F8FD01120F170C29
:10146300FE01120F1725FE01120F1716FF01120FAF
:1014730017BBFF01120F17CFFF01120F177EEC04EA
:10148300120F17A2EC04120F17BBEC04120F17ED87
:10149300EC04120F171DED04120F174AED04120F7F
:1014A3001754ED04120F17B6ED04120F17C5ED0410
:1014B300120F17CFED04120F17DCED04120F178371
:1014C300E104120F17A3E104120F17E2E104120F54
:1014D30017FDE104120F171CE204120F1782E20436
:1014E300120F178BE204120F17E8E204120F17F71B
:1014F300E204120F171BE304120F17DCE304120FAD
:1015030017E9E304120F17FAE304120F17AC7F0075
:10151300120F17C47F00120F17F07F00120F17E688
:10152300BD04120F1742BF04120F174FBF04120F4F
:101533001762BF04120F1777BF04120F178CBF0473
:10154300120F179FBF04120F1713C004120F17783F
:10155300C004120F1700C104120F177CC104120F2D
:101563001740C204120F1750C204120F175FC204B0
:10157300120F17BBF404120F17DFF404120F17072F
:10158300F504120F172FF504120F1728E404120F96
:10159300174FE404120F176DE404120F17E0E4046D
:1015A300120F17B0DE04120F17C9DE04120F17D57E
:1015B300DE04120F17E9DE04120F1707DF04120F00
:1015C3001711DF04120F171BDF04120F172EDF048E
:1015D300120F17B4DF04120F1729E004120F175864
:1015E300E004120F17A6E004120F17F5E004120F20
:1015F3001710E104120F171AE104120F172BE1045D
:10160300120F176EE104120F17DBF504120F1726E2
:10161300F604120F174DAD04120F1777AD04120F16
:101623001794AD04120F17A7AD04120F17BDAD0425
:10163300120F171BAE04120F1753AE04120F1747E6
:10164300B204120F178CB304120F17BFB304120F97
:101653001722B404120F1782B504120F17AAB50488
:10166300120F17BFB504120F17CFB504120F1713BC
:10167300B604120F176EB604120F177EB604120FBC
:10168300177CF004120F1796F004120F17BEF00424
:10169300120F17D7F004120F17FBF004120F1719CC
:1016A300F104120F1730F104120F175EF104120F39
:1016B3001779F104120F17ACF204120F17F2F204A8
:1016C300120F174AD804120F175AD804120F175FB4
:1016D300D904120F1791D904120F17C1D904120F8D
:1016E30017E4D904120F17FBD904120F1735DA04C4
:1016F300120F179ADA04120F17DCDA04120F171BF2
:10170300DB04120F174CDB04120F1777DB04120FE5
:1017130017E6ED04120F17F8ED04120F170CEF0480
:10172300120F170FEF04120F1762FF02120F178D1C
:10173300FF02120F17A3FF02120F17B2FF02120FBD
:1017430017F6FF02120F17AEB604120F17E8B6040E
:10175300120F1751B704120F176EB704120F171099
:10176300B804120F1719B804120F175EB804120F3A
:101773001787B804120F1794B804120F1705B9048A
:10178300120F1790B904120F17DEB904120F171CAA
:10179300BA04120F1781BA04120F17A4BA04120F56
:1017A300171BBB04120F1772BB04120F17ADBB0438
:1017B300120F17E2BB04120F17F4BB04120F170624
:1017C300BC04120F1725BC04120F172EBC04120FF2
:1017D30017EEBC04120F173ABD04120F1778BD049D
:1017E300120F173CEF04120F1779E604120F17AF0D
:1017F300E604120F17F7E604120F1750E804120F4E
:101803001732EB03120F1756EC03120F1790EC036A
:10181300120F173AEE03120F1764EE03120F17D9C4
:10182300F003120F1719F103120F17AFF203120F80
:10183300174CF303120F179EF303120F1741F40310
:10184300120F1779F403120F17BBF403120F172AA1
:10185300F603120F1778F703120F17A9F903120FE4
:1018630017D7F903120F17FEF903120F1707FA031D
:10187300120F175EFA03120F17F0FA03120F171D58
:10188300FE03120F17A0FE03120F1713F404120F17
:10189300172BF404120F1735F404120F1789F404ED
:1018A300120F1789F604120F1798C204120F17AEFE
:1018B300C204120F174FC304120F178EC304120F63
:1018C30017ABC304120F17DCC304120F1729C40488
:1018D300120F175CC404120F1797C404120F179248
:1018E300C604120F17FAC604120F17ACF104120F35
:1018F300170BF204120F1749F204120F178AF2049E
:10190300120F17D0CF04120F1795D004120F1729F7
:10191300D204120F173AD204120F1751D204120F26
:101923001783D204120F17CED204120F1727D30432
:10193300120F1790D304120F17AED304120F170010
:101943008002120F170C8002120F176E8002120F03
:1019530017788002120F17058102120F17418102B7
:10196300120F172D8202120F173A8202120F1798C5
:101973008202120F17E58202120F17868302120FDB
:1019830017038402120F17AC8502120F1777870211
:10199300120F17628802120F17568902120F17AF20
:1019A3008B02120F17098D02120F17A08D02120F4F
:1019B30017DF8E02120F17DD8F02120F17419102EC
:1019C300120F17D59502120F17BD9602120F17505B
:1019D3009702120F17759702120F179A9702120F99
:1019E30017349802120F174A9802120F176C9802B5
:1019F300120F17DD9802120F17FC9802120F17250A
:101A03009902120F17259A02120F17299B02120F20
:101A130017BB9C02120F17DC9C02120F17829D0248
:101A2300120F17CA9D02120F17309E02120F17B121
:101A33009E02120F17159F02120F17719F02120FAA
:101A4300170FA002120F177BA002120F17AEA002EE
:101A5300120F1716A102120F176FA202120F17010E
:101A6300A402120F17A8A402120F1703A702120F42
:101A73001750A702120F1760A702120F17AFA70282
:101A8300120F1721A802120F1751A802120F17BF26
:101A9300A802120F176AA902120F175CAB02120FEA
:101AA30017E0AD02120F17E6AE02120F17FDB202D6
:101AB300120F17C2B302120F17E4B402120F1781E9
:101AC300B602120F17D0FB02120F178AFC02120F75
:101AD30017F0FC02120F1711FD02120F17E4FD029B
:101AE300120F1707C704120F1720C804120F177914
:101AF300C904120F17A5C904120F174ACA04120FFB
:101B03001763CA04120F1766CA04120F1774CA04A4
:101B1300120F1777CA04120F17A9CA04120F174F0F
:101B2300CB04120F17D9F604120F1769D603120F3D
:101B33001798D603120F1710D703120F1713D803D2
:101B4300120F176FD803120F17F0D903120F170CC8
:101B5300DA03120F175EDA03120F17A1DA03120F5B
:101B630017B4DA03120F1706DB03120F17C1DB03D7
:101B7300120F172DDC03120F1757DC03120F178FE9
:101B8300DC03120F170BDE03120F17E4DE03120F31
:101B9300172DE003120F1700E103120F1788E1035B
:101BA300120F17D0E103120F17EAE103120F1731D7
:101BB300E203120F1751E203120F17E7E203120FAA
:101BC3001776E303120F17D0E303120F1714E4037E
:101BD300120F1790E603120F17BEE703120F17FA3F
:101BE300E703120F17ECE803120F1714E903120FA0
:101BF3001717E903120F1721E903120F1734E9032B
:101C0300120F17BDE903120F17F3E903120F171F82
:101C1300EA03120F1746EA03120F176AEA03120FB9
:101C230017DBEA03120F17E9EA03120F171CEB0382
:101C3300120F1754F504120F1760F504120F179EB5
:101C4300F504120F17FCFF01120F1731C003120F17
:101C53001754C003120F179AC103120F17E3C103DE
:101C6300120F173DC203120F17A3C203120F17A6B9
:101C7300C203120F17F2C203120F176CC303120F22
:101C830017F2C303120F17F5C303120F1781C4030F
:101C9300120F17C4C403120F1703C903120F17A09F
:101CA300CA03120F17E2CA03120F1757CE03120FFC
:101CB3001785CF03120F170FD103120F179CD103F0
:101CC300120F1796D203120F17EDD403120F1752E8
:101CD3006C00120F17F26C00120F175C6D00120FDD
:101CE30017756D00120F17FF6D00120F17556E0059
:101CF300120F17996E00120F17006F00120F17764D
:101D03007000120F17A47100120F1764A804120FAA
:101D130017207400120F17C87400120F175775009D
:101D2300120F172A7600120F17057800120F178C5F
:101D3300DB01120F174E7A00120F17607B00120F90
:101D430017B9A503120F172DA603120F1775A603B4
:101D5300120F17B3A603120F17FCA603120F174691
:101D6300A703120F177EA703120F17FCA703120F67
:101D73001756A803120F17B2A903120F1743AA038A
:101D8300120F1725DB01120F17BBAA03120F17DC63
:101D9300AA03120F1734AB03120F17A5AD03120FCB
:101DA30017C4AD03120F17A3AE03120F17BBAF0374
:101DB300120F1738B003120F17A5B003120F170E27
:101DC300B103120F17C8B103120F1786B303120F13
:101DD3001787B403120F170CB603120F17F7B703C5
:101DE300120F175ABA03120F1700BC03120F17CEA4
:101DF300BC03120F1734BD03120F174BBD03120F91
:101E0300173BBE03120F1727BF03120F1794BF030D
:101E1300120F17CFDB04120F171BDD04120F17D895
:101E2300DD04120F173CDE04120F17A97C00120FFA
:101E330017C47C00120F17087D00120F172E7D00A8
:101E4300120F17547D00120F176C7D00120F17CF5E
:101E53007D00120F17E47D00120F17067F00120F8B
:101E6300170F7F00120F17187F00120F17217F0023
:101E7300120F1774CB04120F1762CF04120F1767D8
:101E8300CF04120F1769CF04120F170BEB04120FB5
:101E93001717F704120F1732F604120F1742F6043E
:101EA300120F1716D404120F17008003120F1733E3
:101EB3008003120F179F8003120F173A8103120F2B
:101EC30017D78103120F171C8203120F173E8203C9
:101ED300120F17578203120F177D8203120F179FDA
:101EE3008203120F17DD8203120F17218303120FD0
:101EF30017438303120F17A58303120F176C840371
:101F0300120F17238503120F17958503120F1760FE
:101F13008603120F17B38603120F17198703120FC5
:101F230017538703120F17A58703120F171388037D
:101F3300120F177E8803120F17818803120F1702DF
:101F43008903120F17998903120F17198A03120FA6
:101F530017388A03120F179C8B03120F17A98B03D1
:101F6300120F17B58C03120F17C28C03120F17CB66
:101F73008C03120F17A38E03120F17BD8F03120FBB
:101F830017369003120F17A89003120F17CA900366
:101F9300120F175E9103120F17329303120F1709D3
:101FA3009703120F171D9703120F172D9703120F85
:101FB30017379703120F17409703120F1749970309
:101FC300120F17539703120F17809703120F17A9B6
:101FD3009703120F17B49703120F17D89703120F13
:101FE30017FC9703120F17669803120F17AC980389
:101FF300120F17C99803120F17469903120F177D73
:102003009903120F17BC9903120F17099A03120FA2
:10201300178F9A03120F175D9C03120F17E09C038F
:10202300120F17C49D03120F172BA003120F17844F
:10203300A003120F17CEA003120F1729A203120F2A
:10204300175EA203120F17B0A203120F1765A303A3
:10205300120F1714A403120F1751A403120F17E63C
:10206300A403120F1752A503120F17FC8101120FBD
:10207300172E8201120F175C8201120F173284018F
:10208300120F17128501120F176A8501120F17A578
:102093008601120F17F18601120F171A8A01120F08
:1020A300170D8D01120F175D8E01120F17F38E019D
:1020B300120F17FF8E01120F17318F01120F17B472
:1020C3009001120F17C29101120F17EC9101120F19
:1020D30017539201120F17AC9201120F17129301AB
:1020E300120F17299501120F17B89601120F1782B5
:1020F3009701120F17C89801120F17189B01120F9F
:1021030017E89D01120F17F59D01120F177C9E0111
:10211300120F17109F01120F17539F01120F17D998
:102123009F01120F17F69F01120F1726A001120F1E
:10213300175BA001120F172BA101120F17D4A101D6
:10214300120F175AA401120F177AA501120F176560
:10215300A601120F17E7A601120F171EAB01120FEC
:10216300175BAB01120F17B3AB01120F17E6AB01ED
:10217300120F1750AC01120F1786AC01120F171173
:10218300AD01120F1769AD01120F1740AE01120F07
:1021930017F9AE01120F1794AF01120F179CB2017A
:1021A300120F17B8B301120F175BB701120F174FB6
:1021B300B801120F1752B801120F1781B801120F8D
:1021C3001787BA01120F1760BB01120F17A3BB01C8
:1021D300120F17F9BC01120F1738BD01120F17CADE
:1021E300BD01120F17FEBD01120F17C3BE01120F5F
:1021F30017DBC001120F174CC101120F178CC1015D
:10220300120F171AC201120F1742C301120F17043C
:10221300C401120F170BC601120F1723C601120FA9
:102223001737C601120F176FC601120F179DC6018C
:10223300120F171CC801120F1741C901120F17A55E
:10224300C901120F1757CA01120F1787CA01120FBC
:10225300174ECB01120F17E6CB01120F170CCE014D
:10226300120F1741CE01120F17A4CE01120F17D36D
:10227300CF01120F177BD001120F17ACD001120F31
:1022830017C4D001120F1753D101120F1707D4012E
:10229300120F17DFD501120F17FBD501120F1717F6
:1022A300D601120F17E5D601120F17D8DA01120F54
:1022B300175B2F00120F178D2F00120F177C33009F
:1022C300120F17C83300120F170E3400120F17B076
:1022D3003400120F170C3500120F17513500120F6F
:1022E30017983600120F17AC3700120F179B3B00DD
:1022F300120F171F3C00120F172C3D00120F1788E7
:102303003D00120F17783F00120F17ED3F00120F19
:1023130017F73F00120F17044000120F172F40004A
:10232300120F17164100120F17C04100120F173E6C
:102333004200120F175E4200120F17874200120F5E
:1023430017A94200120F17094500120F17CF4500B6
:10235300120F17144600120F17914600120F17425F
:102363004700120F17744700120F17BA4700120FD6
:1023730017F64700120F17464800120F179A480026
:10238300120F17F04800120F173C4900120F17A93C
:102393004900120F17244A00120F17EF4B00120FB8
:1023A30017EF4C00120F17144E00120F1753510062
:1023B300120F17665400120F17235500120F1767D9
:1023C3005500120F17175700120F172B5700120F34
:1023D30017355700120F173F5700120F174B5700AF
:1023E300120F17675700120F17125800120F1751C9
:1023F3005800120F175B5800120F17655800120F81
:1024030017D55800120F17205900120F17355A000D
:10241300120F17915A00120F17125B00120F17D1E8
:102423005B00120F17DA5C00120F170E5E00120F1B
:1024330017FC5E00120F17145F00120F176F5F0077
:10244300120F178D5F00120F17D55F00120F17FCC5
:102453005F00120F17976000120F175D6100120FD4
:1024630017EF6100120F17696200120F17836300E1
:10247300120F17306400120F17586500120F17A8B8
:102483006500120F170C6600120F176E6600120F0D
:10249300179C6600120F17C06600120F17F566002F
:1024A300120F17266700120F17596700120F1779BB
:1024B3006700120F17E16700120F17D56800120F9C
:1024C30017306900120F17596900120F17E16900DD
:1024D300120F17646A00120F178F6A00120F177416
:1024E3006B00120F178A8D04120F17C28D04120F7F
:1024F30017E38D04120F17258E04120F17878E040E
:10250300120F17918E04120F17A18E04120F17DCEE
:102513008E04120F17BC9204120F17A99404120F02
:10252300178F9604120F17269704120F17C89704D4
:10253300120F17D1B902120F174FBA02120F17ABAE
:10254300BA02120F17F6BA02120F1711BB02120FBB
:10255300173CBB02120F1759BB02120F1765BB02C0
:10256300120F17FCBC02120F1715BD02120F179A98
:10257300BD02120F17ADBD02120F17CCBD02120F11
:102583001770BE02120F17F1BF02120F17A4C10278
:10259300120F173AC202120F173DC202120F17ADE4
:1025A300C202120F17CBC202120F1762C302120F1D
:1025B30017AAC302120F17ADC302120F1773C40277
:1025C300120F17E0C402120F1706C502120F17915C
:1025D300C502120F17AFC502120F17F5C502120F6E
:1025E30017A9C602120F17F3C602120F1722C7024A
:1025F300120F177FC702120F17B4C702120F17E08B
:10260300C702120F17EEC702120F173BC802120FB1
:1026130017ABC802120F17F4C802120F1740C902F2
:10262300120F176CC902120F1777C902120F1795F1
:10263300C902120F1780CA02120F178ACA02120F99
:1026430017C5CA02120F17D5CA02120F17DECA0224
:10265300120F1732CB02120F1746CB02120F177548
:10266300CC02120F178CCC02120F17A1CC02120F3F
:10267300172FCD02120F1774CD02120F1700CE02BF
:10268300120F170BCE02120F174DCF02120F17683E
:10269300CF02120F17B4CF02120F1723D002120F5B
:1026A300175CD002120F1776D002120F17B8D002A0
:1026B300120F1788D302120F1735D402120F17A265
:1026C300D402120F17E2D602120F17FAD602120F14
:1026D30017FDD602120F1709D702120F171DD702C3
:1026E300120F1725D702120F1758D702120F175AB6
:1026F300D802120F17E1D802120F1751D902120F85
:1027030017D3D902120F1794DA02120F17B3DA0292
:10271300120F1754DB02120F17B1DB02120F17B49B
:10272300DB02120F17E1DB02120F17F6DB02120FA7
:10273300176ADC02120F17B9DD02120F17BFDE0290
:10274300120F174ADF02120F1765E002120F172D3F
:10275300E102120F175EE102120F1781E102120F5D
:10276300178AE102120F17B9E102120F1749E202A9
:10277300120F17FFE202120F1774E302120F171B57
:10278300E402120F1790E402120F17C7E402120FAC
:102793001705E502120F173BE502120F176DDB0158
:1027A300120F176EA704120F179FA604120F179C80
:1027B300A404120F17EFA304120F1783A304120F1D
:1027C30017A0FB02120F1796FB02120F1729FB0229
:1027D300120F177DF902120F173BF902120F17653B
:1027E300F802120F17A67900120F173ADB01120F26
:1027F300174FF802120F1710F802120F17FADA0127
:10280300120F1707AD04120F176AF702120F176D95
:10281300F402120F1756F202120F1723F202120FCD
:1028230017BEF102120F1751F102120F1710F10226
:10283300120F1749F002120F17E4EF02120F178F4E
:10284300EF02120F1732EF02120F1709EE02120FE7
:1028530017A6ED02120F17F0EC02120F17EBEC02A2
:10286300120F17DFEC02120F1792E902120F176C07
:10287300E902120F1711E902120F17BCE802120F37
:1028830017CFAC04120F1778AC04120F17F3AA0476
:10289300120F1734AA04120F1797A904120F178DDA
:1028A300A904120F1783A904120F17A9E802120F24
:1028B300179EE802120F177AE802120F1719A904DC
:1028C300120F1789E602120F1708E602120F17C438
:1028D300E502120F1798E502120F17A1AA03120FB0
:1028E3001738A304120F1705A904120F17DFA20448
:1028F300120F17A1A204120F1774A204120F17408C
:10290300A204120F17DFA104120F17C7A104120F9D
:102913001797A104120F176C9E04120F173F9C0404
:10292300120F17469A04120F17CC9904120F177B34
:102933009904120F17359904120F179F9804120F59
:10294300171D720000000080FB0000228F000100B1
:10295300F11587000100EF1535000400B8152500B7
:102963000200BC1526000200BE1527000200C01598
:1029730028000100CA1529000100CB1584000400BA
:1029830035138600010057152A000100CC152B00D2
:102993000100CD152C000100D1152D0008004113B5
:1029A3002E000100D2152F000100D31530000100C5
:1029B300D41531000100D51532000100491333004D
:1029C30001004A1334000100D615360001004B13F1
:1029D30038000100D71539000100D015830002002B
:1029E300ED1563000100571364000100CE15650067
:1029F3000100CF156D000100581371000800391351
:102A030066000100EC1543000100DD1544000200DF
:102A1300DE1545000100E01546000200E115470000
:102A230008004F1348000100E3154B000100E415B3
:102A330004000100F015A1000100F41537000100A6
:102A4300F31588000100F2153C0001004C133D0012
:102A53000100D81549000200E5156700010059136C
:102A63004D000200E7154E000100E9154F0002007A
:102A7300EA153E000100DC15510001004D13520020
:102A83000100DA1553000100DB15540001004E1359
:102A930000000000000000013636010100010201C0
:102AA30000010301000104010606050200000701FD
:102AB30000340801000F090401010D0100FF0E0895
:102AC300000017020000190100FF1A0100011B0199
:102AD30000FE1C0100081D0200001F01000120016F
:102AE3000001210200002301000F2402000026013F
:102AF300000127010008280200FF2A0100072B011B
:102B030002402C0100002D0100012E0100012F01C4
:102B130000FF30010B1D310800003A0100083B01A2
:102B2300000F3C0100013D0100FF3E040000420490
:102B33000000460400004A0400004E040000520452
:102B43000000560400005A040000000000002005A5
:102B5300FA81000003002001FB8100000400420110
:102B63002481000005004201DD80000006004201CF
:102B7300E680000007003001F881000010004203E6
:102B83008415000011003003291200001200100305
:102B930095150000FDFF2101F481030000002103CE
:102BA3002A120300FDFF2101F48106000000100535
:102BB3002C120600FDFF2101F4810200000029050B
:102BC3002D120200FDFF2101F481010020002005E8
:102BD3002F120100FDFF2101F481010371030103A1
:102BE3000103010301030103220302030103100391
:102BF3000003000300030003000300030003420378
:102C03000003240306030003000304031203250344
:102C13002303250323030403040300030003000326
:102C2300440300030003230300036503210035036A
:102C330081030003050300030003000300032503CE
:102C430023030302710230016002110270020102C8
:102C5300020202028002100261023A004100630292
:102C6300730272026202430200021302380000027E
:102C73000002040212020002000200020002040227
:102C83000402370037003C0244020002390000020C
:102C9300000265020002350281020002050282027F
:102CA3008302000203007100300160001100700014
:102CB3003102200350048000100061000000140062
:102CC30063007300720062004300000013000600FB
:102CD30000000000040012000000000000000000DB
:102CE30004000400370037003C02440000000000E9
:102CF30000000000650000003500810000000500B1
:102D030000008300000001017101010101011101B3
:102D130001013101010101018001100161013B0049
:102D23001400630173017201620143010001130185
:102D330006013D01350004011201000100010001FB
:102D4300000104010401330133013C014401320158
:102D53003600000100016501000135008101000119
:102D63000501820183010001360001000600000015
:102D73000F0000000000000000000000000003FF3F
:102D8300FF00000403FFFF0000FFFF0FF401000535
:102D9300C4040320000100000B0000000000000039
:102DA3000003010F0000000000000000000000000D
:102DB3000000000000000000000000000000000010
:102DC3000000000000004D1A951A531A5D19591A94
:102DD3009B1A591AA71A5F1A5D19591A9B1A651A71
:102DE3005D19000000006B1A5D190000000000006F
:102DF3000000711A5D19771AAD1A7D1A5D1900006A
:102E030000000000000000000000831ABF1A891AA6
:102E13005D19831ABF1A891A5D19771AAD1A8F1AA9
:102E23005D190000F91C0100F91C02006F1C0280EF
:102E3300691C0300751C04007B1C0480811C0500B5
:102E4300871C0600931C3100A51C3300AB1C340007
:102E5300B11CFFFF000007ECFDFDFDECDCDCCCBC8E
:102E6300ACAC9C9C8C7C7C6C6C5C5C5C4C4C3C3C4F
:102E73002C2C1C1C03EAF5E5D5D5C5B5A595958580
:102E830085757565655555454535352525151505EF
:102E93000A292302F32205FF2207F9220CDB220D64
:102EA300E722FF000000160F00000B150B020002C3
:102EB300220F3300000E0F5A6967426565416C6C3F
:102EC30069616E63653039D0D1D2D3D4D5D6D7D822
:102ED300D9DADBDCDDDEDF000000040600000406D7
:102EE30000010406000204303017181921301B1D9D
:102EF3001F3000034D4C4651181A250502000119D5
:102F03001618161618230300303016181920231A22
:102F13001C1E30003C40423A3F3F392F47300C0ED5
:102F2300020B040B0A0708000F020402010101014E
:102F3300090200BE040AE803000001000300E803DD
:102F43000E001E0404091203101E030A0C040408D5
:102F530028020C05081504FF74F7120A77E9901488
:102F63002EF09013E3E4F0121711901446E4F0A34B
:102F7300F090142FF0A3F01224791217179013670F
:102F8300E4F0A3F0121E5B0248C174F0120A7774D6
:102F9300D3120FFD12631D5480606690142EE0F966
:102FA30012177D8A088B09AF09EA4F604C7C0080B9
:102FB300010CEC75F003A4F8A9F0749328F582745E
:102FC3002E39F583E493F46029E493F88A828B83A2
:102FD300E06870DDEC75F003A4F8749428F582744E
:102FE3002E39F583E493C0E0740193F583D0821204
:102FF3000C02AA08EFFB12176B126A4F64800233AC
:103003005C851882851983A3E05420601F12238FE7
:103013008A088B09AF09EA4F600A1222E7AA08EF70
:10302300FB12176B126A4F642002335C851882858A
:103033001983E0A2E050429013E8E0640F702E90F1
:1030430007A0126A5A9007A0C3E094E9A3E094038F
:10305300400A7A007B809012591249A37900122208
:10306300BDE960099015B81212311222D585188274
:10307300851983E06401023341542070030233460F
:103083007A207B0090142EE0F91218D3EA4B4C4DB2
:10309300701A901442121249E8494A4B700E75088F
:1030A30001750900750A00750B00806D750C0075BC
:1030B3000D00750E00750F001218E58A088B098C38
:1030C3000A8D0B901442121249E8494A4B60319021
:1030D30014427808120ED0400E750CFF750DFF7563
:1030E3000EFF750F7F801985080C85090D8C0E8DD9
:1030F3000F901442780C120FE57401780C120FB480
:10310300850C08850D09850E0A850F0BE508450911
:10311300450A450B70030232A07C0079047A007BD8
:10312300001223658A0C8B0DAE0CAF0D0231E474D3
:103133000212126074FFF0740312126074FFF074D1
:103143000412126074FF124A161261D77407120F29
:10315300DD12648DE96401706A1233684480F8A358
:10316300E0F97428121260E8F0A3E9126721E0C0C5
:10317300E0742A121260D0E0124A035408601674F5
:1031830028121260A3E04401123375C0E0742C12BC
:103193001260D0E0F01263606011E8240B123B5B15
:1031A300F87416121260E8F0A3E4F09081A2120DF5
:1031B300BB7406120FDD740B120FD5121F99740422
:1031C300120F7F8E828F83A3A3A3A3A3A3A3A3A37F
:1031D3007406123375F912234774051212601264D0
:1031E300E4EE4F70030232A07C007904EEFAEFFBA9
:1031F3001223657405121260EAF0A3EB12472DE067
:10320300F50CA3E0F50DE4F50EF50F7808790C1233
:1032130011AD4023EE2404F8E43FF985080C850939
:103223000D8882F583C3E0950CF0A3E0950D126B36
:1032330044E84970A4800C8E828F83A3A3A3A3E4E4
:10324300F0A3F08E828F83A3A3A3A3A3A3A3A3A31B
:10325300A3E064018E828F83A3A3A3A3A3A37020FF
:10326300E0540460030231328E828F83A3A3A3A3AD
:10327300A3A3A3A3A37406F07AB712349B0231DC91
:10328300A3A3A3A3E060030231328E828F83A3A39F
:10329300A3A3A3A3A3A3A37401F00231DC122335D8
:1032A3007C0079017A007B00122365EA4B600312EC
:1032B300499C7C0079047A007B00122365EA4B70F9
:1032C3001380448A828B83A3A3A3A31264FCEE9886
:1032D300EF99400B8A828B83A3A3A3A31264E47C9C
:1032E3000079041223658B0BA90BEA4970D5C3E55A
:1032F300089EE5099F500DC3EE9508FEEF9509FF63
:10330300EE4F700D12499C90144212336EA3F0805D
:1033130024EE2EFEEF338E08F509E4F50AF50B785B
:1033230008120F647A20123544120F7F1218E590A9
:10333300144212123D851882851983E06420FAA392
:10334300E08016A3E054046013125BB412287B7967
:1033530001123D22126A4F6404FB80047A007B0051
:10336300742D02633CEE12634AE022E4F0A3F0A35F
:10337300F022124A08A3A3E022C082C08374EA1297
:103383000FFD7C167D007900AA18AB191217537430
:10339300081212607402F09013D7125DF01233BC5E
:1033A3007409121260125E087413121260E4125A46
:1033B30087121E4F7416024CD2E8F0A3E9F0901363
:1033C300E11264CC2274F7120A7774DA120FFDEA61
:1033D300FEEBFFEA4F602DAC18AD191223AD740656
:1033E300121260E0601E7417121260E0FD74011285
:1033F3001260E0FCEEFAEFFB7900122293E960041D
:1034030079A48002790074260248BE74F7120A7701
:10341300EAFEEBFF8A82F583A3A3A3A3A3A3E0544D
:103423004060178A828B831262FD124BE160067A39
:10343300FF7BFF80151262F980039013D71261D7C7
:1034430074FE6A700374FF6B60411262F9126323A6
:10345300122443E98E828F83600B125EE6126B0F98
:10346300E4F0A38003126AFEF07CC37D228E828F78
:1034730083124257E9F5087015EE4F60097901EEA2
:10348300FAEFFB122341A9080248C17508CDAA0827
:1034930012349BE960E380EE8E828F83125EEA240E
:1034A3000CF582E438F583E0F91222CF2274F61288
:1034B3000A77E9FEEAFF7A0F7B00121765EA4B6091
:1034C3001A8A828B83740CF0EEA3A3F0EF8A828BAB
:1034D3008312467C125AE57900802BEEF912236B96
:1034E3008B09A909EA49601C8A828B83A3A3A3A33E
:1034F300A3A3A3A3A37406124685E0F912203BEE0F
:10350300F912234779100258D074F4120A778A0803
:103513008B098C0A8D0B9013E8E0640F701EEA4B45
:103523004C4D60189013E3E064086005E064047098
:103533000B7808120F64123542120F7F0237A77AF5
:10354300017B0090142EE0F91218C174042274F464
:10355300120A7774FC120FFDEAFEEBFF8A82F583F1
:10356300A3A3E0F912236B8A088B09EA4B700302C9
:10357300368A8E828F83A3A882A983E0C0E0EA12F1
:103583005ADBD0E01244EB64F160288E828F83A370
:10359300E064CD601E8E828F83A3E0641A60148E74
:1035A300828F83A3E064E9600A8E828F83A3E06441
:1035B300E170337900122341E9602BE5082404F517
:1035C3000AE43509F50B850882850983A3A3A3A320
:1035D300A3A31245C11244C9121723850A82850B7E
:1035E3008312632380708E828F83A3E0C0E0740212
:1035F300121260D0E0124CE0124E03123F71C0E091
:103603007403121260D0E0F0E5081267CC123C1A82
:10361300E0AA18AB197005121F93800312242B74B0
:1036230002121260E064E9702D8508828509831215
:103633003D80750A01780A120F70750AE9780A123B
:103643000F7012449D123F3EFCA3E0FD8A828B83E0
:10365300123F68120F7F850882850983A3A3A3A362
:10366300A3A3A3A3A3E06402701285088285098340
:10367300A3A3A3A3A3A3A3A3A37406F08E828F8300
:10368300A3A3E0F91223471223359015BE123B8CF6
:1036930074040237A474F4120A77EAFEEBFF750888
:1036A300008A82F583A3A3A3A3A3E0603875080867
:1036B3001261CA79FF122113EA4B601075082C8E30
:1036C300828F83A3A3A3A3A3E0D2E0F08E828F8390
:1036D300A3A3A3A3A3E054036401600302379343AA
:1036E3000811023793EA24181250C96036EA241AE3
:1036F3001250C96003F470131264AC7003A3E06941
:103703006003023793750822023793EA241B1237AA
:1037130097241A1250C9FAEE24191250C9F912202B
:1037230029806D8A828B83A3A3A3A3A3A3A3A3A3AB
:10373300123B7770037508018E828F831264B07019
:1037430003A3E0697006E508D2E1F508E508601512
:103753008E828F83A3A3E07006E508D2E58004E59B
:1037630008D2E6F508124BD464017006E508D2E0EE
:10377300F5088E828F83A3A3E06015EE241D1253F8
:10378300E8F9122431E964016006E508C2E0F508AE
:10379300A9088010F582E43FF583126B67EA22746F
:1037A30009120F7F7F04020CF074F0120A7774D7AA
:1037B300120FFDEAFEEBFF8A82F583A3A3A3A3E026
:1037C300600E9015BC12636760069015BC123B8CAB
:1037D3007403120FDD8E828F83A3A3A3125CB31233
:1037E30061D51223ADE9700302393D7801740512E6
:1037F3001260E0C39402400278007407121260E082
:10380300C3940240027800740C121260E064F870F2
:1038130003A3E0F4700302393D740C121260E064F8
:10382300F97003A3E0F4700302393D740C121260C3
:10383300E064FA7003A3E0F4700302393D740C12E0
:103843001260E064FB7003A3E0F4700302393D747B
:1038530006121260E0F99013D1E069600302393D6A
:10386300E8A2E0400302393D7427121260E06003CE
:1038730002393DEE24131264C27422121260125CE8
:10388300BD241C1264C27410121260125E08740903
:10389300121260E0601D741A121260E0FD740412CB
:1038A3001260E0FC8E828F831261D579011222931C
:1038B300E9703B7403120FD51222E1E9F50C740988
:1038C300121260E0702C9013CBE0602674225964CE
:1038D30022601F74425964427014742012126012E1
:1038E3003B71600E7420121260123B6A60047ACF3F
:1038F300804AE9A2E6504D74201212601253EE245E
:10390300FD600F14600C24FD600824FD600424FE98
:1039130070287420121260123B63700E742012120E
:1039230060125A14A3E0640D601A7403120FD512C7
:10393300245BE96401700D023B537AD37B00121CB4
:1039430045023B53EE242DF582E43FF583123D7788
:103953007003A3E069701D7508007808120F707872
:1039630008120F70EE242F1250C9F9123B7D123F3B
:1039730068120F7F7409121260E07003023A1B127F
:103983003B7D1261D71224A98A0E8B0FEA4B700379
:10399300023AAC7404121260E0F88E828F83A3A300
:1039A300E028F8A3E03400F9E8240D123B5BF88A21
:1039B300828B83A3A3A3E068600EE88A828B83A330
:1039C300A3A312467512336F7904E91212601250E1
:1039D300E8A3E02AF8A3E034008882F583A3AA824F
:1039E300AB831217598A088B098C0A8D0B850E82BB
:1039F300850F83A3A3A3A37808120ED04003023B31
:103A0300539081927808121108850E82850F83A343
:103A1300A3126B6DA3124E0C9013E3E064046008D1
:103A2300E064096003023B53E50CA2E54003023A5C
:103A3300E6EE242F1250D1F0EE24301250C9C0E02C
:103A43007401121260D0E0F0EE24311250C9C0E0CC
:103A53007402121260D0E0F07414121260E0640178
:103A63007026740E1212601244C424131250C968D3
:103A73007003A3E0697011740C121260123B77702B
:103A8300077414121260E4F0EE2425F582E43FF586
:103A930083120DBB7404120FDD7407120FD5121FAE
:103AA300997404120F7F023B53901428E064016061
:103AB30003023A1B7420121260123B717009E50C69
:103AC300A2E65003023A1B7410121260E0F4700372
:103AD300A3E0F4607BEEFCEFFD7403120FD512221A
:103AE300ED806DA2E650697420121260125EF670CA
:103AF30016741A121260E0640270557403120FD523
:103B0300790012242580497420121260123B6A70D6
:103B130014741A121260E0640470357403120FD522
:103B2300122419802B7420121260123B63700C79DB
:103B3300007403120FD512246780157420121260CB
:103B4300125A14E0640C70087403120FD512247314
:103B5300742902633CE82406F582E439F583E02204
:103B6300126303E0640322126303E0640722125327
:103B7300F2640622124BE5640222EE242BF582E462
:103B83003F126B65EE124BBA22E0F508A3E0AA08D8
:103B9300FBE4FCFD1222D52274F4120A77EAFEEB51
:103BA300FF8C088D09901349E0600F1264AC700319
:103BB300A3E0697005122017805379001261CA12BD
:103BC30020478A828B83E5824583602CA3A3A3A32A
:103BD300A3A3E054186021E508241C123C17120D1E
:103BE300BF123C13120DBFEE2418123F4F1256AFF3
:103BF300126484120F7F801579008E828F83A3A3B2
:103C0300A3125EDC1256AF1261D712201D0237A732
:103C1300E5082413F582E43509F5832274F7120AC3
:103C23007774F7120FFDEAFEEBFF9013E3E06403F2
:103C3300600DE064016008E064096003023D1D8AD1
:103C4300828B83A3E06003023CEB7C007D007A025D
:103C53007B0012171D1265298A821264C69013D441
:103C6300125E087953121E3D9013E3E06409600964
:103C73009013E11261D71224A385188285198374E6
:103C830001125A2C9013E37404F07401120FD579C6
:103C93004A121E377401120FDD7AD97B131218FDF5
:103CA30090125CE0640B70057406F08005790012D5
:103CB3003D229013D4125EE27A037B0012171D900B
:103CC30013D7125EE27A047B0012171D9013CEE025
:103CD300A2E35004D2F08002C2F0125A199015B830
:103CE3001212311222D5802FFC7D007A037B101231
:103CF300171D90125CE0640B7003740AF090134D6F
:103D0300E4F0FA7B401258098E828F83A3E0F91204
:103D13003D229013E3E4F012231774090248BE9086
:103D230013E11261DB121FAB22C082C083901367C1
:103D330012636770179013E3E024FB6005146007B8
:103D4300800A90136D801F90136F801AE8496007F3
:103D5300123B586401700C8A828B83A3E0F9121F13
:103D63009F800E90145D1263676006125A15120C41
:103D7300020255601264CC9013E1E068221264CC15
:103D8300E8FAE9FB2274F5120A7774D8120FFD8A58
:103D9300088B098A828B83A3A3A3A3A3A3A3A3E072
:103DA300C3940F5003023F398A828B83A3A3A312C8
:103DB30064E47415120FDD8A828B83A3A3A3A3A3E8
:103DC300A3A3A3123F3EFAA3E0FB1223237415120D
:103DD3001260E0702E850882850983A3A3A3A3A3A1
:103DE300A3A3A3E0C3940B401A8E828F83A3A3A340
:103DF300A3A3A3A3A3E064027009EE240B1250C98A
:103E0300F46003023F397417121260E06007640222
:103E13006003023F399013E3E06402601CE0640630
:103E230060179013671263677003023F39123B58A0
:103E330064016003023F3980259013671263677042
:103E43001D7508007808120F707808120F70EE24A1
:103E530010123F4F8E828F83123F68120F7F8E8224
:103E63008F83126B3C1244F41264C8740212126002
:103E7300125CBD123369C0E07404121260D0E01208
:103E83003F71F508A3E0F509740F78081211DC748B
:103E930005121260E508F07419121260E0C0E074B4
:103EA30006121260D0E0F0741B121260E0C0E074DE
:103EB30007121260D0E0F07416121260E0C0E074D2
:103EC30009121260D0E0F07417121260E0C0E074BF
:103ED30008121260D0E0F0EE24101250C9C0E07452
:103EE3000A121260D0E0F0741A121260E0C0E0749B
:103EF3000B121260D0E0F07427121260E0C0E0747D
:103F03000C121260D0E0F0741C121260A982AA8312
:103F130089088A09750A007808120F687C087D00F1
:103F23007410121260AA82AB831250C0120F7FAAC0
:103F330018AB19121FA57428024A1CE0F98A828B58
:103F430083A3A3A3A3A3A3A3A3A3E022F582E43F94
:103F5300F583E0F98E828F83A3A3A3A3A3A3A3A3D3
:103F6300A3126B67221261DB1223E3740222F0EEC9
:103F73001256B4E02274F2120A7774F8120FFD8A13
:103F83000A8B0B8C0C8D0D89089080F7AC18AD193A
:103F93007408120E90C200AC0AAD0BAA18AB19122A
:103FA30061587002D20090142F8013AC0AAD0BEE4F
:103FB300240BFAE43FFB126158701B124BAB1248FF
:103FC3003E601EA20040E48E828F83E0650C700485
:103FD300A3E0650D70E58E828F83A3A3E06508706F
:103FE300DAEEFAEFFB7408024501C082C083901435
:103FF3002F02555DC082C08390142FE4F0A30242C8
:104003005374F7120A7790142F126A55800FEA241B
:1040130014F582E41264E11217FBEEFAEFFBEA4BAC
:1040230070EC90142FE4F0A3F00248C174F2120A6A
:10403300778A0C8B0DEDFF890B8A828B83E08C8250
:104043008D83F0A3A882A9838A828B831240F812FE
:10405300466FE0C454F0FA88828983E04AF0EC2486
:1040630002F8E43FF9850C828B83A3A31240F81274
:10407300410BE0333354FC1240FFE033333354F845
:104083001240FFA3E0A2E0E4331313FA888289838A
:10409300E04AF0EC2403FE50010FE50C2407F50879
:1040A300E4350DF509750A007808120F687C087D60
:1040B30000EEFAEF1250BF120F7FEE2408FE5001FC
:1040C3000FE50C240FF508E4350DF5097808120FF8
:1040D300687C037D00EEFAEF1250BF120F7FE50BF1
:1040E300C3940F400DE50C2412F582E4350D1256EE
:1040F300C3F0024504A3E08882898322FA88828977
:1041030083E04A12410BA322F0850C828B83A3A385
:10411300A3A32274F2120A77EBFF8C0C8D0D8A8213
:10412300F583E08C828D83126B26A3A882A983E09A
:104133001255081244EAC4125502F0EA126B301207
:10414300550F1244E8A2E2E4338C828D831244E7D4
:10415300131313541F125508A31244E7A2E7E433C1
:104163008C828D83A3A3A3A3A3A3F0EA2403FE500D
:10417300010FF5088F09750A007808120F687C088B
:104183007D00E50C24071250BB120F7FEE2408FEBE
:1041930050010FF5088F097808120F687C037D0022
:1041A300E50C240F1250BB120F7F8E828F83A3A3C3
:1041B300A3E0C0E0126B4CD0E0F002450474F612A9
:1041C3000A77EAFEEBFF8A82F583A385820885835B
:1041D30009E0F9121FC3850882850983E064EB6057
:1041E3001E8E828F83A3E064E160148E828F83A38B
:1041F300E064F1600A8E828F83A3E0641A70078EF5
:10420300828F83A3E4F09015B81212311222D57570
:1042130008017808120F708E828F83A3E0F5087867
:1042230008120F7079009013E1125EE29013D71217
:104233003F68120F7F1223350258D0C082C083E932
:104243009014417003E4800274018004EAF0A3EB4C
:10425300F00255601261DB121E552274F6120A77C2
:10426300901441E0701B7C0079017A007B001223DB
:1042730065EA4B600C8A828B8312636760031222A8
:10428300C90258D0C082C08312471E401079FF1262
:10429300235FE9F8902F55E493C398500479018084
:1042A30002790002556074F2120A778A0A8B0B892D
:1042B30009C2008A828B83A3A3A3A3A3A3A3A3E01E
:1042C300F912236B8A0C8B0DAE0CAF0D750801EA46
:1042D3004F600302438A850A82850B83125EDC8565
:1042E3000A82850B83A3A3A3A3A3A3A31244C91286
:1042F30023538A0C8B0DAE0CAF0DEA4F70030244AF
:10430300968A828B83A3A3A3A3E4F0A3F0E50A24F4
:104313000CFAE4350BFB8A82F583E0C0E012449D7E
:10432300D0E0F0E50A240D1244BD240D125E021202
:104333002449124BC3126323E50A24111244BD24FA
:1043430011125E02E50A24131264F3C0E0124BB5A6
:10435300D0E0F0D200EE2406F8E43FF91244B012A4
:1043630044EB540460030243FC9015CAE0F50A755C
:104373000B007407780A12112E8E828F83A3A3A3D6
:10438300A3A3A31244A7F08E828F83A3A3A3A3A303
:10439300A3E0F50AA3E0F50B7407780A1211DCE534
:1043A3000A5407FCE50960618E828F83A3A3A3A34C
:1043B300A3A3A3A3A37402124A161247B3600B90DC
:1043C30013CF125149A3A3125E08EC700302446D8C
:1043D300EE2406F8E43FF9E8FAE91244B0F0EC24DD
:1043E300FFF50AE434FFF50B7407780A12112E8ADD
:1043F3008289831244A7F080718E828F83A3A3A343
:10440300A3A3A3E04480024389EC700575080080F0
:10441300598E828F83A3A3A3A3A3A3E05420600C8C
:1044230012175FEA547F7900245F80198E828F838D
:10443300A3A3A3A3A3A3E05410601A12175FEA5423
:104443000F7900240A5001098E828F83A3A3A3A3AB
:10445300F0A3E9800D8E828F83A3A3A3A37401F03D
:10446300A3E41244F47404124734A20050288E8249
:104473008F83A3A3A3A31261E1F9EEFAEFFB122347
:1044830059E9601212636060031244D6EEFAEFFB3F
:104493001217FB750800A9088067EE240CF582E467
:1044A3003FF58322E0450AF0A3E0450B228882F51D
:1044B30083E0547FF0A3E054FC22F582E4350BF54E
:1044C300831264CCEE22A3E0F9850A82850B831262
:1044D30061DB221244DD12493322EE240FF582E41C
:1044E3003FF58322A3A3A3A31244EF2212650FE097
:1044F300221244F822124A0CA3A3A3227403120F1C
:104503007F7F06020CF074F4120A7774F7120FFD22
:104513007E0012236BEA4B70030245BC8A828B83B5
:10452300A3A3A3A3A3A3A3A3A3E0640660030245D9
:10453300BC8A828B83A3A3A3A3A3A3A3E0FF8A8242
:104543008B83126AEEE0C0E07408121260D0E012AE
:1045530048E4125DF5125E0812237DEF540860579C
:10456300851882851983125EE27A007B0012234D3F
:10457300EA4B7043126B577C007D007A007B00800E
:10458300228E828F831253EEF47003A3E0F460272C
:104593009013E11245C11248C6601C7C007D00EEF9
:1045A300FAEFFB12234D8A0A8B0BAE0AAF0BEE4FC9
:1045B30070CF7900121E6D7E01EEF90237A212450B
:1045C300C522E0FCA3E0FD8E828F8322C082C083DC
:1045D3008A828B83E5824583700990144680068A1C
:1045E300828B83A3A31247E760208A828B83A3A3D2
:1045F300A3A3A3A3A3E0540860E5EC4D6010124706
:10460300ED7003A3E06D70D780047A007B00025540
:104613006074F2120A778A088B09890AECFEEDFFAF
:104623007A147B001217F5EA4B60378A828B83A3D7
:10463300A3A3A3A3A3A3A3A3E4124685E50A124855
:10464300D0EEF0A3EF1246751248EB12467C8A8235
:104653008B83126B6F12466812625EA312466FF071
:10466300A3F0024504EA240FF582E422126B2AA385
:10467300A3221248D6E4F0A322A3F0126AE712623F
:104683005E22124689221248DAA3A3A3A32274F559
:10469300120A77EAFEEBFF890A8C088D09EA4F605C
:1046A300757401697012790112235FE9F8902F572D
:1046B300E493C3985015800A740469700912471E65
:1046C300500979118052740269704B8E828F83A3D3
:1046D300A3A3A3A3A3A3A3A3E50A12472D124E03E7
:1046E3001263E8A3E4F0A3F0901446126367601822
:1046F30080031264C888828983A3A31247E7888250
:104703008983A3A370EC8003901446EEF0A3EF1209
:1047130047347900800279C1024A1F790412235F6A
:10472300E9F8902F56E493C398221263ECA3A3A352
:1047330022F07A207B0090142EE0F91217A722C0F2
:1047430082C083E9F87900901446801D8A828B83A6
:10475300A3A3A3A3A3A3A3A3A3E068600574FF6813
:104763007001098A828B83A3A31247E770DE025587
:104773006074F7120A77EA4B700590144680068A34
:10478300828B83A3A31247E7601F8A828B83A3A331
:10479300A3A3A3A3A3A3A3E06970E4EC600F8A829D
:1047A3008B831247B370D880047A007B000248C120
:1047B300126B07E0540422C082C083901446800623
:1047C3008A828B83A3A31247E760128A828B83A317
:1047D300A3A3A3A3A3A3A3E06970E580047A007B4A
:1047E300000255601261DBEA4B228A828B831253EB
:1047F300F26C2274F2120A778A0A8B0B8C0C8D0DE1
:10480300750800750900EA4B602A90144680068EED
:10481300828F83A3A312483E601AAC0CAD0DEEFA4F
:10482300EFFB850A82850B83120C02E9640170DFBA
:104833008E088F09AA08AB09024504E0FEA3E0FF36
:10484300EE4F2274F7120A779014461264C87C0064
:104853007D00800DE8FCE9FD88828983A3A31264AF
:10486300C8E8496030EA687002EB6970E790144663
:104873001261D7E86A7002E96B88828983A3A37007
:10488300081264C890144680091264C88C828D8310
:10489300A3A3125E08802774F7120A77EAFEEBFFE0
:1048A300EA4F601512237712491F126360600312E7
:1048B30044D6EEFAEFFB1217FB8003120F7F7F0142
:1048C300020CF01261DB121E61E9641A221248D64F
:1048D300A3A3221248DA22F08A828B83A3A3A3A381
:1048E30022126B2A1253F222124689A32274F61261
:1048F3000A779014461264E4801412650112491F6A
:104903001244D6EEFAEFFB1217FBAE08AF09EE4FD7
:1049130070E8901446E4F0A3F00258D08E828F839F
:10492300126ADBF5831249338E828F831249332255
:10493300E0FAA3E0FB1217FB22C082C083EAFCEB80
:10494300FDEA4D6017EA24FBF582EB34FF12636541
:104953007007124991E0F4600712176B7905802BF9
:1049630090142EE0C0E0124991D0E0F0902F4EE475
:1049730093F97A487B141217A1E96401700B7A004A
:104983007B201249A0790080027904025560EA2451
:10499300FFF582EB34FFF583227A207B0090142EFF
:1049A300E0F91217A72274F4120A77A2AFE433F5E1
:1049B30008C2AF90144812483E6038EE24FBF582DB
:1049C300EF34FF1263657A007B2090142E6005128A
:1049D30049A38005E0F91217ADE4F50AF50B780A4F
:1049E300120F6CEEFCEFFD7A487B1412179B7402D6
:1049F300120F7FE508A2E092AFEEFAEFFB0237A7B2
:104A0300124A08E022124A0C22124A16A3A3A3A3B5
:104A1300A3A322F08E828F8322120F7F7F03020CC7
:104A2300F074F2120A7774FA120FFDEAFEEBFF75C7
:104A330008FE7509FF12233BE960057911024BA6B5
:104A43001250C6603C9015E4E0C43354E0F8E03300
:104A53003354FC48C0E0EE125AD53FF583D0E01240
:104A63006523FAA3E0FB79FF122113EA4B60127569
:104A730008FFEE240F1250C94404F01250C6D2E0CE
:104A8300F08E828F83124BDF6006EE241212653B99
:104A9300EE24131250C9700D902F4CE493C0E01212
:104AA3004BB5D0E0F08E828F83E0A2E7500454032D
:104AB3008019EE24141250C970129013C0E0C0E0A4
:104AC300124BABD0E0F09013C0E004F0EE241112CF
:104AD30050C9640170169015CEE0600D9013CBE0C1
:104AE300700A8E828F83E070031265388E828F8303
:104AF300E064017013EE240B1253E864027009EEB4
:104B0300240F1250C94440F0AC18AD19EEFAEFFB74
:104B13001223A78A0A8B0B74FE6508700374FFF4D3
:104B23007003126501EA4B60768E828F83E0C0E0EA
:104B33007401121260D0E0F07404121260EEF0A35C
:104B4300EFF0EE241E1264C27402121260125E08A9
:104B53007401120FCD880C890D780C120F6CEE24A2
:104B630020124BC8120F70124BC3120DBFEE240E4E
:104B7300124BC8120F709013D4120DBF7408121287
:104B830060E0F9AC08AD091223A17408120F7FE9A4
:104B9300FE74106E700BAA0AAB0B1217FB80027E19
:104BA30010EEF97406024501EE2414F582E43FF594
:104BB3008322EE124BBA222413F582E43FF58322BB
:104BC300EE1244DE22F582E43FF583E0F50C780C27
:104BD300228E828F83A3A3A3A3A3A3A3A3A3124B76
:104BE300E522E0FAA3E0FB122443E922C082C0835A
:104BF30074D7120FFD9080927403120FDD74261286
:104C03000E908A828B83A3A3A3A31264C8740E128B
:104C1300126012636D1264C8740C121260124CE8B5
:104C2300240D124CD8C0E0741A121260D0E0F012B6
:104C330062641264C67420121260124CE8241512C6
:104C43004CD8C0E07408121260D0E0F0EA241CF5DE
:104C530082E43B1264C67412121260124CE82411EF
:104C6300124CD8C0E07409121260D0E0F0EA2412AA
:104C7300124CD8C0E07407121260D0E0F0EA241E90
:104C8300F582E43B1264C67424121260124CE824C9
:104C930020124CD8C0E07426121260D0E0124CE00F
:104CA30074FFF0740112126074FFF0740212126048
:104CB30074FFF09081A2120DBB7404120FDD740710
:104CC300120FD5121F997404120F7F7900742912E1
:104CD3000F7F025560F582E43BF583E022F08518EF
:104CE3008285198322E8F0A3E9F0EA2274F4120A18
:104CF3007774EC120FFD8A0A8B0B8C088D09E9FF80
:104D03007E107A217B001217F5851882851983EAB4
:104D1300F0A3EB126377E8497003024DFC7C217D1D
:104D2300007900851882851983E0FA1217539013CE
:104D3300E11261D7851882851983125EE62409F58D
:104D430082E438F58312632374201212601264C85C
:104D53007411121260E812545712632938F58374E0
:104D63000212545A126AF57402125444124E031278
:104D7300545A126AD2EFF07422121260125405F9D7
:104D8300A3E0C91267CC39F583E812511AA3E0C92D
:104D9300241FF582E439124E0A7423121260126141
:104DA300D774061212601263237408121260E8F0BB
:104DB30074261212601262FDC082C083740C121238
:104DC30060AC82AD83D083D0827405120E907425BB
:104DD300121260E0C0E07413121260D0E0F07900A8
:104DE300AA18AB19122341E9640170047E008009FB
:104DF3008518828519831244D9EEF974140237A4F5
:104E0300E508F0A3E50922F583E50AF0A3E50BF035
:104E13002274F0120A7774FF120FFDEAFEEBFF8C87
:104E2300088D098A82F583A37408F0EA24161250C8
:104E3300C960088A828B83A37410F0EA2417125086
:104E4300C960098A828B83A3E02408F0EA1250C761
:104E530060088A828B83A3E004F08A828B83A3A3F6
:104E6300A3A3A3A3E060198A828B83A3A3A3A3A311
:104E7300A3A3E0C3332402F88A828B83A3E028F040
:104E8300EA24111250D16004740E8001E4F09015ED
:104E9300DCE0640170168A828B83E06401600D900C
:104EA300134DE060071250B1740180041250B1E455
:104EB30012511A8A828B83A3E0F8EA1233692829F4
:104EC3008C828D83F0EA24111250C960051256F2C8
:104ED30029F0850882850983E0C394754009750C20
:104EE30000750D000250A8E0FA7B001217F58A0C3A
:104EF3008B0DEA4B70030250A88E828F83E0FA90E9
:104F030013D11251137402780812112EEA4508FACC
:104F1300AB09EE241212510D7406780812112EA853
:104F230008EA48FCEBFD1250C66004780180027861
:104F330000EE2416FAE43FFBE4C8F9ED49FDEE2444
:104F4300111250C9F50888097409780812112EED59
:104F53004509FD8A828B83125113740B7808121151
:104F63002EED4509FDEE241712510D740C7808122D
:104F7300112EED4509FD8E828F83A3A3A3A3A3A3C3
:104F8300125113740A780812112EED4509FDEE240F
:104F93002312510D740D780812112EED4509F9EC09
:104FA300850C82850D83F0E9A3F0EE24021250F004
:104FB30012512FF0EE24041250F0A3A312512FA389
:104FC300A3F0EE2413125100F0EE2414125100A3A7
:104FD300F0750B088A828B83E060151263D9125E29
:104FE300E2E50C2408FAE4350DFB1218FD750B10ED
:104FF300EE24171250C96019125F65125EE2A80B06
:10500300E50C28FAE4350DFB1218FD7408250BF5A1
:105013000B8E828F83A3A3A3A3A3A3E0604EEE24EE
:1050230007F50EE43FF50F850E82F583E0C0E0122D
:1050330050DFD0E012511FE0C0E0081250E1D0E091
:1050430012511FA3126353120F68850E82850F83BB
:10505300E01253B9A80BE50C281250BB120F7F8541
:105063000E82850F83E0C333250BF50B1250C66008
:1050730008C0E01250DFD0E0F01256AF12635312B3
:105083000F68123368FC7D0074031212601250E83B
:10509300E0F8E50C28F8E4350DF9E82AFAE43912CA
:1050A30050BF120F7FAA0CAB0D740102633CEA24BC
:1050B30023F582E43FF58322FAE4350DFB1217470B
:1050C300740322EE2415F582E43FF583E022F58292
:1050D300E43FF583E085188285198322A80BE50C4C
:1050E300281253CC22E0FA8E828F83A322F8E43F66
:1050F300F98882F583E0850C82850D8322F582E4AD
:105103003FF583125139A3A3A322F582E43FF5832C
:10511300E0F50875090022126B18F922F0050B8ED1
:10512300828F83A3A3A3A3A3A3A3A322A3A31265F1
:105133000FA312513922E0850C82850D83A3A3A30B
:105143002274030237A41264CC8E828F83A3A3221A
:1051530074F0120A7774FD120FFD12631D740212AC
:105163001260E9F08C0C8D0D750B017C267D0079A6
:1051730000AA0CAB0D1217537402121260E0C39411
:105183000850030253421250F8F0AC0CAD0D8518D1
:10519300828519831253EEFA851882851983125A70
:1051A300141256EBE96003750B0085188285198389
:1051B3001262FD12540FE0F9EA850C82850D83A378
:1051C300A3A3A3A3A3A3A3A3F0A3E9125444A3A358
:1051D30012540FA3A3E0F9E50C12637CEA125457AF
:1051E300125ED2C0E0E50C2411126B50D0E01254D1
:1051F3005A2407F582E438F583E0C0E0126B4CD003
:10520300E0126310740812543BA3E06026851882F1
:10521300851983E02408F8A3E03400F9E50C24138E
:10522300F582E4350D125E06850C82850D83A3E0BD
:105233002408F0850C82850D83A3A3A3A3A3A3A3B2
:10524300A3E0602A850C82850D83A385820E858366
:105253000F1253FCF8A3E03400F9E50C125AD535CC
:105263000D125E06850E82850F83E02408F012532B
:10527300C0E4F01253D4E4F0A3126310A3A3A3A3D6
:10528300E06011125420850C82850D83A3A3A3A390
:10529300A312544CE50C1253E1E0700302532E1297
:1052A3005420FA1253C0EA12544CF8851882851917
:1052B30083E028FBA3E034008B82F583E0F8E50C60
:1052C300241A126B50E812544CE8C39AE50C50565A
:1052D3001253DCF8902F4FE493C39850047E0C8054
:1052E30006E50C1253DCFE850C82850D831253FBFD
:1052F300F508A3E03400F509750A007808120F6871
:10530300EE1253B97A167B091250C0120F7F125353
:10531300D47416F0A37409F0EEC333F8850E8285B6
:105323000F83E02880041253E1E4F0850C82850D9D
:1053330083A3E0F8850C82850D83E0C3985004793C
:105343000080701253FBFAA3E03400FBE50C1265F6
:1053530032126B53126323850C82850D83E0C3984D
:10536300C0E0E50C2417126B50D0E012543BE06010
:1053730040E50C2417FEE4350DFF8E82F583E0240F
:10538300F2F0E50C241DF8E4350DF98882F583E08D
:10539300240EFAA3E03400FB8882898312632390EE
:1053A30013CCE0F9122299E9F88E828F83E0C39837
:1053B300F0A90B02633A25E0FCE433FD22E50C126D
:1053C30053C62224191253CC22F582E4350DF583FA
:1053D30022E50C241B1253CC221253C6E022126383
:1053E3000A1253CF22F582E43FF5831253F22212BD
:1053F30064D1F5838882E022A3125400221254055B
:105403002822E0F8851882851983E022A3A3E0FA15
:10541300851882851983126303A3A3A322850C82B3
:10542300850D83A385820E85830F125400FAA3E0B2
:1054330034008A82F583E022126314A3A3A3A3A3F7
:105443002212545FF583888222F0850E82850F83B2
:10545300E004F022F0A3E912545FC822126B1CF897
:10546300A3E02274F4120A778A088B09EA12550F13
:10547300A3A3F0EA1313543F125502A3F0EAC41393
:105483001312550F1255197409780A1211DC1254AC
:10549300F9A3A3A3A3A3A3F0EB1254FB125518740F
:1054A3000A780A1211DCE50A5401C0E0EC12630A1F
:1054B3003DF583D0E012551D740B780A1211DC12EE
:1054C30054F9125516740C780A1211DC1254F9A30C
:1054D300125516740D780A1211DCE50A5401C0E066
:1054E300EC2424F582E43DF583D0E0F0740E7808D3
:1054F3001211DC023793E50A54018C828D83221248
:105503005508A3A322540F8C828D832254038C82CB
:105513008D8322A3A3A3A3A3A3A3F08A0A8B0B22A5
:10552300C082C08379008A828B83A3A3A3A3A3A38E
:10553300E09013CB600EE0701F8A828B83A3A3E0FD
:1055430070168012E060111261CA9013D4E06A7081
:1055530003A3E06B6002790180031261D7D083D08B
:1055630082020F1474F2120A778A0A8B0B890CECED
:10557300FEEDFF8A828B83E0FA1256EB850A828561
:105583000B83A3A31256DFE0F9EA8E828F83A3A3D2
:10559300A3A3A3A3A3A3A31257041256DFA3A3E0B9
:1055A300F91256AFEA125704A3A3E0C0E0EE2411A8
:1055B300F582E43FF583D0E012570BA3A3A3E0C029
:1055C300E0EE2412F582E43FF583D0E01263E87441
:1055D3000812472DA3A3A3E06017E50A2408F8E403
:1055E300350BF9124BB5E8F0A3E91263E8E02408A0
:1055F300F08E828F83A3A3A3A3A3A3A3A3E0601826
:105603008E828F83A31256CEEE2415125E02850876
:1056130082850983E02408F08E828F83A3A3A3A34A
:10562300A3E060248E828F83A3858208858309E0AB
:10563300F8E50A28F582E4350B1256C3A3A3F085D7
:105643000882850983E004F0EEFAEFFB1223B9E93F
:10565300F50D70498E828F83A3A3A3A3A3A3125630
:10566300BDA37014E0F8E50A28FAE4350BFB1256E3
:10567300A5126323E50C801A1256CEE8240EF850C7
:105683000109EE241D125E021256F2F9E50CC399CC
:1056930024F2C398C0E0EE125F5CD0E0F0A90D02E3
:1056A3004504EE241DF582E43FF58322EE1256B441
:1056B30022240BF582E43FF58322E08E828F83223E
:1056C300F583E08E828F83A3A3A32285820885833B
:1056D30009E0F8E50A28F8E4350BF922E0FA850A2F
:1056E30082850B83A3A3A3221265441223B32290C2
:1056F30013CCE0F9122299E9F8850882850983E041
:1057030022F0A3E912570B22F0850A82850B83A3AB
:10571300A3A3A322C082C0837A547B1479E2121E0E
:10572300377A547B14025560C082C0839013D4022D
:10573300555DC082C0839013D702555DC082C0837C
:10574300794A121E3702556074F6120A7790145C78
:10575300E0FE04F0EEF912236BEA4B70F0EE60ED1D
:10576300F90258D074F2120A77EAFEEBFF8C088D27
:1057730009890A1224A9740E121260E0F9740F1237
:105783001260E0F8EA4B7012E8701BA90AAC08AD8E
:1057930009EEFAEFFB1224C78065E86017E970068B
:1057A3008A828B83E4F07401687054E990145F700B
:1057B30024E4801EE97048EA2402124CD8A80A287F
:1057C300F8E4340013E813F070358A828B83A3A3C3
:1057D3007401F0802AE004F09015CBE0F890145F98
:1057E300E0C398401AE4F09013D7E06E7003A3E08F
:1057F3006F700CEEFAEFFB7901121FBD1258050210
:1058030045047A017B0090142EE0F91218CD22741E
:10581300F4120A778A088B098C0A8D0B908192788F
:105823000812106870077A0112499E801E9015B8FD
:1058330078081211FAEA4B4C4D600D7808120F6488
:10584300123542120F7F80031258050237A7C08218
:10585300C0839015BC02424FC082C0839015BE0224
:10586300424F74F6120A777E007508C075091378E3
:1058730008120F6C7C6E7D007A217B0012186D7408
:1058830002120F7FE9640A70027E01121F1BE96492
:105893000A7004EED2E1FE900487126367600F1270
:1058A3005A15120C02E9640A7004EED2E3FE1221C7
:1058B30025E9640A7004EED2E4FE121DB9E9640A14
:1058C3007004EED2E5FEEEF98003120F7F7F020231
:1058D3000CF074F6120A771217177508C0750913BE
:1058E3007808120F6C75086E7509007808120F6C32
:1058F300125912120F7F121F2190048912636760DD
:1059030006125A15120C0212212B121DCB80BE7CDB
:10591300007D007A217B0012187974042274F61238
:105923000A7774FF120FFD7E007508C0750913789E
:1059330008120F6C7C6E7D007A217B0012186D7447
:1059430002120F7FE960030259EC7808120F6C759D
:10595300086E8E097808120F6C7C007D007A217B1B
:105963000012187F7404120F7FE9707D9013D4E046
:1059730064FE7003A3E0F460707E019013E3E064BF
:10598300086005E06404705C851882851983EE1253
:105993005A2C7AEB7B137943121E3D7AE87B1379F9
:1059A30047121E3D7AD97B13794A125A077AE17B53
:1059B300137950121E3D7AD47B137953121E3D7A0C
:1059C300E97B137954121E3D7AD67B1379E1121EBB
:1059D3003D9013CEE0A2E35004D2F08002C2F01255
:1059E3005A1980051217177E00121F0F90048B128D
:1059F30063676006125A15120C02122137EEF9740E
:105A0300010258CD121E3D7AD77B13794B121E3DEE
:105A130022A312630422A2F0E4338518828519833A
:105A2300125A8B7952121E3D22125A8B7942121E40
:105A33003D2274F6120A77E9FEA2E0501C7508C0F5
:105A43007509137808120F6C75086E7509007808CC
:105A5300120F6C125912120F7FEEA2E35003121FA2
:105A630015EEA2E2500E90048D1263676006125A7F
:105A730015120C020258D012231D7A317B1479457A
:105A8300121E3D22125A8B22F0AA18AB192274F768
:105A9300120A7774ED120FFDE9FE90142DF0AC1885
:105AA300AD19125ABD7412121260EE125ACAAA1814
:105AB300AB19125A7A74130248BE9015FEE0F97AB4
:105AC300317B1412232322F09015FEE0F97C317D03
:105AD30014222415F582E422126AE83509F583229B
:105AE300EFFB90142EE0F912177122EE2416125ACE
:105AF300F522F582E43FF5837401F022126AE73F51
:105B0300F583125B09221264D1F98882F58322742A
:105B1300F4120A778A088B097A007B041258091257
:105B23005BB49013E37409F012614C123C131261DD
:105B3300D7126158640170677A0F7B001217658A68
