:020000040000FA
:0600000002119E0207B28E
:03002B00020EFFC3
:030053000206E1C1
:1000830002074301010020FD000200007E1500006D
:1000930000000000E41500000000000066150000E9
:1000A300000000000000000000000000000000004D
:1000B3000000000000000612FFFF01AD0E0000006B
:1000C30001BC19C2190000C819CE190000000000B4
:1000D30000000000001020202020202020202020CD
:1000E3002020202020200114001E01040100010013
:1000F300086A8001F7810101010400EE0E0000008F
:10010300E8030000FFFF960FE803000064006400AB
:10011300B801A0BB0D00A0BB0D0002020008000047
:100123000502070401051E02051E020A0A0108084A
:1001330003B80B02803E0102FEFFE8030A0500013B
:10014300FFFF020A1401E005030101FF122C000066
:100153000000E02A00000000FF000000FF00121171
:10016300AE601D1211BD7005191919801A121063A2
:10017300701F121077C37003E6673319191940070C
:100183001818182208080874FFF618F618F618F657
:1001930022121077601712124B702192F012125430
:1001A3007019501720F014080808090909E7F61810
:1001B30019E7F61819E7F61819E7F6221212546030
:1001C300E6E869701F0808E62480F608E436F618A6
:1001D300547FB47F0CE654806007F6E418F618F6F3
:1001E30022181822E9C6CC08C6CD08C6CE08C6CF49
:1001F300C0E0E8C0E0EAC0E0EBC0E009E9F809E7E5
:10020300FA09E7FBE6F918E6F8C3EC98ED99EE9ADC
:10021300EBC2E7F5F0EFC2E795F0500E600CEBCFC1
:10022300FBEACEFAE9CDF9E8CCF8EAA2E7D2E7FA9D
:10023300EB33FB13F5F0EEA2E7D2E7FEEF33FFC596
:10024300F013A2E730E601B313C5F0C3C0E0C0F07A
:100253007F00C39BFB605E9418600F401D14601AFF
:10026300D0E023F9D0E0F80203428AF0E9486003C2
:10027300D2F0E4AFF0FAF9F8803BEB30E40D89F00B
:10028300EA6003D2F0E4AFF0F9CAF8EB30E30D888B
:10029300F0EF6002D2F0AFF0E4CAC9F8EB540760A4
:1002A30014FBC3EA13FAE913F9E813F8EF13500246
:1002B300D2E0FFDBEDD0E0C0E030E739C3E49FFFDD
:1002C300F5F0EC98FC42F0ED99FD42F0EE9AFE4217
:1002D300F0D0E0F9D0E0F8E5F0607AE923F9EE2018
:1002E300E742D8028067C3EF33FFEC33FCED33FD05
:1002F300EE33FE80EAEC28FCED39FDEE3AFED0E069
:1003030023F9D0E0F84002801BC3EE13FEED13FD8A
:10031300EC13FCEF135002D2E0FF08B800067F7F16
:1003230074FF802EEF3350178CF020F00260100C16
:10033300BC000C0DBD00080EBE000408E860DFE938
:1003430033E813FFEE2313FE4F4D4C8008E954802E
:10035300FFE4FEFDFCEE33EF33F47004FCFD7E801E
:10036300D0E0FBD0E0FAD0E0F8D0E0CFC618CEC69C
:1003730018CDC618CCC6F9221211AE70041818187D
:10038300221211BD700D74FFF61819F61819F6181C
:1003930019F622E7548066F6121254700F12124BAC
:1003A30070F014F608F608F608F680D112124B70B6
:1003B3000CF608F608768008E6447F80EC12107A83
:1003C300700C12106660BFE65480F6E480BB121016
:1003D30066700519191980A5E869700C763F1876BF
:1003E3008018F618F6E8F922E6CDC0E018ECC0E074
:1003F300E633CD33CDD313F6E719FCE7191933CC24
:1004030033C3947F400ECD9D502408E65480F6E418
:1004130018F6800FF4043D14501408E6447FF618D0
:100423007680E418F618F6D0E0FCD0E0FD22CCD3B9
:1004330013CCFD18E4C6CBC0E018E4C6CAC0E0087C
:1004430008ED08C633E613F618E433C675F003C3A4
:10045300CA97CA09CB97CB199C40047D08802EBD4F
:10046300000302052416B6FF050606081618C3CABC
:1004730033CACB33CB33CA27CA09CB37CB193CC3D7
:100483007D08803E187D0820E75CC633C6CA33CAA0
:10049300CB33CB33DDF1D5F0EB30E77BCA97CA0919
:1004A300CB974ACB199C406F4B7025E620E0218007
:1004B30066187D08C3CA97CA09CB97CB199CD3C6C4
:1004C30033C6CA33CACB33CB3350C9DDE7D5F0E1EA
:1004D300D3E4C636C608C636C608C636C608C63608
:1004E300C61818188031C3CA97CA09CB97CB199C71
:1004F300B34097C633C6CA33CACB33CB33DD34D507
:10050300F02EC6A2E0C640C8CA27CA09CB37194A8B
:1005130070BECB3CB480B90808E63308E633601FED
:10052300181818D0E0FAD0E0FBD0E0FCD0E0FD22B0
:10053300187D08CA27CA09CB37CB193CD38080134F
:10054300F618E4B67F11F618B6FF0EF618C6047057
:10055300D20808768080CAF618F618F680C500120D
:1005630011AE604F1211BD6012E7548066F612108F
:1005730063701112124B703B090909F4F618F6184F
:10058300F618F62212107770151212540808086034
:10059300EAE6447FF618768018E4F618F62212127B
:1005A30054601612124B7012E4F608F608F608E6C9
:1005B3005480F609090918181822EAC0E0EBC0E0D4
:1005C300ECC0E0EDC0E0E687F0A4FBACF008E68702
:1005D300F0A42CFCE435F0FA1809E687F0A42C4BC0
:1005E30060027401CA35F0FCE433FB09E687F0D2FC
:1005F300F7A42CCB35F0FC1908E687F0A42BCC35F7
:10060300F0FBE433FD0819E687F0D2E7A42C4ACBCC
:1006130035F0CD3400FC09E687F0D2E7A42DCC35C4
:10062300F0FDE433FA0918E687F0D2F7A42CCD35B0
:10063300F0CA3400FC08E687F0D2E7D2F7A42ACC4C
:1006430035F07A7E20E70B0ACB33CBCD33CDCC33D9
:10065300CC33CB3350147004ED30E00ED2F1E4CD43
:100663003DCDCC3CCC3B5005DA05C2F1EB547FC603
:100673003308E63392F0FBE73309E733C39A502D8F
:100683002B70190C0D4C4D70151806E608C333700A
:100693000D20F10AA2F013F6E418800B4024E4F6CF
:1006A30030F002768018F618F618F68024D33B143F
:1006B300501074FFA2F013F6187680E418F618F6BB
:1006C300800FA2F013F618E63303F618ECF618EDD4
:1006D300F6D0E0FDD0E0FCD0E0FBD0E0FA22C0E0B1
:1006E30074F1120B38A2AFE433F509D2AF85A70832
:1006F300AFA1EF5508FE74105E60061212EA75A1F1
:10070300EF74085E60081212F075A1F78024EFA25F
:10071300E092F0E508A2E082F05017906198E0F8CB
:1007230090034AE0C398A2D265D0335002E8F07533
:10073300A1FE751A00E509A2E092AF7F02020B97B2
:10074300C0E074F2120B38A2AFE433FED2AF906173
:10075300A4E0F8759B00E59158540860087591F77B
:100763001213388023E59158541060087591EF12E5
:10077300133E8014E591A2E092F0E8A2E082F050EB
:1007830007E0C2E0F01214949061A3E0F8E5E958A1
:100793005404600E12146A75E9FB906193E0A2E6BB
:1007A30040F2751A00EEA2E092AF7F01020B97C0F0
:1007B300E074F2120B38A2AFE433FED2AF9061A51E
:1007C300E0F8E5BF585404600675BFFB1214AC8013
:1007D300D1C3E498F8E499F91208158026C3E49A82
:1007E300FAE49BFBE920E7E9120815E498F8E49999
:1007F300F922C3E498F8E499F9120815E498F8E4A7
:1008030099F9C3E49AFAE49BFB22EB20E7CFE920B2
:10081300E7E0B90010BB0008E88AF084F8AAF022E8
:10082300E4FBC8FA22EB70227B10C833C8C933C972
:10083300335007C39AC3DBF280069A50012ADBEADE
:10084300C833F4C8C933F4C9FA2275F008E4C833CD
:10085300C8C933C933C99AC99B5004C92AC93BD5EE
:10086300F0ECFBC833F4C8E4C9FA221208AE20F056
:100873001430E72B74FFFCFBFA747F8022E4FCFB4B
:10088300FA7480801AB48008BC00F2BB00EF800FBA
:1008930050EBF9E4C39AFAE49BFBE49CFCE499C6AD
:1008A300CC18C6CB18C6CA18C6F922E4C9C608CAEA
:1008B300C608CBC6D3330308CCC63392F0C3947FA8
:1008C300402E94184019C9B90704CACBCC2250252D
:1008D300C309CA33CACB33CBCC33CC33D9F422F4D8
:1008E300600DC9CCC313CB13CBCA13CAD9F6CC2220
:1008F300E4FCFBFA2214FCFBFA22080808EAC0E035
:10090300EBC0E086F0E7A4FA180986F0E7A42AFA18
:10091300180986F0E7A42AFA180986F0E7A42AFA48
:100923001986F0E7A4FBE5F02AFA190886F0E7A494
:100933002BFBE5F03AFA190886F0E7A42BFBE5F068
:100943003AFA18180986F0E7A4C5F02BFBE43AFA43
:100953001908E7C5F0C6A426F6E5F03BFBE43AFA2E
:100963001886F0E7A4F6E5F00826F6E43B08F6E47B
:100973003A08F6D0E0FBD0E0FA22080808E630E7B0
:100983001112104F120995080808C64480C618189A
:100993001822181818E9799EC608CAC608CBC608D3
:1009A300CCC6C370207996CACBCC7019798ECBCCC8
:1009B30070137986CC700EF9802ACA33CACB33CB35
:1009C300CC33CC331930E7F2CCCBCA335014700498
:1009D300EA30E00DE4CA3ACACB3BCBCC3CCC500264
:1009E30009C3E913C6CC182313C6CB18C6CA18C645
:1009F300F922E4CFC0E0E4CEC0E0E4CDC0E0E4CC33
:100A0300C0E075F020E626F608E633F608E633F68E
:100A130008E633F6181818EC33FCED33FDEE33FE1D
:100A2300EF33FFC3EC9709ED9709EE9709EF971999
:100A33001919400FFFEC97FC09ED97FD09EE97FE9E
:100A4300191906D5F0BFECF709EDF709EEF709EF31
:100A5300F7191919D0E0FCD0E0FDD0E0FED0E0FF9B
:100A6300222518C582C0E0E51934FFC583C0E0E53F
:100A730018C3958224F810AF0885831985821880DE
:100A830008858319858218D2AFCEF0A3E520F0A3A1
:100A93007808E608F0A3DEFAEFF0A3E58124FAF87C
:100AA300E608F0A3E608F0A3E608F0A30808E608C2
:100AB300F0A3E608F0A315811581D0E0FED0E0F89D
:100AC300158115811581E8C0E0EEC0E022121236CF
:100AD300B90003020B22E49003017803791080022A
:100AE300F0A3D8FCD9FA781A9000867A01BA0002EA
:100AF3008007E493A3F608DAF97A037B1290008760
:100B030078DB79018015E493A3AD82AE838A828B6F
:100B130083F0A3AA82AB838D828E83D8E9D9E7754C
:100B230082F47583A97404120EE1758250758328CB
:100B33007400120EE1C0D02518C582C0E0E5193457
:100B4300FFC583C0E0E518C3958224F310AF088581
:100B530083198582188008858319858218D2AFC8C6
:100B6300F0A3E9F0A3EAF0A3EBF0A37908E709F017
:100B7300A3D8FAECF0A3EDF0A3EEF0A3EFF0A3D02B
:100B8300E0F0A3D0E0F0A3D0E0F0A3E520F0A3E5EC
:100B9300F0F0A322851983851882E0C0E0A3E0F971
:100BA300A3E0FAA3E0FBA37808E0F608A3DFFAE0EA
:100BB300FCA3E0FDA3E0FEA3E0FFA3E0C0E0A3E00D
:100BC300C0E0A3E0F5D0A3E0F520A3E0A3F5F01087
:100BD300AF08858319858218800885831985821853
:100BE300D2AFD082D083D0E0F8D0E032FF75F010DE
:100BF3008E218F22858226858325851882851983F8
:100C0300E0CEA3E0CF852682852583EBC9EAC8ED34
:100C1300CBECCAC3E833C8E933C9EA33CAEB33CBF5
:100C2300C3EA9EF524EB9FF523B35004AB23AA2418
:100C3300EC33CCED33CDD5F0DAAE21AF2222D08325
:100C4300D082ECC0E0EDC0E0E493A3FCE493A3FD09
:100C5300ED4C600D120D19EC24FFFCED34FFFD800B
:100C6300EFE493A3FCE493A3FDED4C600D120DECB4
:100C7300EC24FFFCED34FFFD80EFD0E0FDD0E0FC81
:100C8300E493A3C0E0E493C0E0228519838518822E
:100C9300E0A3FEE0A3F5207808E0A3F608DFFAE07E
:100CA300A3FFE0A3C0E0E0A3C0E0E0A3C0E0E0A3B3
:100CB300C0E0E0A3C0E010AF0885821885831980E7
:100CC30008858218858319D2AFD083D082020EE7BC
:100CD300D083D082E9C0E0E493A3C386F0C5F09546
:100CE300F0F908E493A386F0C5F095F0700BE49354
:100CF300A3C3994005E9048002A3E475F002A42587
:100D030082F582E5F03583F583D0E0F9E493A3C05F
:100D1300E0E493C0E022C0E0C3E493960874019337
:100D23009618400FE4936670080874019366187070
:100D3300007019A3A3C3E49396087401939618A3B0
:100D4300A3400DD0E0D0E0D0E0020C7DA3A3A3A389
:100D5300A3A3D0E022D083D082C5F0E493A3C5F04F
:100D6300C395F0F5F0E493A3C395F04005E5F004D3
:100D73008001E475F002A42582F582E5F03583F560
:100D830083E493A3C0E0E493C0E02274048004747A
:100D9300028000CCC0E0EDC0E0E518C39CCCAD19E7
:100DA30050011D10AF068C188D1980068C188D19F3
:100DB300D2AF120E63D0E0FDD0E0FC2274028000BB
:100DC300CCC0E0EDC0E0E518C39CCCAD1950011DCB
:100DD30010AF068C188D1980068C188D19D2AF129E
:100DE3000E41D0E0FDD0E0FC22C0E0C0F088F0E48A
:100DF300936670080874019366187000A8F0A3A3A3
:100E0300700BD0F0D0E0D0E0D0E0020C7DA3A3D0F3
:100E1300F0D0E022D083D082CCC0E0E493A360067C
:100E2300120E841470FAE493A36006120FE6147092
:100E3300FAD0E0FCE493A3C0E0E493C0E022CAC08C
:100E4300E0E493A3C582CCC582C583CDC583F0A35B
:100E5300C582CCC582C583CDC583DAE5D0E0CA227D
:100E6300CAC0E0E0A3C582CCC582C583CDC583F0EB
:100E7300A3C582CCC582C583CDC583DAE6D0E0CADB
:100E830022C0E0E493A3D39C5010E493A3C39C40FB
:100E93000AD0E0D0E0D0E0020E34A3A3A3D0E02236
:100EA300C008C3E096F50808A3E096420808A3E04B
:100EB30096420808A3E09645087001D3D008227033
:100EC30009080808226016181818C6C333C608C6CE
:100ED30033C608C633C608C633C6D5E0EA22C09F68
:100EE300F59FE473D09F22D083D082C09FE493C048
:100EF300E0740193C0E0740293F59F22C0E0C0D078
:100F0300E8C0E0A8A8D2AFC2C7751A00E8A2E7926A
:100F1300AFD0E0F8D0D0D0E03200C0D0251810AF69
:100F230008F518500C05198008F51850020519D258
:100F3300AFD0D0222518F58210AF08F518400C1554
:100F4300198008F51840021519D2AF851983227448
:100F530004800A74038006740280027401C0E0F402
:100F630004120F37D0E01211F922BB0102E722C0AD
:100F730082C08389828A83BB0003E08002E493D02A
:100F830083D082226016080808C6C313C618C61386
:100F9300C618C613C618C613C6D5E0EA222518F824
:100FA300E43519F9222518FAE43519FB222518FC32
:100FB300E43519FD22C3E0C696F608A3E0C696F60B
:100FC30008A3E0C696F608A3E0C696F622251810F5
:100FD300AF08F518400C15198008F51840021519CB
:100FE300D2AF22C0E0E493A36C7009D0E0D0E0D08C
:100FF300E0020E34A3A3D0E022E76670100809E7ED
:1010030066700A0809E76670040809E76622E06665
:10101300701008A3E066700A08A3E066700408A3D2
:10102300E06622C3E09608A3E09608A3E09608A32F
:10103300E096A2D265D03322C3E096F008A3E096EF
:10104300F008A3E096F008A3E096F022181818E43D
:10105300C396F608E496F608E496F608E496F622B4
:10106300181818E60846087009E626087005E633DE
:10107300F4220822191919E70947097009E7270912
:101083007005E733F4220922C3E4939608740193AD
:10109300960874029396087403939622C3E697F610
:1010A3000809E697F60809E697F60809E697F6228F
:1010B300E026F608A3E036F608A3E036F608A3E038
:1010C30036F622E627F60809E637F60809E637F684
:1010D3000809E637F622E647F60809E647F608095F
:1010E300E647F60809E647F622E056F608A3E05677
:1010F300F608A3E056F608A3E056F622E056F008F9
:10110300A3E056F008A3E056F008A3E056F022E669
:1011130057F60809E657F60809E657F60809E657A9
:10112300F622E026F008A3E036F008A3E036F00844
:10113300A3E036F022E493F608740193F6087402F0
:1011430093F608740393F622700422600D18C6C345
:1011530033C608C633C6D5E0F41822600D08C6A20C
:10116300E713C618C613C6D5E0F322C3E09608A357
:10117300E09608A3E09608A3E09622C6F4C608C644
:10118300F4C608C6F4C608C6F4C622C3E79608091F
:10119300E7960809E7960809E7962275D000758156
:1011A3003F75180175190300020AD0E6084608C303
:1011B300134608336002E633F422E7094709C313F1
:1011C3004709336002E733F422600C08C6C313C631
:1011D30018C613C6D5E0F422E6F008A3E6F008A388
:1011E300E6F008A3E6F022E0F608A3E0F608A3E0A1
:1011F300F608A3E0F622CAC0E0E6F0A308DAFAD0C4
:10120300E0FA22E0FAA3E0FBA3E0FCA3E0FD22EA7C
:10121300F0A3EBF0A3ECF0A3EDF022E0F8A3E0F9E8
:10122300A3E0FAA3E0FB22E8F0A3E9F0A3EAF0A32A
:10123300EBF022E5C754F84401F5C77901222518DC
:10124300F582E43519F58322E7271947194719472A
:1012530022E62618461846184622C2AF75D69F02C4
:10126300000022120EEAC9C704120EEACEC7041206
:101273000EEAD5C704120EEAD7C704120EEAA8F67F
:1012830003120EEAD4F603120EEA45F903120EEA2C
:1012930085F903120EEAC5F903120EEAD9F903120E
:1012A3000EEAF2F903120EEAE3FA03120EEA88FBDE
:1012B30003120EEA9CFB03120EEA74B804120EEA40
:1012C30098B804120EEAB1B804120EEAE3B8041295
:1012D3000EEA13B904120EEA40B904120EEA4AB92F
:1012E30004120EEAACB904120EEABBB904120EEAF8
:1012F300C5B904120EEAD2B904120EEA5EA70412AB
:101303000EEA7EA704120EEABDA704120EEAD8A7BE
:1013130004120EEAF7A704120EEA5DA804120EEAFD
:1013230066A804120EEAC3A804120EEAE7A8041280
:101333000EEAA8A904120EEAB5A904120EEAC6A978
:1013430004120EEAC0C404120EEAD8C404120EEA50
:1013530004C504120EEA398504120EEA95860412B6
:101363000EEAA28604120EEAB58604120EEACA86B3
:1013730004120EEADF8604120EEAF28604120EEA63
:10138300668704120EEACB8704120EEA538804120E
:101393000EEACF8804120EEA938904120EEAA38997
:1013A30004120EEAB28904120EEA88C304120EEA8A
:1013B300ACC304120EEAD4C304120EEAFCC3041233
:1013C3000EEA12AF04120EEA39AF04120EEA57AF57
:1013D30004120EEACAAF04120EEA8BA404120EEA38
:1013E300A4A404120EEAB0A404120EEAC4A40412C4
:1013F3000EEAE2A404120EEAECA404120EEAF6A426
:1014030004120EEA09A504120EEA8FA504120EEACD
:1014130004A604120EEA33A604120EEA81A60412ED
:101423000EEAD0A604120EEAEBA604120EEAF5A603
:1014330004120EEA06A704120EEA49A704120EEAE2
:1014430046C604120EEA91C604120EEA08DF03121E
:101453000EEA32DF03120EEA4FDF03120EEA62DFF7
:1014630003120EEA78DF03120EEAD6DF03120EEA46
:101473000EE003120EEA02E403120EEA47E503123A
:101483000EEA7AE503120EEADDE503120EEA47E7F8
:1014930003120EEA6FE703120EEA84E703120EEA61
:1014A30094E703120EEAD8E703120EEA33E80312B5
:1014B3000EEA43E803120EEA5DBC04120EEA77BC9F
:1014C30004120EEA9FBC04120EEAB8BC04120EEA20
:1014D300DCBC04120EEAFABC04120EEA11BD0412BB
:1014E3000EEA3FBD04120EEA5ABD04120EEA21C2EF
:1014F30004120EEA67C204120EEA819A04120EEA7B
:10150300919A04120EEA989B04120EEACC9B0412E1
:101513000EEAEE9B04120EEA119C04120EEA2F9CB3
:1015230004120EEA699C04120EEACE9C04120EEA1F
:10153300109D04120EEA4F9D04120EEA809D0412C0
:101543000EEAB79D04120EEA26BB04120EEA44BB50
:1015530004120EEAA9BB04120EEA48BC04120EEAF6
:10156300007F00120EEA8DBD04120EEAD3BD0412F1
:101573000EEAE1B604120EEA20B804120EEAF8C924
:1015830003120EEACACD03120EEAB9CF03120EEA12
:10159300E7D003120EEAC4D103120EEA46D30312B4
:1015A3000EEA16D403120EEA6AD403120EEA16B533
:1015B30004120EEA37B504120EEA69B604120EEAF3
:1015C30093B604120EEA8BAC04120EEAFFAC0412BB
:1015D3000EEA0AAD04120EEA2BAD04120EEA59A567
:1015E30003120EEA5CA503120EEA1CAA03120EEA0A
:1015F30052AB03120EEAA5AC03120EEA69AD031255
:101603000EEA4CAE03120EEA44AF03120EEAF4AF35
:1016130003120EEA24B003120EEADBB103120EEA40
:1016230036B304120EEA48B304120EEA5BB4041292
:101633000EEAE8B404120EEAD5C204120EEA0BC392
:1016430004120EEA25C304120EEA67C304120EEA5B
:1016530077C304120EEA99EF03120EEAD3EF0312D3
:101663000EEA3CF003120EEA59F003120EEA72F08E
:1016730003120EEA14F103120EEA1DF103120EEA2D
:1016830062F103120EEA8BF103120EEA98F10312D0
:101693000EEA09F203120EEA94F203120EEAE2F2E0
:1016A30003120EEA20F303120EEA85F303120EEA85
:1016B300A8F303120EEA1FF403120EEA76F40312E0
:1016C3000EEAB1F403120EEAE6F403120EEAF8F49A
:1016D30003120EEA0AF503120EEA29F503120EEAC3
:1016E30032F503120EEAF2F503120EEA3EF6031286
:1016F3000EEA7CF603120EEAEB8904120EEA2B8B38
:1017030004120EEA4E8B04120EEA5F8B04120EEAE9
:101713005E8D04120EEA7E8D04120EEABEFD0212E5
:101723000EEAF4FD02120EEA3CFE02120EEA95FFE7
:1017330002120EEA008003120EEA248103120EEA5B
:101743005E8103120EEA088303120EEA3283031248
:101753000EEAA78503120EEAE78503120EEA7D87D8
:1017630003120EEA1A8803120EEA6C8803120EEAB9
:101773000F8903120EEA478903120EEA89890312BD
:101783000EEAF88A03120EEA468C03120EEA778EEB
:1017930003120EEAA58E03120EEACC8E03120EEA92
:1017A300D58E03120EEA258F03120EEAB78F0312AA
:1017B3000EEAE69203120EEA699303120EEA21C4BB
:1017C30004120EEA37C404120EEA41C404120EEAEC
:1017D30095C404120EEAB48E04120EEACA8E0412E1
:1017E3000EEA6B8F04120EEAAA8F04120EEAC78F59
:1017F30004120EEAF88F04120EEA459004120EEA60
:10180300789004120EEAB39004120EEAAE92041218
:101813000EEA169304120EEA9DC604120EEAF07F36
:1018230000120EEAA4BF04120EEA03C004120EEA69
:1018330041C004120EEA82C004120EEAC2C50412A9
:101843000EEACAC504120EEA20C604120EEA00808C
:1018530002120EEA0C8002120EEA6E8002120EEAE7
:10186300788002120EEA0B8102120EEA47810212FD
:101873000EEA038202120EEA168202120EEA668250
:1018830002120EEAF58202120EEA2B8302120EEA0C
:10189300AD8302120EEA588502120EEA2C87021259
:1018A3000EEAF88702120EEA7A8902120EEAE38A36
:1018B30002120EEA808B02120EEA289002120EEA3E
:1018C300169102120EEAB49102120EEAD991021293
:1018D3000EEA759202120EEA8A9202120EEAAE9292
:1018E30002120EEA149302120EEA319302120EEA66
:1018F3005B9302120EEAD89402120EEAF9940212D2
:101903000EEA7F9502120EEA259602120EEA6C96F3
:1019130002120EEADF9602120EEA6B9702120EEA29
:10192300CF9702120EEA2F9802120EEAC5980212FE
:101933000EEA409902120EEA739902120EEAD59941
:1019430002120EEA379B02120EEAA79B02120EEA5C
:10195300569C02120EEAAC9D02120EEA429E02123D
:101963000EEAAE9E02120EEAF1A002120EEA7DA268
:1019730002120EEAA8A202120EEA8EA402120EEAC4
:1019830033A602120EEA3CA702120EEADF960412F5
:101993000EEA4F9704120EEA5D9704120EEA6B9853
:1019A30004120EEA73E803120EEA77E903120EEA51
:1019B30026EA03120EEAB8EB03120EEAEEEB031269
:1019C3000EEA42EC03120EEA5AEC03120EEA5DEC45
:1019D30003120EEAA0EC03120EEA15EE03120EEA4E
:1019E300EDC604120EEA0F9E04120EEAC99E0412FB
:1019F3000EEA2F9F04120EEA509F04120EEA22A051
:101A030004120EEAB4FF01120EEA66CF02120EEAC6
:101A1300BECF02120EEA44D002120EEA5AD10212CB
:101A23000EEAA7D102120EEA64D202120EEA7BD2A8
:101A330002120EEACDD202120EEA0AD302120EEA03
:101A43001DD302120EEA73D302120EEACCD3021292
:101A53000EEA5CD602120EEAF3D602120EEA1DD784
:101A630002120EEA55D702120EEA8BD902120EEABF
:101A7300D1D902120EEA1BDA02120EEAEFDA0212CF
:101A83000EEA30DB02120EEA53DB02120EEA9ADB95
:101A930002120EEAB0DB02120EEA31DC02120EEA87
:101AA300B9DC02120EEAC4DC02120EEA14DD0212E1
:101AB3000EEA6EDD02120EEAA9DD02120EEABFDEA5
:101AC30002120EEA4DE102120EEA80E202120EEA5F
:101AD300BBE202120EEA88E302120EEAD2E302121A
:101AE3000EEAD5E302120EEADEE302120EEAF0E397
:101AF30002120EEA71E402120EEAA7E402120EEADF
:101B0300D3E402120EEAFAE402120EEA1EE502120E
:101B13000EEAB5E502120EEACEE502120EEAE4E59C
:101B230002120EEA05E602120EEA33E602120EEA8A
:101B330053E602120EEA90E602120EEAC7E602121A
:101B43000EEAC6E702120EEAF9E802120EEA0FE9FC
:101B530002120EEA26E902120EEA45C504120EEA43
:101B630051C504120EEA8DC504120EEA0080041258
:101B73000EEA3E8004120EEACA8004120EEAD581F0
:101B830004120EEAF18304120EEA6E8404120EEAC2
:101B93005EEF01120EEA81EF01120EEA65F0011207
:101BA3000EEAAEF001120EEA06F101120EEA62F13C
:101BB30001120EEAAEF101120EEA24F201120EEA4C
:101BC300B2F201120EEA2AF301120EEA6DF30112C8
:101BD3000EEA7EF701120EEAC5F901120EEAFFF9C9
:101BE30001120EEAEBFA01120EEABFFB01120EEA32
:101BF3003BFD01120EEAD1FD01120EEAB693031268
:101C03000EEA569403120EEAC09403120EEAD99414
:101C130003120EEA5B9503120EEA9F9503120EEA76
:101C2300B79603120EEAF39603120EEA70970312A5
:101C33000EEABB9703120EEA1F9803120EEA52999B
:101C430003120EEA809A03120EEAF99A03120EEABD
:101C5300D19C03120EEA719D03120EEA149E031225
:101C63000EEA739E03120EEAE89E03120EEA4CA0DC
:101C730003120EEAE5A103120EEA25BF04120EEACF
:101C8300FBA203120EEA10A403120EEA38E90212B1
:101C93000EEAB0E902120EEAF8E902120EEA3CEA91
:101CA30002120EEA85EA02120EEACFEA02120EEAE5
:101CB30004EB02120EEA82EB02120EEADCEB0212D2
:101CC3000EEA35ED02120EEABEED02120EEA1AEE2C
:101CD30002120EEA34EE02120EEA5BEE02120EEA72
:101CE300B3EE02120EEA1DF002120EEA3CF00212EB
:101CF3000EEA64F102120EEA33B304120EEA4EF254
:101D030002120EEAB0F202120EEA60F302120EEAB7
:101D130032F502120EEA1DF602120EEA17F702124C
:101D23000EEA1DF802120EEA39F902120EEA47F919
:101D330002120EEA20FA02120EEAC0FA02120EEAA8
:101D430004FB02120EEA19FB02120EEA2AFC02122B
:101D53000EEACDFC02120EEA25FD02120EEA2393CF
:101D630004120EEACB9404120EEA889504120EEACA
:101D7300DD9504120EEA5A9604120EEA88A10412A3
:101D83000EEAA3A104120EEAE7A104120EEA0DA2C1
:101D930004120EEA33A204120EEA4BA204120EEA54
:101DA300AEA204120EEAC3A204120EEAE5A30412C1
:101DB3000EEAEEA304120EEAF7A304120EEA00A43D
:101DC30004120EEAB0FB03120EEA90FF03120EEAAE
:101DD30095FF03120EEA97FF03120EEA18AB0412E3
:101DE3000EEA71C704120EEA77AB02120EEACEAB0B
:101DF30002120EEA3AAC02120EEAC6AC02120EEA64
:101E03007CAD02120EEAC4AD02120EEADDAD02127F
:101E13000EEA00AE02120EEA22AE02120EEA60AE23
:101E230002120EEAAFAE02120EEADAAE02120EEAA6
:101E330038AF02120EEADFAF02120EEA87B00212C7
:101E43000EEA03B102120EEAD0B102120EEA1CB27C
:101E530002120EEAA4B202120EEADDB202120EEA76
:101E63006EB302120EEA7FB302120EEAF1B302124C
:101E73000EEA8AB402120EEAF4B402120EEAE4B5D0
:101E830002120EEA09B602120EEA06B702120EEAAF
:101E930013B702120EEA1CB702120EEA05B90212B8
:101EA3000EEA21BA02120EEAB2BA02120EEA23BBFA
:101EB30002120EEAFDBC02120EEAC8C002120EEABA
:101EC300DCC002120EEAECC002120EEAF6C00212E5
:101ED3000EEAFFC002120EEA08C102120EEA12C194
:101EE30002120EEA41C102120EEA6FC102120EEA99
:101EF3007AC102120EEA9EC102120EEAC2C1021296
:101F03000EEA34C202120EEA7DC202120EEA99C22E
:101F130002120EEA0AC302120EEA56C302120EEAB4
:101F23009FC302120EEADDC302120EEA5EC402125E
:101F33000EEA29C602120EEAC8C602120EEA90C7BA
:101F430002120EEA1CCA02120EEA71CA02120EEA49
:101F530099CA02120EEACCCB02120EEA11CC02127B
:101F63000EEA66CC02120EEA14CD02120EEAB9CDC5
:101F730002120EEAEECD02120EEA8ECE02120EEA23
:101F83000ACF02120EEADD2E00120EEA0F2F001204
:101F93000EEA432F00120EEAF73000120EEACB319D
:101FA30000120EEA2A3200120EEA403300120EEA41
:101FB3008C3300120EEA293600120EEA9E38001204
:101FC3000EEAEA3900120EEA823A00120EEA8E3A5B
:101FD30000120EEAD73A00120EEA0A3B00120EEA8A
:101FE300963B00120EEAA83C00120EEAE93D0012ED
:101FF3000EEAE83E00120EEA123F00120EEA7D3F9F
:1020030000120EEAD63F00120EEA494000120EEA11
:102013007F4200120EEA054400120EEAF044001259
:102023000EEA3E4600120EEA764800120EEA6D4BA7
:1020330000120EEA7C4B00120EEA104C00120EEA5C
:10204300BB4C00120EEAFE4C00120EEA6A4D00125F
:102053000EEA864D00120EEAB54D00120EEAF44D5B
:1020630000120EEADC4E00120EEA8B4F00120EEA4B
:10207300025200120EEA345300120EEA0354001205
:102083000EEA855400120EEAD15800120EEA0059E6
:1020930000120EEA5B5900120EEA8E5900120EEA84
:1020A300E95900120EEA055A00120EEA665A0012A6
:1020B3000EEAB65A00120EEA655B00120EEA285CBD
:1020C30000120EEAF05C00120EEA3C5F00120EEA08
:1020D300C86000120EEA1F6200120EEA3B63001290
:1020E3000EEA3E6300120EEA6D6300120EEA5C65AF
:1020F30000120EEA256600120EEA666600120EEA68
:10210300BC6700120EEA326800120EEA656800121C
:102113000EEAC96800120EEAEA6A00120EEA496B77
:1021230000120EEA1F6C00120EEA336C00120EEA64
:10213300476C00120EEA746C00120EEAA46C0012D3
:102143000EEA486E00120EEA456F00120EEA936F14
:1021530000120EEABA6F00120EEA957000120EEA30
:102163003B7100120EEAC17200120EEA08730012EC
:102173000EEA757300120EEACA7400120EEA737542
:1021830000120EEAA77500120EEABF7500120EEADE
:10219300627600120EEADE7800120EEA867A0012E8
:1021A3000EEAAA7A00120EEAC87A00120EEA947BAB
:1021B30000120EEAE27E00120EEAFD8101120EEA1F
:1021C3002F8201120EEAAF8601120EEAFE86011279
:1021D3000EEA448701120EEAE78701120EEA4C88E1
:1021E30001120EEA908801120EEAF78901120EEA33
:1021F300238B01120EEA208F01120EEA9F8F011228
:102203000EEAC59001120EEA289101120EEA7492A9
:1022130001120EEA0C9501120EEA999501120EEACB
:10222300A39501120EEACB9501120EEA93960112C1
:102233000EEA289701120EEA519701120EEA7E97D1
:1022430001120EEAD39901120EEAA09A01120EEAC4
:10225300DF9A01120EEA619B01120EEA0C9C011235
:102263000EEA3E9C01120EEA899C01120EEAC29C00
:1022730001120EEA119D01120EEA6D9D01120EEA82
:10228300EF9D01120EEA549E01120EEACC9E01123A
:102293000EEA75A001120EEA6DA101120EEAAEA2BA
:1022A30001120EEA02A601120EEA5EA801120EEA5C
:1022B30017A901120EEA5FA901120EEA40AB01123F
:1022C3000EEA7BAB01120EEA84AB01120EEA8DAB70
:1022D30001120EEA98AB01120EEAB7AB01120EEA35
:1022E3006AAC01120EEAC7AC01120EEAD1AC0112BC
:1022F3000EEADBAC01120EEA27AD01120EEA6FAD56
:1023030001120EEA73AE01120EEA0CAF01120EEACD
:10231300D3AF01120EEAFDB001120EEA28B2011288
:102323000EEA1EB301120EEA36B301120EEA6AB3C5
:1023330001120EEA88B301120EEAD0B301120EEABB
:1023430009B401120EEAC0B401120EEA81B50112FA
:102353000EEAF4B501120EEA70B601120EEA0CB7DA
:1023630001120EEA32B801120EEAEEB801120EEAB9
:102373008EB901120EEA7BBA01120EEAD3BA011228
:102383000EEA99BB01120EEABCBB01120EEAD1BCE4
:1023930001120EEA1CBD01120EEA78BD01120EEA0B
:1023A300E0BD01120EEA04BE01120EEA2CBE0112B8
:1023B3000EEA71BE01120EEA95BE01120EEA19BFB2
:1023C30001120EEA02C001120EEA47C001120EEA20
:1023D30070C001120EEA0EC101120EEA79C1011298
:1023E3000EEAA5C101120EEA86C201120EEA88D4D2
:1023F30003120EEAC0D403120EEAE1D403120EEA6A
:1024030023D503120EEA87D503120EEA91D50312E0
:102413000EEAA1D503120EEAD8D503120EEA81D92A
:1024230003120EEA49DB03120EEA2DDD03120EEA54
:10243300CFDD03120EEA59DE03120EEA76C401124F
:102443000EEADAC401120EEA38C501120EEA83C598
:1024530001120EEA9EC501120EEAC5C501120EEA6B
:10246300E2C501120EEAEEC501120EEA7FC70112A0
:102473000EEA98C701120EEA14C801120EEA27C821
:1024830001120EEA37C801120EEADBC801120EEA86
:1024930047CA01120EEA5ACB01120EEAFACB011215
:1024A3000EEA04CC01120EEA83CC01120EEA94CC9C
:1024B30001120EEAD3CC01120EEA01CD01120EEA8B
:1024C300CECD01120EEA25CE01120EEA5ECE011226
:1024D3000EEAB4CE01120EEAD2CE01120EEA20CFDA
:1024E30001120EEAEBCF01120EEA39D001120EEA05
:1024F30086D001120EEA09D101120EEA33D101127C
:102503000EEA69D101120EEA78D101120EEAD7D18F
:1025130001120EEA4FD201120EEA90D201120EEA14
:10252300E0D201120EEA0BD301120EEA25D30112F7
:102533000EEA3FD301120EEA14D401120EEA1ED49E
:1025430001120EEA59D401120EEA69D401120EEAFD
:1025530072D401120EEAC3D401120EEAD7D40112C7
:102563000EEAF9D501120EEA10D601120EEA25D6AB
:1025730001120EEAB8D601120EEA2CD701120EEAA6
:10258300D1D701120EEADCD701120EEA3CD90112AF
:102593000EEA58D901120EEAA4D901120EEA12DA90
:1025A30001120EEA44DA01120EEA5EDA01120EEAB1
:1025B300A0DA01120EEAF3DC01120EEA8BDD01123E
:1025C3000EEA02DE01120EEA5FE001120EEA77E084
:1025D30001120EEA7AE001120EEA86E001120EEA17
:1025E3009AE001120EEAA2E001120EEAD9E001120A
:1025F3000EEACDE101120EEA57E201120EEAD9E228
:1026030001120EEA59E301120EEA30E401120EEA56
:1026130052E401120EEAEBE401120EEA48E501125C
:102623000EEA4BE501120EEA78E501120EEA8DE59A
:1026330001120EEAFCE501120EEA48E701120EEA66
:102643005BE801120EEAE6E801120EEAF9E901126B
:102653000EEABEEA01120EEAEFEA01120EEA15EBE8
:1026630001120EEA1EEB01120EEA4DEB01120EEA05
:10267300FDEB01120EEAADEC01120EEA20ED0112A0
:102683000EEAC3ED01120EEA36EE01120EEA75EE02
:1026930001120EEABEEE01120EEAF3EE01120EEA89
:1026A300A2BE04120EEA1BC204120EEA8AC104126D
:1026B3000EEA7BC104120EEA6BC104120EEAB6C71E
:1026C30004120EEAFBFF01120EEA53C104120EEAD2
:1026D300B5C004120EEAA4C004120EEAAFB204128B
:1026E3000EEA6DB104120EEA4AC704120EEA2FC7AE
:1026F30004120EEA35B104120EEAF87F00120EEA54
:102703007FBE03120EEAA5BD03120EEADBBC031261
:102713000EEA4ABB03120EEA13BB03120EEAE5BA32
:1027230003120EEA99BA03120EEA02BA03120EEA70
:1027330072B903120EEA4CB903120EEA01B903127D
:102743000EEACBB803120EEA4EB803120EEAE9B74B
:1027530003120EEA98B703120EEAC0B603120EEA8A
:1027630030B603120EEAE4B503120EEA5FB50312A4
:102773000EEAB3C704120EEA1AB503120EEAB0C783
:1027830004120EEAADC704120EEA9DC704120EEA44
:10279300FDFF02120EEAFAFF02120EEAF7FF02121F
:1027A3000EEAFEB403120EEAA6B303120EEA78B3DE
:1027B30003120EEA45B303120EEAF4FF02120EEA05
:1027C300C9B203120EEAADC903120EEA54C90312C9
:1027D3000EEA1FC903120EEAF8FF01120EEAEAC855
:1027E30003120EEAE1F102120EEAB6C803120EEA70
:1027F30049C803120EEA31C803120EEA0CC80312C9
:102803000EEAE5C403120EEAB8C203120EEABFC011
:1028130003120EEA4BC003120EEAFCBF03120EEAC8
:10282300B6BF03120EEA58BF03120EEA84BA0412AB
:102833000EEA4CBA04120EEA2FBA04120EEADCB9FD
:1028430004120EEA8BBF04120EEA91A203000000E9
:1028530080FBE47387000100C11235000400871276
:10286300250002008B12260002008D1227000200B1
:102873008F12280001009912290001009A12840086
:1028830004009B12860001009F122A000100A0127F
:102893002B000100A1122C000100A5122D0008003D
:1028A30016102E000100A6122F000100A7123000FF
:1028B3000100A81231000100A912320001001E100C
:1028C300330001001F1034000100AA12360001007A
:1028D300201038000100AB1239000100A41283005C
:1028E3000200BF1263000100311064000100A21254
:1028F30065000100A3126D00010032107100080091
:102903000E1066000100BE1243000100AF12440026
:102913000200B01245000100B21246000200B312D9
:1029230047000800291048000100B5124B000100C0
:10293300B61204000100C212A1000100C512370043
:102943000100C41288000100C3123C0001002110E1
:102953003D000100AC1249000200B71267000100FC
:1029630033104D000200B9124E000100BB124F009C
:102973000200BC123E000100281051000100221089
:1029830052000100AD1253000100AE1254000100C9
:102993002310000000000000000136360101000191
:1029A3000201000103010001040106060502000003
:1029B300070100340801000F090401010D0100FFA4
:1029C3000E08000017020000190100FF1A010001A0
:1029D3001B0100FE1C0100081D0200001F01000175
:1029E30020010001210200002301000F2402000046
:1029F3002601000127010008280200FF2A01000721
:102A03002B0102402C0100002D0100012E010001C9
:102A13002F0100FF30010B1D310800003A010008AF
:102A23003B01000F3C0100013D0100FF3E0400009B
:102A330042040000460400004A0400004E04000063
:102A430052040000560400005A0400000000210153
:102A53000001002102000001236600010123670039
:102A6300020123680003012369000401216A0005B0
:102A730001216B000601212C010701212D01080111
:102A8300212E010901212F010A012130010B01210E
:102A930031010C0121C8000D0121C9000E0121CA19
:102AA300000F0121CB00100121CC00110121CD0029
:102AB300120121CE0013012132011401213301152A
:102AC3000121CF001601213401170121D000180183
:102AD30021D100190121D2001A0121D30001037170
:102AE30003010301030103010301032203020301A1
:102AF30003100300030003000300030003000300AB
:102B03000342030003240306030003000304031228
:102B13000325032303250323030403040300030002
:102B2300030003440300030003230300036503219D
:102B330000350381030003050300030003000300C2
:102B43000325032303000003002001FA8100000092
:102B5300002001FB810000040042014881000005C0
:102B6300004201E5800000060042014980000007A1
:102B7300002001FC810000100042035412000011E8
:102B8300002003BC0E0000120010036512030000B6
:102B9300002103BD0E060000001001BF0E0200005D
:102BA3000029016612010020002001681201017151
:102BB3000101010101110101013101010101018043
:102BC30001100161013B0014006301730172016292
:102BD3000143010001130106013D01350004011207
:102BE300010001000100010001040104013301336C
:102BF300013C01440132013600000100016501007E
:102C030001350081010001050182018301000103F7
:102C13000071003001600011007000310220035088
:102C23000480001000610000001400630073007250
:102C330000620043000000130006000000000004CF
:102C43000012000000000000000000040004003730
:102C53000037003C02440000000000000000006553
:102C63000000003500810000000500000083000023
:102C730000030271023001600211027002010202BC
:102C83000202028002100261023A004100630273F1
:102C930002720262024302000213023800000200C1
:102CA30002040212020002000200020002040204F3
:102CB30002370037003C02440200023900000200E0
:102CC30002650200023502810200020502820283CC
:102CD30002000236000100060000000F00000000A1
:102CE30000000000000000000003FFFF00000403D9
:102CF300FFFF0000FFFF0FF4010005C404032000E1
:102D03000100000B000000000000000003010F00A1
:102D130000000000000000000000000000000000B0
:102D230000000000000000000000000000000000A0
:102D330000381974193E196C1844197A1944198604
:102D4300194A196C1844197A1950196C1856196CC8
:102D5300185C196C1862196C1868196C186E196C68
:102D63001800000000000000000000000000000048
:102D73000000000000000000000000000000000050
:102D8300000000000000000000000000000A000036
:102D93000002000000040000000800000010000012
:102DA300002000000040000000800000000001003F
:102DB30000000200000004000000080000001000F2
:102DC3000000200000004000000100381C0200AE9B
:102DD3001B0300B41B0400BA1B0500C01B0600CC78
:102DE3001B1100E41B1400EA1B1500DE1BFFFF0090
:102DF3000007ECFDFDFDECDCDCCCBCACAC9C9C8C9E
:102E03007C7C6C6C5C5C5C4C4C3C3C2C2C1C1C0338
:102E1300EAF5E5D5D5C5B5A595958585757565653A
:102E230055554545353525251515050A2C2202FC32
:102E330021050E220702220CE4210DF021FF0000E0
:102E430000160F00000B150B020002220F330000C7
:102E53000E5A6967426565416C6C69616E636530E2
:102E63003901030507090B0D0F00020406080A0CBC
:102E73000D303017181921301B1D1F3000034A492C
:102E8300434E181A250502000119161816161823A1
:102E93000300303016181920231A1C1E3000393D48
:102EA3003F373C3C362C442D0C0E020B040B0A0717
:102EB30008000F02040201010101090200BE040A15
:102EC300E80300000E00E8031E1E0D040903030AB5
:102ED300100C0408280C05080404C082C0831227C0
:102EE300C090105E749EF0A3741FF090106074A4E1
:102EF300F0A3741FF090106274AAF0A3741FF090F3
:102F0300106474B0F0A3741FF002661E74F7120A03
:102F130064E9FE901052E4F0EE901051F07C297DAC
:102F2300107A537B101218369012B5E090105BF0B4
:102F330090105C740EF0A37410F0121FD40253FEB1
:102F430074F0120A648A088B09EB54807003023010
:102F53009B901051E0F91216928A0A8B0BAE0AAFBE
:102F63000BEE4F70030230921257F7707EEE241F60
:102F7300125B3D64137002A3E070708E828F83A393
:102F8300A3E0F50EA3E0F50F90106C126027750A0D
:102F930000750B00800D123DD21267F112172EAA95
:102FA3000CAB0DEA4B60448A828B83E0650E7004A0
:102FB300A3E0650F70288A828B83A3A3A3A312586F
:102FC30015E50A450B8A828B83A3A3A3A360C712CB
:102FD3004D54850A82850B83A3A3A3A380BB8A0ACE
:102FE3008B0B8A828B8312602380B8EE242A125BB8
:102FF3003DF9126BAA90106C12426BA3A3A3A3A377
:10300300A3A3A3E0640270378A828B8312602780B4
:10301300078C828D831244CFEC4D60208C828D838C
:10302300E06A7003A3E06B70E88C828D83A3A3E056
:103033006970DE9012BB125191F0804C121FEC8E1E
:10304300828F83E064017034EE24181230EF120F84
:103053005E124BF5120D8EEE24121230EF120F5E3C
:10306300124BE9120F5A123C9A120D92EE241712C8
:103073004BFD12280E740A120F1C800CE0640270C0
:1030830007EEFAEFFB12210CEEFAEFFB121680AA01
:1030930008E5096480FB8051EA5402600C9012C970
:1030A3007401F0EA6402FA8040EA54046009121FD2
:1030B300DAE50864048029EA54086029121FE68BC4
:1030C3000BEA450B701690106EE4F0A3F0A3F0A387
:1030D300F07A08FB901051E0F91217FAE50864083A
:1030E300FAAB0980047A007B00024639125801F5D5
:1030F3000A780A2274F4120A648A088B098A828B7A
:103103008312603C124AE938F583E02409FA7B0014
:1031130012167A8A0A8B0BAE0AAF0BEE4F700302BC
:1031230031BB8E828F837402F0A3E4126F2EA3A3AC
:10313300A3A3E8F0A3E9126BCEA3A3A3A3A3A3A322
:10314300F0E5082403F8E435091262DF124AE93A8C
:10315300F583124264F0EE2409FAE43FFB8E828F7A
:1031630083A3A312677CF5838882E0A2E58E828F16
:1031730083A3A3A3A3A3500474018001E4F0E5088F
:103183002403F888828983126027EA124ADD3BF51B
:10319300831231BE120F56EA24101268178E828FE3
:1031A300831260251216567403120F1CEEFAEFFBFE
:1031B300901051E0F9121686023AD2E0F508A3E026
:1031C300F509750A0078082274F2120A648A088BDA
:1031D30009ECFAEDFB740E121241E0FC1227608A2F
:1031E3000C8B0DAE0CAF0DEE4F6030AC08AD091279
:1031F3002778E96026AC08AD09EEFAEFFB12276CDD
:10320300E970148E828F83124D4CFAEFFB1227A2C2
:10321300AA08AB091227487900800279B480031207
:103223000F1C7F06020C8D74EE120A6474F7120FE2
:10323300D08A0A8B0BECFEEDFF750CB3750D007590
:103243000E008002050E902EDBE493F8E50EC39882
:103253004003023339AA0E7B001227248A088B0904
:10326300EA450960DF8A828B83A3A3A3A3A3E02596
:103273000DF50DF8C3E50A98E50B940050C67C15CF
:103283007D007900EEFAEFFB12166285088285094C
:1032930083A3A3A3A3A3E0F8E50AC3950D2825E020
:1032A300F8E433F9E50828F582E50939F583124096
:1032B3003A1267F11222BC8A0A8B0BAC0AAD0BEEF1
:1032C300FAEFFB121836850882850983A3E06401AF
:1032D300700B124BF57401127A71A3803DAC18ADDB
:1032E3001985088285098312602512273CE9602D20
:1032F3007408121241E0C0E0124BF5D0E0F07408FC
:10330300121241E06403700CAC18AD1912425C1246
:10331300183680098518828519831267E585088226
:1033230085098312460CA3A3126F05C0E012482A35
:10333300D0E0F0750C00A90C74090272A074F712A6
:103343000A64E9FE8A828B83A3A3A3A3A3A3E05405
:103353000860338A828B83A3A3A3A3A3A3E05402AD
:1033630060218A828B83A3A3A3A3A3A3A3A3A3E024
:103373006406600F74E96E600A74CD6E600574F0C4
:103383006E7003121FBC0253FE74E8120A6474F8D1
:10339300120FD074061212411258CBECFEEDFF89C6
:1033A300177515001236021227548A0A8B0BEA4549
:1033B3000B70030235BEEE24101243F1A90A121E4C
:1033C300FC8A128B13EA451370030235BEEE240305
:1033D300F50CE43FF50DEE2406F508E43FF5097C12
:1033E30000850882124B4112274E8A108B11850CDF
:1033F30082850D83E0851282851383A3A3A31260C4
:10340300BB851282851383A3A3A3A3E8F0A3E912C8
:103413003CA2851282851383A3A3A3A3A3A3A31210
:103423005888851282851383A3A3A3A3A3A3F0EED5
:10343300124ADD3F123613120F56EE124AE93F12BB
:10344300681B851282851383A312601F121656749C
:1034530003120F1C7428121241124D54E51212511B
:103463008335131267EF742A121241E0C0E0E512AC
:10347300124ADD3513F583D0E0F07514007423127E
:103483001241E0F5167424121241780C1211EA026B
:1034930035458510828511831260251227368508EC
:1034A30082850983A3EAF0A3EB123624A3A3126B4C
:1034B300E612361EA2E6500F850882850983A3A370
:1034C300A3A3A3E0D2E1F0E5157066850882850920
:1034D30083124D539010A2E0687003A3E06970510A
:1034E300850882850983A3A3A31243FF751000787F
:1034F30010120F5E780C120F52E516F510781012A9
:103503000F5E7426121241120D929010AF120D929B
:1035130079007410121241126BC612213C740A1204
:103523000F1C850882850983A3A3A3A3A3E04405F5
:10353300F074012514FC12360212274E8A108B11E7
:103543000514E5104511604EC3E514950AE4950B87
:103553005044E51475F006A4F8A9F0E51228F8E53F
:103563001339F9E8240FF508E439F509850882F5DC
:1035730083E4127E97E064016003023495751501BC
:103583008508828509837401123624125AA8A3E898
:10359300F0A3E90234ACAA12AB13121F0278121281
:1035A3000F5AAD167424121241E0FCA917EEFAEF7C
:1035B300FB121FB67402120F1C803A8E828F83A3F4
:1035C300A3A3E0C0E07403121241D0E0123CA2C0F6
:1035D300E07404121241D0E0F0E50A450B7009745F
:1035E3000512124174B98007740512124174101246
:1035F300682C1221367408120F1C7F10020C8D8E5A
:10360300828F8312602B8E828F83A3A3A3E0F92280
:10361300F583125819750E00780C22A3126C0FE073
:1036230022127E9BA32274E9120A6474F3120FD050
:103633008A0C8B0D89168C148D1574241212411269
:103643005F23AA08FB121EF0E9F513AA08AB0912BF
:103653001EF6E513700302386F750E00800F8E821D
:103663008F83A3A3A3A3A3E0D2E3F0050E124834F0
:10367300E0F8E50EC3984003023866E513700302D1
:103683003866E50E75F006A4F8A9F0E50828F8E514
:103693000939F9E8240FFEE439FF8E828F83A3A34F
:1036A300A3A3A3E0A2E040C3750F00750A08750B3E
:1036B30000E5156003750F207C087D007900AA18CA
:1036C300AB191216628E828F83E060379010F2E09E
:1036D30064017017E50FD2E3F50F750B108E828F1F
:1036E3008312389112620A74FF8028430F0C750A03
:1036F3000C8E828F83A3123887A3A3A3A312729580
:10370300A38010E5166009E50FD2E6F50F750A0AE6
:10371300123891F07402121241E50FF0124AE735A4
:103723000DF583E0C0E07404121241D0E0F074059B
:1037330012124112682A122112740C121241E06013
:103743000302384974081212411260898E828F83F2
:10375300A3A3A3A3F0740812124112583DE50AF083
:10376300A3E50BF01257EDE51412361F601190100C
:10377300F2E0C0E0740812124112582DD0E0F07448
:1037830008121241124854A3A3A31238821257E419
:103793001258CB1273001238821257DBEAF0A3EBF4
:1037A300126E32C0E01257D1D0E0126EF6C0E07450
:1037B30008121241125323D0E0126ADFC0E07408EA
:1037C300121241125317D0E0F0740812124112384A
:1037D300871253061239DA123882242CF582E4391F
:1037E300F5831258CBE50C125163350DF583E0C018
:1037F300E01252FED0E0F0740812124112602785E5
:103803000C82850D831238792428F582E43B1267F4
:10381300EFE50C124ADD350DF5831272B075120017
:103823007810120F56124AE7350D12681BEA126A16
:103833005C3BF5831260271216567403120F1CAA01
:1038430018AB191221188E828F83A3A3A3A3A3E01D
:10385300D2E0F0740C121241E060030236611513DA
:1038630002366E7900AA08AB09121FC2740D120F3B
:103873001C7F0F020C8DA3A3A3A3124D58EA22129F
:103883006031E822124D58850C82850D8322A312E4
:103893003896221267B1E8F0A3E92274EE120A64A3
:1038A30074E9120FD08A088B09890A8A828B83A351
:1038B300A3A3A3A3A3A3A3E0F9121F1A8A0C8B0D3E
:1038C300EA450D7003023969125EEF1244EAE50A14
:1038D300600302396E7C04850882850983A3A3A350
:1038E300A3A3A3A3A3E0F9121F20EE4F60788E8257
:1038F3008F83A3A3A3124D537406121241E8F0A3BE
:10390300E9126BF5F8A3E0F974081212411258BEDC
:10391300C0E07410121241D0E01239DA124D537420
:103923000E1212411267F17411121241E41260ACCB
:10393300C8241FF582E438F583125CECC4131354D6
:1039430003FC70027C048E828F83E0F9780C120FE3
:103953005A742059FD744059F97402120FA8121FAA
:10396300B67402120F1C74170272A07C08850882B9
:10397300850983A3A3A3A3A3A3A3A3E0F9121F20F1
:103983008B0FEA450F70030238EDEE4F60D8E50A5E
:10399300F50B780B120F5E850C82850D83A3A3A311
:1039A300A3A3A3A3E0F50B780B120F5E8A828B838C
:1039B300A3A3A3E0FB8A82850F831244D28A828564
:1039C3000F83E0FA8E828F83A3A3E0F91228147485
:1039D30002120F1C0238F1F0850C82850D83A3A31C
:1039E300A3A3A3A3A3A32274F7120A6474FA120F66
:1039F300D0E9FE7C017D017F0080037D000F125B17
:103A030032E0F8EFC3985028EF75F006A4F885F07C
:103A130008A908EA28F8EB39F9E824141264D4A2B7
:103A2300E050D8540C60D4E0A2E250D17C0080CDA9
:103A33008A828B83A3A3A3A3A3A3E0703DEDA2E09B
:103A4300400574016E70338A828B83A3A3A3A3A35F
:103A5300A374011251CBE0C0E07403121241D0E011
:103A63001251C3E0C0E07404121241D0E0F07405B7
:103A7300121241EC12682C12213674060253FBC059
:103A830082C0837901121FC202661E74F4120A6493
:103A9300EA4B9012C96022E4F08A088B09F50AF513
:103AA3000B7808120F527A027B00901051E0F91242
:103AB30017EE7404120F1C800F7401F07A027B005E
:103AC300901051E0F91217FA80057402120F1C7F4F
:103AD30004020C8DC082C083901236E075F005A4F9
:103AE300FCADF079007AF77B051216627A00800A42
:103AF300123C7B74FEF0A304F00A901236E0F8EA5D
:103B0300C39840EC02661EC082C0837A007B0080AB
:103B1300037A010B901236E0F8EBC3985056EB751D
:103B2300F005A4F8ACF0EC123C927003A3E0F4604F
:103B3300E274F728F8740539F9E82403F850010909
:103B430088828983E024FFF0A3E034FF126334F911
:103B5300E84970BDEB75F005A4F8ECF974F728F8A3
:103B6300740539F98882898374FEF0A304123EE256
:103B7300E4F0809FEAA2E05017908189120D8E7ABB
:103B8300047B00901051E0F91217EE7404120F1C1D
:103B930002661E74F7120A64EAFEEBFF901236E027
:103BA3007003023C72EE2411125B3D7003023C72FF
:103BB3008E828F83A312601F122334E96402600F85
:103BC3008E828F83A3A3A3A3A3E07003023C727A24
:103BD300008027123C9A1244D3123C7BE06C7003A2
:103BE300A3E06D7014EE2412125B3DFC74F928F50A
:103BF3008274051264D76C607B0A901236E0F8EA8F
:103C0300C39840CF7A0080010A901236E0F8EAC3E5
:103C1300985061EA75F005A4F8ABF0EB123C927092
:103C230003A3E0F470E274F728F874053BF9123C3F
:103C33009A126A8CEAF0A3EB123CA288828983125F
:103C43003EDB740C1258887A04FB901051E0F91291
:103C53001800EA4B4C4D7017908189120D8E7A042F
:103C63007B00901051E0F91217EE7404120F1C79C7
:103C7300010253FE790080F9EA75F005A4F8A9F072
:103C8300123C872274F728F582740539F58322F9EB
:103C9300123C87E064FE22EE126BA23FF58322F012
:103CA30012707EE02274E8120A6474FC120FD0745E
:103CB30002121241E4F0A3F090106C1244EA85184A
:103CC30082851983E4F0A3F075140190109CE0A29F
:103CD300E35003023D5E1218128A088B098C0A8D89
:103CE3000B8A0C8B0D8C0E8D0F90106E780C120FAF
:103CF300B8123DD97810790C12118E50077A017BD6
:103D030000023DCD850C14850D15850E16850F1704
:103D1300781479101209F5A814A9159012BBE0C301
:103D230098E4995003E08001E8F514123DD9780C2A
:103D330079101209F5E4F512F513780879101210C9
:103D43009F90106E78081211DB8010123DD2125C26
:103D530023FAEFFB12172EAE08AF09EE4F60638E06
:103D6300828F83A3A3A3E0F8E514C3985029EE241C
:103D730003F582E43FF583A814E0C398F06021744F
:103D830002121241124ED312588DEEF0A3EF126AB3
:103D9300E4FEA3E0FF80C48E828F83A3A3A3E4F099
:103DA3008E828F83125F1F8518828519831260A705
:103DB3008E828F83A3A3A3A360911267A91262FAD1
:103DC300808C740212124112602774040235FA12B5
:103DD3004D5890106C229012B9E0F510A3E0F51144
:103DE300E4F512F5132274F2120A648A0A8B0BE9C2
:103DF300FE7A007B0090106C125F2390106C1260AF
:103E0300A7601E0A850882850983A3A3A3A3126062
:103E1300A7600E0AEA70010B88088909E845097052
:103E2300E39012BC124D54C3EA98EB994003023E4F
:103E3300D87A067B001217288A0C8B0DA80CA90DC3
:103E4300E8497003023ED888828983E50AF0A3E536
:103E53000BF0EE88828983A3A3F09012BB12652E28
:103E6300A3123EDBA3E4F0A3F090106C124D646048
:103E73000F850882850983A3A3A3A31267F1801F7B
:103E830090106C1267F190109CE0A2E3401112189D
:103E930012EAF8EBF9ECFAEDFB90106E12122A908D
:103EA300109CE0A2E3502E7A087B00901051E0F9B9
:103EB300121800EA4B4C4D701C9012B91278D57849
:103EC30008120F527A087B00901051E0F91217F490
:103ED3007404120F1C023225A3A3123EE2A3221282
:103EE30064B9A3A322C082C083E99012CAF09010E0
:103EF30066740AF0A37420F0901068741CF0A37425
:103F030020F090106A742EF0A37420F002661E74E1
:103F1300F7120A64EAFEEBFF8908EE4F70031226DC
:103F2300C49010721260A770089010728022124D14
:103F33005488828983A3A3A3A3A3A3A3A3A3124DFA
:103F43006488828983A3A3A3A3A3A3A3A3A370DEEB
:103F5300EEF0A3EF123F69A3A3A3E4F0A3123F691A
:103F6300E508F00253FE123F6D22123F7122F08EDC
:103F7300828F83A3A3A3A3A3A32274F7120A64903B
:103F83001072800D8E828F83A3A3A3A3A3A3A3A3E5
:103F9300A31244EAEE4F60348E828F83A3A3A3A3BC
:103FA300A3A3A3E06970DD8E828F83A3A3A3A3E001
:103FB3006A7003A3E06B70CC8E828F83A3A3A3A349
:103FC300A3A3E06C70BEEEFAEFFB80047A007B00E3
:103FD3000253FE74F7120A649010721244EA9010AE
:103FE3007212387D687002EB69701EE0C82409F50F
:103FF30082E438F583124D549010721267F19010D9
:10400300721244EA80271244DDEE4F60208E828FC5
:1040130083A3A3A3A3A3123879687002EB6970E6A4
:104023008A828B83A3A3A312403A1267F112172E3D
:10403300EEFAEFFB0253FEA3A3A3A3A3A3124848E4
:10404300A3A3A3A3A32274F0120A6474FA120FD0D9
:104053008A088B098A828B83A3A3A3A3A3A3A3A305
:10406300E060336401602F8A828B831260271223FE
:1040730034E97022850882850983A3A3A3A3A3A39C
:10408300A3A3E0640370147404120FB0AA08AB096D
:104093001220ACE97016790202424585088285092F
:1040A30083124D5474041212411267F11270712479
:1040B300341267641217288A0A8B0BAE0AAF0BEE11
:1040C3004F70030242437C347D0079001216627400
:1040D30002120FA8850882850983A3A3A3A3A3A320
:1040E300A3A3A3E0F91227C67402121241E0C0E0B1
:1040F300124254D0E0F0EE242EF50AE43FF50B749F
:1041030003121241E0850A82850B83F07901EEFAEE
:10411300EFFB121FF885080C85090D750E00780C4E
:10412300120F567C1E7D0012425C12165674031247
:104133000F1CEE24321246022434F8E43FF98A823B
:104143008B831267F1E5082411F8E43509F9E8FCDB
:10415300E9FD8C828D8312584924301267EB124596
:10416300FA127B8E120F568C828D8312426B126071
:10417300271216567403120F1C74041212411248AC
:10418300441267F1901052124264A3A3A3F090105B
:1041930052E004F01218128E828F83125881242C5D
:1041A300124B16750D00850A82850B83E0780C127D
:1041B300114B8A828B83E50CF012424AE50C1258AC
:1041C3008DE4F0E5082415127075A2E07401500720
:1041D30012124174018004121241E4F0EE242912F8
:1041E3005F16AA18AB191227EAE924FE850882850F
:1041F3000983F0EE2430F8E43FF9E8FCE9FD1242CC
:1042030073120815E88E828F83A3A3A3A3A3A3A38A
:10421300A3F01242731208158B09EA4509600F8E49
:10422300828F83A3A3A3A3A3A3A3A3E004F0EE24F9
:1042330020125B3D4408124B621216BC79008002C7
:1042430079107406024636EE242BF582E43FF5839B
:1042530022EE126A5C3FF58322EE240BFAE43FFB65
:1042630022126BD6A3A3A3221244D78A828B832262
:104273008C828D83125AACE0FA7B002274F4120A0A
:1042830064EAFEEBFF1218121258C79012AFE0F85F
:10429300EE242D125B3DC39840030243DF124B22F1
:1042A3007013EE242D125B3D04124627E0C0E0128A
:1042B300424AD0E0F0EE242A125B3DFC79008001F3
:1042C30009EE242E125B3DF8E9C3985026750801C8
:1042D300750900E9780812114B124B22550860E06A
:1042E300E92CFC750801750900E9780812114BE007
:1042F3004508F0EE24291243F1EE2430F582E43F21
:10430300F583EC8AF0A4F8ABF0E42BF9E098F8A37A
:10431300E099F9C3E89AE99400EE40342429125B4A
:104323003DF8124B22602F1242541243FFA3E4F0D4
:10433300EC704AEE2420125B3D44201258C2C0E0C8
:10434300125B5BD0E0F0EE24321243F1A3E0805223
:1043530012424B74FFF0901092E0FA9012B21243A3
:10436300F6ABF075F064A4FAADF075F064EBA42D30
:10437300FB8E828F83A3A3EAF0A3EB80B2EE24200B
:10438300125B3D54DF125B56ECF0FAEE2429F58202
:10439300E43FF5831243F6FAABF0EE1257CB3F122C
:1043A3004B38FB126EDAEAF0A3EB126BFEC0E0EEC1
:1043B3002425F582E43FF583D0E0125859E81258DA
:1043C300889010741260A7600BECF9127AA6122879
:1043D30055E9701712425C122082800F7BE9124666
:1043E3001812281AEEFAEFFB122004023AD21258DE
:1043F30001FA22E0F508EA8508F0A422126BD6A39D
:10440300F02274F4120A649010721244EA12181221
:104413008A0A8B0B78FF79FF8020E0C39AFCA3E024
:104423009BFDC3EC98ED99500E8E828F83A3A3E07E
:10443300C39AF8A3E09BF91244DDEE4F605C8E82D1
:104443008F83126027E50AC39AFAE50B9BFB8E82E2
:104453008F831244D1C3EA9CEB9D8E828F83A3A3E7
:1044630040B8A3A3A3A3E06402701AEE240B124B7B
:10447300256009124AFD126027121680EEFAEFFB3F
:104483001220048007EEFAEFFB1220107A017B0062
:104493009012CAE0F91216BC802974FF6870037485
:1044A300FF69601F88088909E4F50AF50B7808128B
:1044B3000F527A017B009012CAE0F91217EE7404CE
:1044C300120F1C023AD2A3A3A3A3A3A3A3A3A3A340
:1044D3001244D722E0FCA3E0FD228E828F83A3A3A4
:1044E300A3A3A3A3A3A3A3E0FEA3E0FF2274F0125C
:1044F3000A648A088B09ECFAEDFB890A7C011270C5
:1045030071F9121FFE8A0C8B0DAE0CAF0DEE4F70BE
:10451300030245F8E50A60030245F81245FA12461C
:10452300106860030245F81245FAE0FAEE242E12F1
:104533005B3DF8EA28FAE43400FB8E828F83A3A361
:10454300A3A3A3A3A3A3E0F8EA98EB9400C365D0C5
:1045530033401CE5082414127075F470127B0012AA
:10456300461812281AEEFAEFFB1220040245F8E56A
:10457300082414127075F47041EE242B12460224A1
:104583002EF8E43FF9E8FCE9FD7508FF7509008C96
:10459300828D83E0780812114B8A828B83E508129F
:1045A3004627E508F08C828D8312461028F0EE240E
:1045B3002DF582E43FF583E4801BE5082414F8E439
:1045C3003509F9E0C0E012462CD0E0126330C0E0B8
:1045D30012424AD0E0F01218128E828F8312588151
:1045E30012425512460CA31258887A01FB9012CA44
:1045F300E0F91216BC803FE508241312483C22F868
:10460300E43FF9E8FAE9FBEE22126BD622E0F8EE7A
:104613001264BFE022EE2422125801FAEE2414128F
:104623005801F922F012462C22EE242CF582E43FA5
:10463300F58322120F1C7F08020C8D74EC120A649E
:1046430074FE120FD08A0A8B0B8C0E8D0F89108A81
:10465300828B83A3A3E0F91227F68A088B09AE089D
:10466300AF09EE4F70077A007B000248207A127B75
:10467300001217288A088B09EA4509700302481CAF
:104683007C127D007900121662AA18AB19850A8282
:10469300850B83A3A3E0F91227C6E508240FF50CC5
:1046A300E43509F50D7401121241E0850C82850D84
:1046B30083F07902AA08AB09121FF8850E82850FD1
:1046C30083124854124862124AD6126BDDF07512F7
:1046D300FF751300850C82850D83E0781212114B50
:1046E300127300E51212532F127AA4E0C0E01248AD
:1046F30034D0E0F0124AF3F50CE508240D127304EC
:10470300E50CF0E50A124B05850CF0A4A9F024276B
:10471300FAE439FB12167A8A0C8B0DAE0CAF0DE559
:1047230008126DF2EEF0A3EFF0EE4F700302480FA4
:104733008E828F83741A1258888E828F83A3A3F07C
:10474300A31248681248441267F1AC0EAD0F126E03
:10475300E41227CC850A82850B83A3A3A3E0C0E0E0
:10476300125CDED0E0F09010AF12584924101248CA
:104773005C125837350B12584712680EE8F0A3E95C
:10478300124868A3A3A3A312584924121267EB8506
:104793000A82850B83A3A3E0C0E012482AD0E0F08D
:1047A300E50A125183124B11E0C0E0126B95D0E081
:1047B300F07416121241126E0CC0E012705FD0E05A
:1047C300126BF0C0E0126DF8D0E0126E15C0E0126B
:1047D3006E02D0E012584EE510F074181212411216
:1047E300121EEE241AF582E43FF58312122AEE24F8
:1047F30027F8E43FF9EE242212485C12675C124B5F
:1048030011E0C0E0126EECD0E0F0800DAA08AB0915
:10481300122004750800750900AA08AB0974021276
:104823000F1C7F0C020C8DEE2414F582E43FF583FC
:104833002212483822E508240BF582E43509F58372
:104843002212484822126F8E8E828F83A3A3A3A3C2
:1048530022125AACA3A3A3A322F582E43FF5831249
:1048630058B8E50A22F0850A82850B83A3A3A3A384
:10487300A3A32274ED120A648A0A8B0B8C108D1188
:104883008912750900EA124B05F50890107412603D
:10489300A7600EA908127AA6122855E96003024AF6
:1048A300D17C02851082851183126027E50A124AA2
:1048B300D6E0F9121FFE8A0C8B0DAE0CAF0DEE4F36
:1048C3007054850A82850B83A3E0A2E04003024A69
:1048D300D17415121241120D8E7417121241120D5A
:1048E30092A912AC10AD11AA0AAB0B1220227406C6
:1048F300120F1C8A0C8B0DAE0CAF0DEE4F70030222
:104903004AD18E828F83A3A3A3A3A3A3A3A3E50862
:10491300124B621216BCA8088E828F83A3A3A3A393
:10492300A3A3A3A3E024FFFAE434FFFBEA684B70DC
:1049330003750901EE240B124B257003024A868589
:104943000A82850B83A3E0A2E05003750800124B93
:104953004FE5089AE49BC365D033401CE0F8EE248E
:104963000E125B3D28F0750CFF750D00E8780C12F4
:10497300114B126650E50CF0E50A124ADD350B12B5
:104983003613120F56E50A124AE9350B12681BEE6D
:10499300240D125B3DF50CE508850CF0A4FAABF091
:1049A300124AFD12603F2422F582E438124B38FB91
:1049B3001216567403120F1C750C01124B2A780C35
:1049C30012114B125B3A450CF0E509A2E05063EE7D
:1049D300240C124B16124B2A04780C12114B8A82A8
:1049E3008B83E0450C12586C85080C850CF0A4F8F9
:1049F300A9F0124AF3FCE82CFCE439FD124AFD123B
:104A0300603F2420F582E438F583ECF0A3ED1258DF
:104A130099F4701EEE240BF50CE43FF50DEE124AEB
:104A2300E93F124B41121686850C82850D8374FF74
:104A330080501218121258C7901092E0FA9012B2D6
:104A4300E0F50CEA850CF0A4FAABF0F8EBF9901260
:104A5300AFE0F50CE8850CF0A4F8ACF0850CF0E9B8
:104A6300A42CF9EA28F8EB39F9E875F064A4F8AA5C
:104A7300F075F064E9A42AF98E828F83A3A3E8F08A
:104A8300A3E9F0A808124B4FEA24FF1AEB34FFFB0B
:104A9300EA687001EB600EEE240C124B256006E50C
:104AA30009A2E05029E50A124B0AECF0125B3AC066
:104AB300E0E50A2414F582E4124B11D0E0F0AC0ACD
:104AC300AD0B8510828511831260271220707F0B36
:104AD300020C8D125163124B1122124AE122240E51
:104AE300F582E422E50C124AED222410F582E42239
:104AF300E50A124AED124B11E022EE124AED3FF5A0
:104B03008322124B0AE02212515D124B1122350B04
:104B1300F58322F8E43FF9E8FAE9FB750CFF22EE8E
:104B2300242B125801F422750D001257FEF5F0E5FF
:104B33000884E5F022F583E02AFAA3E03B22F5831B
:104B4300126031850C82850D83E0F922EE240E126A
:104B53005801FC1257FEFAEC2AFAE43400FB22F067
:104B63007A017B009012CAE0F922C082C0839012BE
:104B7300CAE0F912168602661E74F4120A648A08E1
:104B83008B09EB5480703BEAA2E05053122016E5E8
:104B9300086401FAAB09804B8E828F83E064017055
:104BA3001A124BF5120D8E124BE9120F5AEE241204
:104BB300124BFD1220287406120F1CEEFAEFFB12A3
:104BC30016809012CAE0F91216928A0A8B0BAE0A6B
:104BD300AF0BEE4F70C2AA08E5096480FB80047A2C
:104BE300007B00023AD2EE240FF50AE43FF50B787E
:104BF3000A22EE12515D3FF58322125801F9EE2489
:104C030002FCE43FFDEE2419FAE43FFB2274F112A7
:104C13000A64890A8A088B098A828B8312602712A5
:104C230020408B0DEA450D600579B8024CB812207F
:104C33004CE9F8902ED3E493F9E8C399400479B290
:104C430080737A157B001217288A0C8B0DAE0CAF7C
:104C53000DEE4F70047910805C8E828F83E4F0A395
:104C6300126C0AA3E50A126E25120F567C127D0000
:104C7300EE2403FAE43FFB1216567403120F1C9042
:104C830010761260A79010767006EEF0A3EF801FE7
:104C9300E0FAA3E08003E8FAE9FB8A828B831260DF
:104CA300A770F3EEF8EFF98A828B83E8F0A3E9F0BB
:104CB30012205E7900026215C082C0839010768054
:104CC300048C828D831244D3EC4D60288C828D83B7
:104CD300A3A3E069600574FF6970E68C828D83A3EA
:104CE300A3A3E06A7003A3E06B70D6EC2403FAE499
:104CF3003DFB80047A007B0002661E74F7120A648F
:104D0300E9FD74FE6D70047C0180027C00901076D6
:104D130080096D70027C01888289831260A7601FFD
:104D230088828983A3A3A3E06A7003A3E06B70E77F
:104D3300ECA2E088828983A3A3E050D6F9800279AC
:104D4300FE0253FEEEF90251FDA3A3125F27EE22EA
:104D5300A3124D5822126F8E22120F1C7F03020CD6
:104D63008D126031EA4B22C082C0837900901076A5
:104D73008001091260278A828B83E582458370F262
:104D830002661E74F6120A64E4F508F5097808123F
:104D93000F5A902ED3E49375F013A4A9F0124EC8C2
:104DA3001217A07402120F1CE9FE600312205802AE
:104DB3004D4774F6120A6474FE120FD0851882856B
:104DC3001983E4F0A3F0A818A919880889097808B9
:104DD300120F5A7508027509007808120F5A7C00E1
:104DE3007D007A427B001217AC7404120F1C02512F
:104DF300F874F5120A6474EB120FD08518828519C2
:104E030083E4F0A3F0901076E0FEA3E0807E8E8230
:104E13008F83A3A3E0C0E07402121241D0E01262B8
:104E23000AA982AA8389088A09750A007808120FD9
:104E3300567C127D007406121241AA82AB831216AD
:104E4300567403120F1C7402120FA0880889097884
:104E530008120F5A7508137509007808120F5A744F
:104E630004121241125F3375F013A4F8AAF075F01F
:104E730013E9124EC41217AC7404120F1C85188266
:104E8300851983124ED3126F83E8FEE9FFEE4F605C
:104E930003024E11A818A919880889097808120F66
:104EA3005A7508027509007808120F5A7C007D00B4
:104EB3007A427B001217AC7404120F1C7415024D56
:104EC3005CA42AF9E82402FCE439FD7A427B00223F
:104ED300E02401F0A3E034002274F4120A6474EBBA
:104EE300120FD07E007F00A818A9198808890978B5
:104EF30008120F5A7508028E097808120F5A7C009F
:104F03007D007A427B001217B27404120F1CE97001
:104F13006E8E0880587402120FA0880A890B780AD3
:104F2300120F5A750A13750B00780A120F5AE50807
:104F330075F013A4F8AAF075F013E509124EC41224
:104F430017B27404120F1CE9701B7403121241AAE6
:104F530082AB837402121241E0F912203AE9700520
:104F63000EEE70010F0508E5087002050985188229
:104F7300851983124D54C3E50898E509994096EEC7
:104F8300FAEFFB7415023ACF74F6120A648C828D21
:104F930083A3A31251B9F0EA2417F582E43BF58306
:104FA300E0C0E0125189D0E0F0125169124D541261
:104FB30051731251B9A3F0A3F0EA241FF582E43B25
:104FC300F5831244EAEC1258373DF583EEF0A3EF74
:104FD300F0EA12664A3BF58312519AA3A3A3A3A353
:104FE300A3EEF0A3EF126330FE8C828D831251E3A4
:104FF30074035EFEC394034003025150EE600574D4
:10500300026E70798C828D83E0540CFE740C6E708A
:10501300030250BDE0A2E4400D88828983E08C82C4
:105023008D83A31251EB74086E60030250BD1251BD
:105033007B7401F08A828B83A3A3A3A3A3126204CC
:1050430070148C828D83E0440C1251C3A3A31251BC
:105053009AEEF0A3EFF08C828D83E0A2E4401E125F
:1050630051A81251D45001091251A8A3A31251D42B
:10507300500109888289831251911251E3888289F0
:1050830083E0C0E0EC1251633DF583D0E01251E3BD
:105093008C828D83E0A2E7507888828983E0FE8C3E
:1050A300828D831251EB74FC5E700C8C828D83A312
:1050B300E054036403701B02515012517BE4F074FB
:1050C3000C6E60030250371251A81251D650870953
:1050D30080848C828D83A3E0540360388882898323
:1050E300E0C0E0EC12515D3DF583D0E01251EC8C51
:1050F300828D83E054036402701A88828983E0C03E
:10510300E0EC2414F582E43DF583D0E01251EC8009
:1051130003A3E4F0EC124ADD3D1267EFEC2410FE2A
:10512300E43DFF125169E0F5088E828F83E0C39856
:105133002508F508F0EA241712679FC39508C0E015
:10514300125173D0E0126330C39508500A125173A1
:10515300E4F0125189E4F00251FD2413F582E422B4
:105163002411F582E422EA241DF582E43BF583222F
:10517300EC12664A3DF58322EC1251833DF58322FE
:10518300240CF582E422EC124AED3DF58322E08CF7
:10519300828D83A3A3A322E0FEA3E0FF8C828D83F1
:1051A300A3A3A3A32288828983E0F508A3E0FFE5F4
:1051B300088C828D8322E4F08C828D83A3A3A322A7
:1051C3001251CBA3A3A3A322F08A828B83A3A3A30D
:1051D30022A3A3A3A3A3A3F0A3EFF0E82402F8223E
:1051E3001251F3A882A98322A31251F308A983229F
:1051F3001264B9A3227402120F1C7F02020C8D7475
:10520300F4120A6474F3120FD08A0A8B0BECFEEDCE
:10521300FF8E828F83E0540CF508E0A2E75006E589
:1052230008D2E7F508E508D2E1F508126204700632
:10523300E508D2E4F508E0A2E55006E508D2E5F575
:10524300087C087D007900AA18AB19121662740253
:10525300121241E50812532FC0E07403121241D019
:10526300E012588DE50AF0A3E50BF0740512124124
:1052730012682A122112740C121241E07078740819
:1052830012124112603F12675C38126C15C0E07451
:1052930008121241125323D0E0126ADFC0E07408EF
:1052A300121241125317D0E0F0740812124112681F
:1052B300221253061258C21258742411125B3DC0B5
:1052C300E01252FED0E0F0EE2414125B3DC0E07415
:1052D3000812124112603F2435F582E438F583D079
:1052E300E0125864C0E07408121241125821D0E051
:1052F30012682C122118740D023ACFE81257CB39D9
:10530300F5832212602BE8242AF582E439F583EA37
:10531300F0A3EB22126AD52427F582E438F5832221
:10532300126AD52426F582E438F58322126C0AE04A
:105333002274F7120A647E008A828B83A3A3A3A339
:10534300A3A3A3A3A3E0640460030253E01260C019
:10535300E060030253E01253E43B1260A5607E88D1
:10536300828983E054037075E8240C1264D4FA8CA8
:10537300828D83A3A3E0FBA3E0CB1251633BF583B0
:10538300E06A705988828983A3A3A3A3A31253EF6E
:10539300E06A7003A3E06B7044888289831253EF41
:1053A300A3A31264E92406125B3D6A7003A3E06BB6
:1053B300702B88828983A3A3E0F88C828D83A3A3B7
:1053C300E0F9A3E0F5838982A3A3E068600D8C82F2
:1053D3008D83125CEA540C640470027E01EEF98042
:1053E3001AEA1253E922240FF582E422A3A3A3A30A
:1053F3001260318C828D8322120F1C7F01020C8D6F
:1054030074F6120A6474FC120FD0EAFEEBFFECFA96
:10541300EDFB8A828B83A3E054036016901068121D
:1054230060A760597900EEFCEFFD127AA6122855A9
:10543300804B851882851983EEF0A3EFF074021276
:1054430012411258CBAC18AD197A767B2012226E1A
:105453008A088B09A808A909E849602188828983F9
:10546300A3A3A3A3A3A3A3A3A37406F07A00888290
:10547300898312603F126A6BE0F91221D874040227
:1054830051FA74F2120A6474F3120FD0EAFEEBFFBE
:105493008E828F83A3A3A3A3A3A3A3A3A3A3E0F5B4
:1054A3000A9012C9E0700579BA0257C675080175EA
:1054B3000900750C00750D007C087D007900AA18A1
:1054C300AB19121662740512124174011258A054DA
:1054D3000460127402121241E0D2E61258A054087A
:1054E3007003750803E05410600674404508F5081E
:1054F300E0540860227402121241E044C01258A022
:105503005420600A7403121241E0D2E0800874034D
:10551300121241E0D2E1F0EE2415125B3D1258095C
:105523007003740169700674084508F5088E828F4C
:1055330083A3A3A3A3A3A3A3A3E070161222C285EC
:1055430018828519831258CB7402121241E0D2E2F9
:10555300802C640F701074021212411258A8740444
:105563004508F508807B8E828F83A3A3A3A3A3A3FF
:10557300A3A3E064028E828F837006123892F080B8
:1055830060A3A3A3A3A3A3A3A3E06403700DAC1818
:10559300AD19EEFAEFFB1220AC80468E828F83A307
:1055A300A3A3A3A3A3A3A3E0640170359010F2E027
:1055B300601074021212411258A8750910750AFF7F
:1055C30080187402121241E0440C12588D74FDF0DD
:1055D300A374FFF074044508F5088E828F83125874
:1055E30015EE2415125B3DA2E0503F7402121241E6
:1055F300E0540C701B8E828F83126027121CF2E919
:10560300700579BB0257C67402121241E0D2E5F06D
:10561300EE2415125B3DA2E050107402121241E019
:10562300540C64047004E0D2E5F0EE2411125B3DE7
:10563300C0E07404121241D0E012682C12211274DB
:105643000C121241E060030257BF74081212411298
:10565300583DE508F0A3E509F0EE2418125B3DC0C0
:10566300E01257EDD0E012584EE0C0E07408121279
:105673004112603F12515D38F583D0E01258C26485
:105683000170119010F2E0C0E07408121241125838
:105693002DD0E0F074081212411258492417124316
:1056A300F1E81257E4EA125888EE2415FAE43FFBB6
:1056B3008A828B831244D3E81257DBECF0A3ED12FA
:1056C3005859E0C0E01257D1D0E012589912580946
:1056D300700374016970137408121241126089FA1D
:1056E300EE241D125B3DF9121F268E828F83A3A326
:1056F300A3A3A3A3A3A3A3E0C0E0740812124112BF
:105703005323D0E0F07408121241125317E50AF044
:105713007408121241125F332428F582E439F583A9
:10572300E50CF0A3E50D12586CFAA3E0FBE8242A7C
:1057330012587B240F125B3D1258742417125B3DE1
:10574300C0E0E82433F582E439F583D0E0F0125762
:10575300F7C0E07408121241125821D0E0F0EE2491
:105763001A125B3DC0E0740812124112603F1257D7
:10577300CB38F583D0E01258641231BF120F5612A2
:105783006DEA1244D3740B121241126BB2FAA3E006
:10579300FB1216567403120F1CEE2415125B3D54B4
:1057A3004060129010821260A7600AAA18AB191207
:1057B3007AA6122855AA18AB19122118740C1212C2
:1057C30041E0F9740D0232222432F582E422E82406
:1057D30020F582E439F58322241EF582E439F5832A
:1057E30022241CF582E439F58322E82412F582E4AD
:1057F30039F58322EE241B12580122EE240FF58281
:10580300E43FF583E0225480F8A3E05401F9748067
:10581300682212581922E0F50CA3E0F50D22126A52
:10582300D52434F582E438F58322126AD512583729
:1058330038F583222415F582E422125F371253E9E7
:1058430039F58322F583124D58EE22F0EE2419F533
:1058530082E43FF58322F0EE241CF582E43FF583D6
:1058630022F0EE241312580122F0EE240D125801F7
:1058730022FAA3E0FBE8242CF582E439F583EAF06D
:10588300A3EBF0EE22F0A3E4F02212589122F0856C
:10589300188285198322F08A828B83E022F0EE241A
:1058A3001512580122E0D2E3126F871258B22285F3
:1058B3001882851983E8F0A3E9F022E8F0A3E9123E
:1058C3006ABFE0228E828F83EAF0A3EBF02274F7A3
:1058D300120A647E638A828B83E0600C790512214D
:1058E300A2E9F87456C398FE90109AE0600CF9127E
:1058F30021A2E9F8EEC39824F2FE0253E074F612F3
:105903000A6474FE120FD08518828519831258CB4E
:10591300E9FEECFAEDFB9003041260A76035A818CA
:10592300A919880889097808120F5A7D01740E1283
:105933001241E0FCEEF9900304126A8712285574B1
:1059430002120F1C8B09EA4509600479008006796D
:10595300B2800279B60251F874F7120A64E9FE9034
:10596300105E1260A7601F7409121241E0F50878F7
:1059730008120F5EEEF990105E126A8712285574B2
:1059830001120F1C800279B60253FE74F7120A64E7
:105993008908ECFEEDFF79B5E508245E601F14600D
:1059A3000624F86033803C900306124D6460349003
:1059B3000306126A871228551258C7802490106074
:1059C3001244D3EC4D601CEEFCEFFD901060126AA4
:1059D30087122855E9F9800B90105C126BC61218D8
:1059E3003679000253FE74F7120A64E9FE79B5743E
:1059F300AB6E700B90105C126027121836790002A0
:105A030053FE74F2120A648A088B09ECFEEDFF75EB
:105A13000A019010A2E065087004A3E06509701400
:105A23001222BC8A088B09AC08AD09EEFAEFFB120F
:105A33001836802A1222C88A0C8B0DE508650C7073
:105A430004E509650D7009EEFAEFFB1222CE800E14
:105A5300EEFCEFFDAA08AB09121E18E9F50AA90A24
:105A630002322574F2120A64EAFEEBFF8C088D09F8
:105A7300750A011222BC8A0C8B0DAC0CAD0DEEFA2B
:105A8300EFFB121830E96401700B9010A2125AA8B0
:105A93001267F1800EAC08AD09EEFAEFFB121E1E81
:105AA300E9F50A80B9125AAC22126F8E85088285F5
:105AB30009832274F6120A64EAFEEBFF7A0D7B0077
:105AC300121728EA4B6065EE2424126FAEF0EE2421
:105AD30025126FAEA3125B56126FB4A3A3126E1AF4
:105AE300125B41F0EE242A125B4A125C1F242C1233
:105AF3005B4A125C1D242EF582E43FF583125B4161
:105B0300A3A3A3A3A3F0EE2433125B3DC0E0125B77
:105B130032D0E0126C19125B4DA3A3A3125C1D24B7
:105B230032125B3DC0E01260C0D0E0F00251FDEAEA
:105B3300126BA23BF58322EE240C12580122E08A59
